:020000040800F2
:1000000000800020F10A0008410B0008410B0008A5
:10001000410B0008410B0008410B000800000000E4
:10002000000000000000000000000000410B00087C
:10003000410B000800000000410B000839030008D4
:10004000410B0008410B0008410B0008410B000860
:10005000410B0008410B0008410B0008410B000850
:10006000410B0008410B0008410B0008410B000840
:10007000410B0008410B0008410B0008410B000830
:10008000410B0008410B0008410B0008410B000820
:10009000410B0008410B0008410B0008410B000810
:1000A000410B0008410B0008410B0008410B000800
:1000B000410B0008410B0008410B0008410B0008F0
:1000C000410B0008410B0008410B0008410B0008E0
:1000D000410B0008BD080008410B0008410B000857
:1000E000410B0008410B0008410B0008410B0008C0
:1000F000410B0008410B0008410B0008410B0008B0
:10010000000000000000000000000000410B00089B
:10011000410B0008410B0008410B0008410B00088F
:10012000410B0008410B0008410B0008410B00087F
:10013000410B0008410B0008000000000000000017
:10014000410B0008410B0008410B000800000000B3
:10015000000000000000000000000000000000009F
:100160000000000000000000410B0008410B0008E7
:10017000410B00080000000000000000000000002B
:0801800000000000410B000823
:1001880080B400AF00BFBD4680BC704780B485B066
:1001980000AF0023FB600023BB6000237B600023CB
:1001A8003B602D4B5B6803F00C03FB60FB68082B7E
:1001B80011D0FB68082B36D8FB68002B03D0FB68EE
:1001C800042B04D02FE0254B254A1A602FE0234B3F
:1001D800234A1A602BE0204B5B6803F47013BB6062
:1001E8001D4B5B6803F480337B60BB689B0C023358
:1001F800BB607B68002B06D1BB681A4A02FB03F37D
:10020800164A136013E0144BDB6A03F00F03013343
:100218003B60134A3B68B2FBF3F3BA6802FB03F393
:100228000E4A136003E00D4B0D4A1A6000BF0A4BDB
:100238005B681B0903F00F030B4AD35CFB60074B99
:100248001A68FB6822FA03F3044A136000BF1437E4
:10025800BD4680BC704700BF00100240000000206F
:1002680000127A0000093D00B00C00080348044B56
:10027800834202D0034B03B118477047080000209F
:1002880008000020000000000548064B1B1AD90F83
:1002980001EBA301491002D0034B03B11847704783
:1002A80008000020080000200000000010B5064CDF
:1002B800237843B9FFF7DAFF044B13B10448AFF3CF
:1002C80000800123237010BD0800002000000000FA
:1002D800640C000808B5054B1BB105490548AFF388
:1002E8000080BDE80840FFF7CFBF00BF0000000056
:1002F8000C000020640C000880B500AFFFF746FF33
:10030800084B1B68084AA2FB03239B09074A013BC9
:100318005360064B00229A60044B07221A6000BF04
:1003280080BD00BF00000020D34D621010E000E047
:1003380080B400AF044B1B680133034A136000BF4D
:10034800BD4680BC704700BF2400002080B485B043
:1003580000AF7860084B1B68FB6000BF064B1A684B
:10036800FB68D31A7A689A42F8D800BF00BF1437DE
:10037800BD4680BC704700BF2400002080B483B015
:1003880000AF786000E000BF7B685A1E7A60002BDF
:10039800F9D100BF00BF0C37BD4680BC70470000D4
:1003A80080B400AF184B5B69174A43F400335361BC
:1003B8004FF090431B684FF0904223F03F031360C7
:1003C8004FF090431B684FF0904243F015031360C1
:1003D8004FF090439B684FF0904223F03F039360A7
:1003E8004FF090439B684FF0904243F03F03936077
:1003F8004FF090439B694FF0904243F001039361A3
:1004080000BFBD4680BC70470010024080B400AFFA
:100418004FF090439B694FF0904243F00203936181
:1004280000BFBD4680BC704780B400AF4FF090431A
:100438009B694FF0904243F40033936100BFBD467F
:1004480080BC704780B400AF4FF090439B694FF079
:10045800904243F00403936100BFBD4680BC7047DF
:1004680080B400AF4FF090439B694FF0904243F443
:100478008023936100BFBD4680BC704780B500AF44
:100488004FF090439B694FF0904243F00103936112
:100498000A20FFF75BFF4FF090439B694FF09042B3
:1004A80043F4803393610A20FFF750FF4FF09043E5
:1004B8009B694FF0904243F00103936100BF80BDF8
:1004C80080B582B000AF0346FB71FFF7ADFFFB7943
:1004D800184600F0BDFA0520FFF750FF00BF0837A7
:1004E800BD4680BD80B582B000AF0346FB71FFF703
:1004F8008DFFFB79184600F0ABFA0520FFF73EFFA9
:1005080000BF0837BD4680BD80B500AFFFF748FF84
:10051800FFF7B4FF0A20FFF719FFFFF7A1FF0A2032
:10052800FFF714FF1120FFF7CBFF7820FFF70EFF2E
:100538003A20FFF7C5FF0520FFF7D4FF3620FFF765
:10054800BFFF1420FFF7CEFF2920FFF7B9FF642073
:10055800FFF7FCFE00BF80BD80B584B000AF034646
:10056800FB80FFF77DFF2A20FFF7AAFF0020FFF797
:10057800B9FF0020FFF7B6FF0020FFF7B3FF7F2089
:10058800FFF7B0FF2B20FFF79BFF0020FFF7AAFF24
:100598000020FFF7A7FF0020FFF7A4FF9F20FFF729
:1005A800A1FF2C20FFF78CFFFFF730FF0023FB6033
:1005B8000EE0FB881B0A9BB2DBB2184600F048FA33
:1005C800FB88DBB2184600F043FAFB680133FB6096
:1005D800FB68B3F5A04FECD300BF064B9B6803F054
:1005E8008003002BF9D1FFF72DFF00BF1037BD4660
:1005F80080BD00BF0030014080B400AF0A4B5B698A
:10060800094A43F400235361084B1B68074A43F027
:1006180080631360054BDB68044A43F08063D36052
:1006280000BFBD4680BC704700100240000800486B
:1006380080B584B000AF00F02DFAFFF75DFEFFF73C
:10064800DBFF4FF4165000F089F81C4800F01CF945
:1006580000F08CF91A4800F017F9FFF755FF194810
:1006680000F012F94FF47840FFF776FF3B4600227E
:100678001A605A609A600023FB7300F059F9124B14
:100688001A683B68D31AB3F57A7FF6D30E4B1B680A
:100698003B60FB7B83F00103FB73FB7B002B06D0E5
:1006A8000A4B5B69094A23F400535361E5E7074B9A
:1006B8005B69064A43F400535361DEE77C0C00088B
:1006C800880C0008940C000824000020000800484A
:1006D80080B483B000AF0346FB7197F90730002B55
:1006E8000BDBFB7903F01F02064997F907305B091A
:1006F800012000FA02F241F8232000BF0C37BD4662
:1007080080BC704700E100E080B483B000AF0346CE
:100718003960FB7197F90730002B0ADB3B68DAB2C6
:100728000C4997F907301201D2B20B4483F8002321
:100738000AE03B68DAB20849FB7903F00F03043B8F
:100748001201D2B20B441A7600BF0C37BD4680BCEA
:10075800704700BF00E100E000ED00E080B582B026
:1007680000AF0346FB80394B5B69384A43F40033DA
:100778005361364B9B69354A43F4804393614FF08C
:1007880090431B684FF0904223F4402313604FF0CE
:1007980090431B684FF0904243F4002313604FF0DE
:1007A80090431B684FF0904223F4401313604FF0BE
:1007B80090431B684FF0904243F4001313604FF0CE
:1007C80090435B684FF0904223F4C06353604FF04E
:1007D80090439B684FF0904243F4201393604FF08E
:1007E80090435B6A4FF0904223F47F6353624FF06B
:1007F80090435B6A4FF0904243F4EE635362144BAC
:1008080000221A60124B00225A60114B00229A6093
:10081800FB88104A92FBF3F20D4BDA600C4B1B6815
:100828000B4A43F020031360094B1B68084A43F046
:100838000D03136002212520FFF766FF2520FFF72F
:1008480047FF00BF0837BD4680BD00BF001002400B
:100858000038014000127A0080B483B000AF03462C
:10086800FB7100BF074BDB6903F08003002BF9D055
:10087800044BFA7992B21A8500BF0C37BD4680BC8A
:10088800704700BF0038014080B582B000AF786083
:1008980006E07B685A1C7A601B781846FFF7DCFF75
:1008A8007B681B78002BF4D100BF00BF0837BD461A
:1008B80080BD000080B483B000AF194BDB6903F042
:1008C8002003002B27D0164B9B8C9BB2FB71154B3A
:1008D80001221A70FB790D2B04D0134B1B78DBB265
:1008E8001E2B0AD9104B1B78DBB21A460F4B00217E
:1008F80099540D4B00221A700DE00B4B1B78DBB29C
:1009080019460A4AFB795354074B1B78DBB201336B
:10091800DAB2054B1A7000BF0C37BD4680BC704771
:10092800003801404900002048000020280000202D
:1009380080B500AF094B1B78DBB2002B0BD0084801
:10094800FFF7A2FF0748FFF79FFF0748FFF79CFF45
:10095800024B00221A7000BF80BD00BF4900002072
:10096800A40C000828000020AC0C000880B400AFDC
:10097800354B5B69344A43F400335361324B9B690E
:10098800314A43F4805393614FF090431B684FF012
:10099800904223F47F4313604FF090431B684FF05D
:1009A800904243F42A4313604FF090435B684FF042
:1009B800904223F0F00353604FF090439B684FF050
:1009C800904243F42A4393604FF090431B6A4FF0E0
:1009D80090429BB213624FF090431B6A4FF09042D3
:1009E80043F0AA4343F4AA031362184B00221A6087
:1009F800164B00225A60154B1B68144A43F0040337
:100A08001360124B1B68114A43F4007313600F4BB9
:100A18001B680E4A43F4807313600C4B1B680B4A27
:100A280043F010031360094B5B68084A43F4E06322
:100A38005360064B1B68054A43F04003136000BF30
:100A4800BD4680BC704700BF001002400030014026
:100A580080B483B000AF0346FB7100BF0B4B9B68AB
:100A680003F00203002BF9D0094AFB79137000BF89
:100A7800064B9B6803F00103002BF9D0044B1B784D
:100A8800DBB218460C37BD4680BC704700300140C9
:100A98000C30014080B400AF124B1B68114A43F47C
:100AA8008033136000BF0F4B1B6803F40033002B27
:100AB800F9D00C4B5B680B4A23F003035360094BD6
:100AC8005B68084A43F00103536000BF054B5B684D
:100AD80003F00C03042BF9D100BF00BFBD4680BC56
:100AE800704700BF00100240DFF834D0FFF748FB22
:100AF8000C480D490D4A002302E0D458C450043371
:100B0800C4188C42F9D30A4A0A4C002301E0136046
:100B18000432A242FBD300F011F8FFF789FDFEE78B
:100B2800008000200000002008000020D40C0008ED
:100B380008000020E4010020FEE7000070B50F4B1C
:100B48000F4DAB42A3EB050607D0B610002455F8AD
:100B5800043B01349847A642F9D800F07FF8094DC4
:100B6800094B5E1BAB424FEAA60606D0002455F897
:100B7800043B01349847A642F9D870BDC80C000858
:100B8800C80C0008C80C0008D00C0008704700BF4B
:100B9800704700BF024B13B1024800F005B8704718
:100BA80000000000BD0B0008002301461A46184645
:100BB80000F014B838B5074D074C2C1BA41005D00D
:100BC800013C55F8043D9847002CF9D1BDE8384060
:100BD80000F04AB8D40C0008D00C00082DE9F843FE
:100BE8001B4D0646286898460F469146FFF7CEFFEC
:100BF800184B1C681CB3286865681F2D22DC4EB989
:100C08006B1C0235636044F82570FFF7C1FF0020B4
:100C1800BDE8F88304EB85010123C1F88890D4F876
:100C28008821AB401A43022EC4F88821C1F80881F4
:100C3800E6D1D4F88C211A43C4F88C21E0E7064C9D
:100C48001C60D8E7FFF7A4FF4FF0FF30E0E700BFD4
:100C5800040000205000002054000020F8B500BF18
:100C6800F8BC08BC9E467047F8B500BFF8BC08BC85
:040C78009E467047DD
:100C7C00555341525420454E200A0D0053504920E3
:100C8C00494E4954200A0D00535437373335204907
:100C9C004E4954200A0D00004745543A20000000EC
:100CAC000D0A000000000000000000000102030417
:0C0CBC0006070809000000000102030404
:080CC8009D0B0008DD0200088D
:040CD000B502000861
:080CD40000127A004C00002020
:0400000508000AF1F4
:00000001FF
