:020000040800F2
:1000000000800020CD0B00081D0C00081D0C00080E
:100010001D0C00081D0C00081D0C0008000000004D
:100020000000000000000000000000001D0C00089F
:100030001D0C0008000000001D0C0008C10800088D
:100040001D0C00081D0C00081D0C00081D0C0008EC
:100050001D0C00081D0C00081D0C00081D0C0008DC
:100060001D0C00081D0C00081D0C00081D0C0008CC
:100070001D0C00081D0C00081D0C00081D0C0008BC
:100080001D0C00081D0C00081D0C00081D0C0008AC
:100090001D0C00081D0C00081D0C00081D0C00089C
:1000A0001D0C00081D0C00081D0C00081D0C00088C
:1000B0001D0C00081D0C00081D0C00081D0C00087C
:1000C0001D0C00081D0C00081D0C00081D0C00086C
:1000D0001D0C0008150B00081D0C00081D0C000865
:1000E0001D0C00081D0C00081D0C00081D0C00084C
:1000F0001D0C00081D0C00081D0C00081D0C00083C
:100100000000000000000000000000001D0C0008BE
:100110001D0C00081D0C00081D0C00081D0C00081B
:100120001D0C00081D0C00081D0C00081D0C00080B
:100130001D0C00081D0C000800000000000000005D
:100140001D0C00081D0C00081D0C0008000000001C
:10015000000000000000000000000000000000009F
:1001600000000000000000001D0C00081D0C00082D
:100170001D0C00080000000000000000000000004E
:08018000000000001D0C000846
:100188000348044B834202D0034B03B1184770471E
:100198003804002038040020000000000548064903
:1001A8000B1AD90F01EBA301491002D0034B03B17D
:1001B8001847704738040020380400200000000069
:1001C80010B5064C237843B9FFF7DAFF044B13B197
:1001D8000448AFF300800123237010BD38040020C9
:1001E80000000000340C000808B5044B1BB104499A
:1001F8000448AFF30080BDE80840CFE700000000E6
:100208003C040020340C000880B400AF00BFBD4699
:1002180080BC704780B485B000AF0023FB6000232A
:10022800BB6000237B6000233B602D4B5B6803F0C1
:100238000C03FB60FB68082B11D0FB68082B36D831
:10024800FB68002B03D0FB68042B04D02FE0254B60
:10025800254A1A602FE0234B234A1A602BE0204BD3
:100268005B6803F47013BB601D4B5B6803F4803359
:100278007B60BB689B0C0233BB607B68002B06D19C
:10028800BB681A4A02FB03F3164A136013E0144BC7
:10029800DB6A03F00F0301333B60134A3B68B2FB90
:1002A800F3F3BA6802FB03F30E4A136003E00D4B45
:1002B8000D4A1A6000BF0A4B5B681B0903F00F0365
:1002C8000B4AD35CFB60074B1A68FB6822FA03F3FE
:1002D800044A136000BF1437BD4680BC704700BF96
:1002E800001002400000002000127A0000093D00C2
:1002F800800C0008002301461A46184600F03AB858
:1003080038B5084B084D5B1B9C1007D0043B1D44B7
:10031800013C55F804399847002CF9D1BDE838401C
:1003280000F08ABCA80C0008A40C000870B50D4E9B
:100338000D4D761BB61006D0002455F8043B013449
:100348009847A642F9D1094E094D761B00F06EFC7C
:10035800B61006D0002455F8043B01349847A6424D
:10036800F9D170BD9C0C00089C0C0008A40C000876
:100378009C0C000870B4184C2568D5F848411CB38B
:1003880065681F2D25DC38B9AB1C0135656044F85C
:100398002310002070BC704704EB850C0228CCF8B1
:1003A8008820D4F888614FF0010202FA05F246EA83
:1003B8000206C4F88861CCF80831E5D1D4F88C314C
:1003C8001343C4F88C31DFE705F5A674C5F8484136
:1003D800D6E74FF0FF30DDE7980C000880B400AF97
:1003E8000A4B5B69094A43F400235361084B1B68B5
:1003F800074A43F080631360054BDB68044A43F007
:100408008063D36000BFBD4680BC704700100240C7
:100418000008004880B584B000AF00F031FA00F061
:1004280049F8FFF7DBFF4FF4165000F0C3FA1C48F9
:1004380000F056FB00F068F81A4800F051FB00F095
:10044800B1F9194800F04CFB4FF4784000F0D2F9AC
:100458003B4600221A605A609A600023FB7300F042
:1004680093FB124B1A683B68D31AB3F57A7FF6D31D
:100478000E4B1B683B60FB7B83F00103FB73FB7B2C
:10048800002B06D00A4B5B69094A23F400535361D9
:10049800E5E7074B5B69064A43F400535361DEE71F
:1004A8004C0C0008580C0008640C00085404002088
:1004B8000008004880B400AF124B1B68114A43F48F
:1004C8008033136000BF0F4B1B6803F40033002B0D
:1004D800F9D00C4B5B680B4A23F003035360094BBC
:1004E8005B68084A43F00103536000BF054B5B6833
:1004F80003F00C03042BF9D100BF00BFBD4680BC3C
:10050800704700BF0010024080B400AF354B5B69F4
:10051800344A43F400335361324B9B69314A43F404
:10052800805393614FF090431B684FF0904223F43F
:100538007F4313604FF090431B684FF0904243F4A1
:100548002A4313604FF090435B684FF0904223F0CA
:10055800F00353604FF090439B684FF0904243F490
:100568002A4393604FF090431B6A4FF090429BB22E
:1005780013624FF090431B6A4FF0904243F0AA4336
:1005880043F4AA031362184B00221A60164B002288
:100598005A60154B1B68144A43F004031360124B4E
:1005A8001B68114A43F4007313600F4B1B680E4A13
:1005B80043F4807313600C4B1B680B4A43F0100321
:1005C8001360094B5B68084A43F4E0635360064BC9
:1005D8001B68054A43F04003136000BFBD4680BC5A
:1005E800704700BF001002400030014080B483B063
:1005F80000AF0346FB7100BF0F4B9B6803F002037B
:10060800002BF9D00C4AFB79D36000BF0A4B9B68DA
:1006180003F00103002BF9D000BF074B9B6803F0E0
:100628008003002BF9D1044BDB68DBB218460C378A
:10063800BD4680BC704700BF0030014080B400AFA9
:10064800184B5B69174A43F4003353614FF09043EA
:100658001B684FF0904223F0150313604FF090434E
:100668001B684FF0904243F0150313604FF090431E
:100678009B684FF0904223F01A0393604FF0904329
:100688009B684FF0904243F01A0393604FF09043F9
:100698009B694FF0904243F00103936100BFBD4650
:1006A80080BC70470010024080B400AF4FF0904308
:1006B8009B694FF0904243F00203936100BFBD462F
:1006C80080BC704780B400AF4FF090439B694FF0F7
:1006D800904243F40033936100BFBD4680BC70472D
:1006E80080B400AF4FF090439B694FF0904243F0C5
:1006F8000403936100BFBD4680BC704780B400AF5F
:100708004FF090439B694FF0904243F480239361EC
:1007180000BFBD4680BC704780B500AF4FF0904326
:100728009B694FF0904243F0010393610A2000F067
:10073800D1F84FF090439B694FF0904243F48033D7
:1007480093610A2000F0C6F84FF090439B694FF080
:10075800904243F00103936100BF80BD80B582B031
:1007680000AF0346FB71FFF7ADFFFB791846FFF7B3
:100778003DFF052000F0C6F800BF0837BD4680BD24
:1007880080B582B000AF0346FB71FFF78DFFFB79A0
:100798001846FFF72BFF052000F0B4F800BF083714
:1007A800BD4680BD80B500AFFFF748FFFFF7B4FF37
:1007B8000A2000F08FF8FFF7A1FF0A2000F08AF85E
:1007C8001120FFF7CBFF0A2000F084F83A20FFF74A
:1007D800C5FF0520FFF7D4FF3620FFF7BFFF142021
:1007E800FFF7CEFF2920FFF7B9FF642000F072F869
:1007F80000BF80BD80B584B000AF0346FB80FFF723
:100808007DFF2A20FFF7AAFF0020FFF7B9FF00208D
:10081800FFF7B6FF0020FFF7B3FF7F20FFF7B0FF19
:100828002B20FFF79BFF0020FFF7AAFF0020FFF710
:10083800A7FF0020FFF7A4FF9F20FFF7A1FF2C20B0
:10084800FFF78CFFFFF730FF0023FB600EE0FB880B
:100858001B0A9BB2DBB21846FFF7C8FEFB88DBB267
:100868001846FFF7C3FEFB680133FB60FB68B3F56E
:10087800A04FECD3FFF734FF00BF1037BD4680BD53
:1008880080B500AFFFF7C6FC084B1B68084AA2FBFF
:1008980003239B09074A013B5360064B00229A60D9
:1008A800044B07221A6000BF80BD00BF0000002073
:1008B800D34D621010E000E080B400AF044B1B6819
:1008C8000133034A136000BFBD4680BC704700BFB8
:1008D8005404002080B485B000AF7860084B1B68D2
:1008E800FB6000BF064B1A68FB68D31A7A689A4205
:1008F800F8D800BF00BF1437BD4680BC704700BFA2
:100908005404002080B483B000AF786000E000BFDA
:100918007B685A1E7A60002BF9D100BF00BF0C37E4
:10092800BD4680BC7047000080B483B000AF03466A
:10093800FB7197F90730002B0BDBFB7903F01F02E3
:10094800064997F907305B09012000FA02F241F8DD
:10095800232000BF0C37BD4680BC704700E100E093
:1009680080B483B000AF03463960FB7197F9073054
:10097800002B0ADB3B68DAB20C4997F90730120101
:10098800D2B20B4483F800230AE03B68DAB2084984
:10099800FB7903F00F03043B1201D2B20B441A7621
:1009A80000BF0C37BD4680BC704700BF00E100E0C7
:1009B80000ED00E080B582B000AF0346FB80394B04
:1009C8005B69384A43F400335361364B9B69354AB7
:1009D80043F4804393614FF090431B684FF090427B
:1009E80023F4402313604FF090431B684FF090426C
:1009F80043F4002313604FF090431B684FF090427C
:100A080023F4401313604FF090431B684FF090425B
:100A180043F4001313604FF090435B684FF090422B
:100A280023F4C06353604FF090439B684FF09042AB
:100A380043F4201393604FF090435B6A4FF0904269
:100A480023F47F6353624FF090435B6A4FF0904208
:100A580043F4EE635362144B00221A60124B0022D7
:100A68005A60114B00229A60FB88104A92FBF3F2FD
:100A78000D4BDA600C4B1B680B4A43F020031360E4
:100A8800094B1B68084A43F00D0313600221252017
:100A9800FFF766FF2520FFF747FF00BF0837BD4671
:100AA80080BD00BF001002400038014000127A00EB
:100AB80080B483B000AF0346FB7100BF074BDB690E
:100AC80003F08003002BF9D0044BFA7992B21A850F
:100AD80000BF0C37BD4680BC704700BF00380140DE
:100AE80080B582B000AF786006E07B685A1C7A60F7
:100AF8001B781846FFF7DCFF7B681B78002BF4D1C6
:100B080000BF00BF0837BD4680BD000080B483B079
:100B180000AF194BDB6903F02003002B27D0164BDD
:100B28009B8C9BB2FB71154B01221A70FB790D2B24
:100B380004D0134B1B78DBB21E2B0AD9104B1B7841
:100B4800DBB21A460F4B002199540D4B00221A7044
:100B58000DE00B4B1B78DBB219460A4AFB7953545C
:100B6800074B1B78DBB20133DAB2054B1A7000BFB2
:100B78000C37BD4680BC704700380140790400201E
:100B8800780400205804002080B500AF094B1B787A
:100B9800DBB2002B0BD00848FFF7A2FF0748FFF78E
:100BA8009FFF0748FFF79CFF024B00221A7000BF07
:100BB80080BD00BF79040020740C00085804002090
:100BC8007C0C0008DFF834D0FFF71EFB0C480D49F9
:100BD8000D4A002302E0D458C4500433C4188C4290
:100BE800F9D30A4A0A4C002301E013600432A242F6
:100BF800FBD3FFF79BFBFFF70DFCFEE7008000200F
:100C08000000002038040020A80C00083804002048
:100C18007C040020FEE70000024B13B10248FFF7F6
:100C280069BB70470000000009030008F8B500BF61
:100C3800F8BC08BC9E467047F8B500BFF8BC08BCB5
:040C48009E4670470D
:100C4C00555341525420454E200A0D005350492013
:100C5C00494E4954200A0D00535437373335204937
:100C6C004E4954200A0D00004745543A200000001C
:100C7C000D0A000000000000000000000102030447
:100C8C000607080900000000010203041000002000
:080C9C00210C0008F101000821
:040CA400C90100087A
:100CA80000127A0000000000100000200000000080
:100CB80000000000FC02002064030020CC03002098
:100CC800000000000000000000000000000000001C
:100CD800000000000000000000000000000000000C
:100CE80000000000000000000000000000000000FC
:100CF80000000000000000000000000000000000EC
:100D080000000000000000000000000000000000DB
:100D180000000000000000000000000000000000CB
:100D280000000000000000000000000000000000BB
:100D380000000000000000000000000000000000AB
:100D4800000000000000000000000000000000009B
:100D5800000000000000000001000000000000008A
:100D68000E33CDAB34126DE6ECDE05000B0000004F
:100D7800000000000000000000000000000000006B
:100D8800000000000000000000000000000000005B
:100D9800000000000000000000000000000000004B
:100DA800000000000000000000000000000000003B
:0400000508000BCD17
:00000001FF
