:020000040800F2
:10000000008000208D030008DD030008DD030008E8
:10001000DD030008DD030008DD0300080000000028
:10002000000000000000000000000000DD030008E8
:10003000DD03000800000000DD030008DD03000808
:10004000DD030008DD030008DD030008DD03000810
:10005000DD030008DD030008DD030008DD03000800
:10006000DD030008DD030008DD030008DD030008F0
:10007000DD030008DD030008DD030008DD030008E0
:10008000DD030008DD030008DD030008DD030008D0
:10009000DD030008DD030008DD030008DD030008C0
:1000A000DD030008DD030008DD030008DD030008B0
:1000B000DD030008DD030008DD030008DD030008A0
:1000C000DD030008DD030008DD030008DD03000890
:1000D000DD030008DD030008DD030008DD03000880
:1000E000DD030008DD030008DD030008DD03000870
:1000F000DD030008DD030008DD030008DD03000860
:10010000000000000000000000000000DD03000807
:10011000DD030008DD030008DD030008DD0300083F
:10012000DD030008DD030008DD030008DD0300082F
:10013000DD030008DD0300080000000000000000EF
:10014000DD030008DD030008DD03000800000000F7
:10015000000000000000000000000000000000009F
:100160000000000000000000DD030008DD030008BF
:10017000DD03000800000000000000000000000097
:0801800000000000DD0300088F
:1001880080B400AF00BFBD4680BC704780B485B066
:1001980000AF0023FB600023BB6000237B600023CB
:1001A8003B602D4B5B6803F00C03FB60FB68082B7E
:1001B80011D0FB68082B36D8FB68002B03D0FB68EE
:1001C800042B04D02FE0254B254A1A602FE0234B3F
:1001D800234A1A602BE0204B5B6803F47013BB6062
:1001E8001D4B5B6803F480337B60BB689B0C023358
:1001F800BB607B68002B06D1BB681A4A02FB03F37D
:10020800164A136013E0144BDB6A03F00F03013343
:100218003B60134A3B68B2FBF3F3BA6802FB03F393
:100228000E4A136003E00D4B0D4A1A6000BF0A4BDB
:100238005B681B0903F00F030B4AD35CFB60074B99
:100248001A68FB6822FA03F3044A136000BF1437E4
:10025800BD4680BC704700BF00100240000000206F
:1002680000127A0000093D00180500080348044BF5
:10027800834202D0034B03B118477047080000209F
:1002880008000020000000000548064B1B1AD90F83
:1002980001EBA301491002D0034B03B11847704783
:1002A80008000020080000200000000010B5064CDF
:1002B800237843B9FFF7DAFF044B13B10448AFF3CF
:1002C80000800123237010BD0800002000000000FA
:1002D8000005000808B5054B1BB105490548AFF3F3
:1002E8000080BDE80840FFF7CFBF00BF0000000056
:1002F8000C0000200005000880B400AF0A4B5B69C1
:10030800094A43F400235361084B1B68074A43F02A
:1003180080631360054BDB68044A43F08063D36055
:1003280000BFBD4680BC704700100240000800486E
:1003380080B582B000AFFFF7DFFF104B5B690F4A53
:1003480043F40053536100237B6002E07B68013370
:100358007B607B680A4A9342F8D9084B5B69074A75
:1003680023F40053536100233B6002E03B680133F0
:100378003B603B68024A9342F8D9DEE70008004830
:100388003F420F00DFF834D0FFF7FAFE0C480D4962
:100398000D4A002302E0D458C4500433C4188C42D8
:1003A800F9D30A4A0A4C002301E013600432A2423E
:1003B800FBD300F011F8FFF7BBFFFEE70080002039
:1003C80000000020080000203C050008080000206C
:1003D800BC010020FEE7000070B50F4B0F4DAB428B
:1003E800A3EB050607D0B610002455F8043B0134EA
:1003F8009847A642F9D800F07FF8094D094B5E1BD3
:10040800AB424FEAA60606D0002455F8043B013457
:100418009847A642F9D870BD300500083005000895
:100428003005000838050008704700BF704700BF56
:10043800024B13B1024800F005B8704700000000F5
:1004480059040008002301461A46184600F014B85B
:1004580038B5074D074C2C1BA41005D0013C55F8A6
:10046800043D9847002CF9D1BDE8384000F04AB85F
:100478003C050008380500082DE9F8431B4D0646E1
:10048800286898460F469146FFF7CEFF184B1C6820
:100498001CB3286865681F2D22DC4EB96B1C023519
:1004A800636044F82570FFF7C1FF0020BDE8F883BA
:1004B80004EB85010123C1F88890D4F88821AB406A
:1004C8001A43022EC4F88821C1F80881E6D1D4F86D
:1004D8008C211A43C4F88C21E0E7064C1C60D8E74D
:1004E800FFF7A4FF4FF0FF30E0E700BF0400002053
:1004F800280000202C000020F8B500BFF8BC08BC7C
:100508009E467047F8B500BFF8BC08BC9E467047C9
:1005180000000000000000000102030406070809AB
:080528000000000001020304C1
:0805300039040008DD02000897
:04053800B502000800
:08053C0000127A0024000020E7
:040000050800038D5F
:00000001FF
