:020000040800F2
:100000000080002075100008C5100008C510000809
:10001000C5100008C5100008C51000080000000049
:10002000000000000000000000000000C5100008F3
:10003000C510000800000000C51000088D0D000864
:10004000C5100008C5100008C5100008C51000083C
:10005000C5100008C5100008C5100008C51000082C
:10006000C5100008C5100008C5100008C51000081C
:10007000C5100008C5100008C5100008C51000080C
:10008000C5100008C5100008C5100008C5100008FC
:10009000C5100008C5100008C5100008C5100008EC
:1000A000C5100008C5100008C5100008C5100008DC
:1000B000C5100008C5100008C5100008C5100008CC
:1000C000C5100008C5100008C5100008C5100008BC
:1000D000C5100008BD0F0008C5100008C5100008B5
:1000E000C5100008C5100008C5100008C51000089C
:1000F000C5100008C5100008C5100008C51000088C
:10010000000000000000000000000000C510000812
:10011000C5100008C5100008C5100008C51000086B
:10012000C5100008C5100008C5100008C51000085B
:10013000C5100008C5100008000000000000000005
:10014000C5100008C5100008C51000080000000018
:10015000000000000000000000000000000000009F
:100160000000000000000000C5100008C5100008D5
:10017000C5100008000000000000000000000000A2
:0801800000000000C51000089A
:100188000348044B834202D0034B03B1184770471E
:100198003804002038040020000000000548064903
:1001A8000B1AD90F01EBA301491002D0034B03B17D
:1001B8001847704738040020380400200000000069
:1001C80010B5064C237843B9FFF7DAFF044B13B197
:1001D8000448AFF300800123237010BD38040020C9
:1001E80000000000DC10000808B5044B1BB10449EE
:1001F8000448AFF30080BDE80840CFE700000000E6
:100208003C040020DC10000880B400AF00BFBD46ED
:1002180080BC704780B485B000AF0023FB6000232A
:10022800BB6000237B6000233B602D4B5B6803F0C1
:100238000C03FB60FB68082B11D0FB68082B36D831
:10024800FB68002B03D0FB68042B04D02FE0254B60
:10025800254A1A602FE0234B234A1A602BE0204BD3
:100268005B6803F47013BB601D4B5B6803F4803359
:100278007B60BB689B0C0233BB607B68002B06D19C
:10028800BB681A4A02FB03F3164A136013E0144BC7
:10029800DB6A03F00F0301333B60134A3B68B2FB90
:1002A800F3F3BA6802FB03F30E4A136003E00D4B45
:1002B8000D4A1A6000BF0A4B5B681B0903F00F0365
:1002C8000B4AD35CFB60074B1A68FB6822FA03F3FE
:1002D800044A136000BF1437BD4680BC704700BF96
:1002E800001002400000002000127A0000093D00C2
:1002F80028120008002301461A46184600F0D4B810
:1003080038B5084B084D5B1B9C1007D0043B1D44B7
:10031800013C55F804399847002CF9D1BDE838401C
:1003280000F0DEBE501600084C16000870B50D4EE1
:100338000D4D761BB61006D0002455F8043B013449
:100348009847A642F9D1094E094D761B00F0C2FE26
:10035800B61006D0002455F8043B01349847A6424D
:10036800F9D170BD44160008441600084C16000860
:1003780044160008844641EA000313F003036DD1D4
:10038800403A41D351F8043B40F8043B51F8043B50
:1003980040F8043B51F8043B40F8043B51F8043B57
:1003A80040F8043B51F8043B40F8043B51F8043B47
:1003B80040F8043B51F8043B40F8043B51F8043B37
:1003C80040F8043B51F8043B40F8043B51F8043B27
:1003D80040F8043B51F8043B40F8043B51F8043B17
:1003E80040F8043B51F8043B40F8043B51F8043B07
:1003F80040F8043B51F8043B40F8043B51F8043BF7
:1004080040F8043B403ABDD2303211D351F8043B96
:1004180040F8043B51F8043B40F8043B51F8043BD6
:1004280040F8043B51F8043B40F8043B103AEDD245
:100438000C3205D351F8043B40F8043B043AF9D296
:10044800043208D0D2071CBF11F8013B00F8013B69
:1004580001D30B8803806046704700BF082A13D376
:100468008B078DD010F003038AD0C3F10403D21A8E
:10047800DB071CBF11F8013B00F8013B80D331F8C2
:10048800023B20F8023B7BE7043AD9D3013A11F842
:10049800013B00F8013BF9D20B7803704B784370AD
:1004A8008B7883706046704770B4184C2568D5F80F
:1004B80048411CB365681F2D25DC38B9AB1C0135D4
:1004C800656044F82310002070BC704704EB850C6D
:1004D8000228CCF88820D4F888614FF0010202FA8B
:1004E80005F246EA0206C4F88861CCF80831E5D17D
:1004F800D4F88C311343C4F88C31DFE705F5A674C2
:10050800C5F84841D6E74FF0FF30DDE74012000854
:1005180080B400AF104B5B690F4A43F4002353616A
:100528000E4B1B680D4A43F0806313600B4BDB686E
:100538000A4A43F08063D360084B1B68074A43F0BC
:1005480080531360054BDB68044A43F08053D36043
:1005580000BFBD4680BC704700100240000800483C
:1005680090B5C7B002AF00F099F800F0EFFBFFF7C5
:10057800CFFF4FF4165000F071FC424800F004FD24
:1005880000F002F9404800F0FFFC00F03FFA3F4855
:1005980000F0FAFC00230093A02380220021002011
:1005A80000F05CFA07F5807300221A605A609A60BE
:1005B800002387F80F31002387F80E3107F5887379
:1005C800A3F58874324B20461946FE231A46FFF7D6
:1005D800D1FE0023A4F8FE3000F02AFD3A464FF67B
:1005E800FF730521052000F081FB2A4B1A68D7F814
:1005F8000431D31AB3F57A7F1FD3264B1B68C7F88B
:10060800043197F80E3183F0010387F80E3197F81B
:100618000E31002B09D04FF4784300931423142291
:100628008C216C2000F01AFA07E0FF2300931423B2
:1006380014228C216C2000F011FA164B1A68D7F896
:100648000031D31AB3F57A7FC6D3124B1B68C7F8AB
:10065800003197F80F3183F0010387F80F3197F8CD
:100668000F31002B06D00C4B5B690B4A23F4005367
:100678005361B1E7084B5B69074A43F40053536180
:10068800AAE700BFF4100008001100080C110008C8
:100698001C110008540400200008004880B500AF71
:1006A800374B1B68364A23F007031360344B1B682B
:1006B800334A43F004031360324B1B68314A43F456
:1006C8008033136000BF2F4B1B6803F40033002BEB
:1006D800F9D02C4B1B682B4A23F08073136000BFA2
:1006E800284B1B6803F00073002BF9D1254B5B687E
:1006F800244A23F07F735360224B5B68214A43F4FA
:10070800E01353601F4B5B681E4A23F4C0335360E9
:100718001C4B5B681B4A43F480335360194B5B687E
:10072800184A23F4E0635360164B5B68154A43F498
:1007380080635360134B1B68124A43F08073136045
:1007480000BF104B1B6803F00073002BF9D00D4B52
:100758005B680C4A23F0030353600A4B5B68094A41
:1007680043F00203536001E0FFF754FD054B5B685B
:1007780003F00C03082BF7D100BF00BF80BD00BFFA
:10078800002002400010024080B400AF354B5B6986
:10079800344A43F400335361324B9B69314A43F482
:1007A800805393614FF090431B684FF0904223F4BD
:1007B8007F4313604FF090431B684FF0904243F41F
:1007C8002A4313604FF090435B684FF0904223F048
:1007D800F00353604FF090439B684FF0904243F40E
:1007E8002A4393604FF090431B6A4FF090429BB2AC
:1007F80013624FF090431B6A4FF0904243F0AA43B4
:1008080043F4AA031362184B00221A60164B002205
:100818005A60154B1B68144A43F004031360124BCB
:100828001B68114A43F4007313600F4B1B680E4A90
:1008380043F4807313600C4B1B680B4A43F00803A6
:100848001360094B5B68084A43F4E0635360064B46
:100858001B68054A43F04003136000BFBD4680BCD7
:10086800704700BF001002400030014080B483B0E0
:1008780000AF0346FB7100BF0B4B9B6803F00203FC
:10088800002BF9D0094AFB79137000BF064B9B680F
:1008980003F08003002BF9D1044B1B78DBB2184618
:1008A8000C37BD4680BC7047003001400C30014019
:1008B80080B400AF184B5B69174A43F400335361A7
:1008C8004FF090431B684FF0904223F03F031360B2
:1008D8004FF090431B684FF0904243F015031360AC
:1008E8004FF090439B684FF0904223F03F03936092
:1008F8004FF090439B684FF0904243F03F03936062
:100908004FF090439B694FF0904243F0010393618D
:1009180000BFBD4680BC70470010024080B400AFE5
:100928004FF090439B694FF0904243F0020393616C
:1009380000BFBD4680BC704780B400AF4FF0904305
:100948009B694FF0904243F40033936100BFBD466A
:1009580080BC704780B400AF4FF090439B694FF064
:10096800904243F00403936100BFBD4680BC7047CA
:1009780080B400AF4FF090439B694FF0904243F42E
:100988008023936100BFBD4680BC704780B500AF2F
:100998004FF090439B694FF0904243F001039361FD
:1009A8000A2000F0FDF94FF090439B694FF0904208
:1009B80043F4803393610A2000F0F2F94FF090433A
:1009C8009B694FF0904243F00103936100BF80BDE3
:1009D80080B582B000AF0346FB71FFF7ADFFFB792E
:1009E8001846FFF743FF00BF0837BD4680BD80B5F6
:1009F80082B000AF0346FB71FFF790FFFB79184602
:100A0800FFF734FF00BF0837BD4680BD80B500AF93
:100A1800FFF74EFFFFF7BAFF0A2000F0C1F9FFF712
:100A2800A7FF0A2000F0BCF91120FFF7D1FF7820BA
:100A380000F0B6F93A20FFF7CBFF0520FFF7D7FF04
:100A48003620FFF7C5FF1420FFF7D1FF2920FFF755
:100A5800BFFF642000F0A4F900BF80BD90B585B049
:100A680000AF0446084611461A462346FB80034653
:100A7800BB800B467B8013463B80FB887F2B02D8CC
:100A8800BB889F2B01D900237DE07B88002B02D0F7
:100A98003B88002B01D1002375E0FA887B8813443A
:100AA800802B03DDFB88C3F180037B80BA883B88F9
:100AB8001344A02B03DDBB88C3F1A0033B80FFF7E1
:100AC80057FF2A20FFF784FF0020FFF790FFFB88DD
:100AD800DBB21846FFF78BFF0020FFF788FFFB8883
:100AE800DAB27B88DBB21344DBB2013BDBB21846D7
:100AF800FFF77DFF2B20FFF76BFF0020FFF777FF45
:100B0800BB88DBB21846FFF772FF0020FFF76FFFC4
:100B1800BB88DAB23B88DBB21344DBB2013BDBB201
:100B28001846FFF764FF2C20FFF752FFFFF7F6FE89
:100B38000023FB811FE00023BB8111E03B8C1B0AD3
:100B48009BB2DBB21846FFF791FE3B8CDBB218462E
:100B5800FFF78CFEB7F90C309BB201339BB2BB8117
:100B6800B7F90C207B889A42E8DBB7F90E309BB2C4
:100B780001339BB2FB81B7F90E203B889A42DADB3E
:100B8800FFF7E8FE012318461437BD4690BD90B51F
:100B980083B000AF0446084611461A462346FB8038
:100BA8000346BB800B467B8013463B802A20FFF719
:100BB8000FFF0020FFF71BFFFB88DBB21846FFF78B
:100BC80016FF0020FFF713FF3B88DBB21846FFF73C
:100BD8000EFF2B20FFF7FCFE0020FFF708FFBB8865
:100BE800DBB21846FFF703FF0020FFF700FF7B8802
:100BF800DBB21846FFF7FBFE2C20FFF7E9FE00BF2B
:100C08000C37BD4690BD80B582B000AF0346FB806F
:100C18000B46BB8013467B80FB887F2B02D8BB88A2
:100C28009F2B01D9002314E0BB88FA88B988F8887B
:100C3800FFF7ADFFFFF772FE7B881B0A9BB2DBB2A2
:100C48001846FFF713FE7B88DBB21846FFF70EFE47
:100C5800012318460837BD4680BD000090B587B00F
:100C680000AF0446084611461A462346FB80034651
:100C7800BB800B46FB7013463B80FB78DB001A4AAF
:100C88001344FB6000237B6126E07B69FA68134408
:100C98001B78FB7200233B6118E0FA7A80213B69DC
:100CA80041FA03F31340002B0DD03B699AB2FB883D
:100CB800134498B27B699AB2BB8813449BB23A88B2
:100CC8001946FFF7A0FF3B6901333B613B69072BDE
:100CD800E3DD7B6901337B617B69072BD5DD00BFD1
:100CE80000BF1C37BD4690BD4412000880B586B0D1
:100CF80000AFBA601A460346FB810B46BB81134618
:100D0800FB80FFF735FEFB89FB8214E0BB681A788D
:100D1800FB88B989F88AFFF7A1FFFB8A0833FB82B1
:100D2800FB8A782B04D9FB89FB82BB890833BB81FA
:100D3800BB680133BB60BB681B78002BE6D1FFF7AB
:100D480009FE00BF1837BD4680BD000080B500AF62
:100D5800FFF760FA084B1B68084AA2FB03239B09AC
:100D6800074A013B5360064B00229A60044B072256
:100D78001A6000BF80BD00BF00000020D34D621084
:100D880010E000E080B400AF044B1B680133034A55
:100D9800136000BFBD4680BC704700BF54040020EC
:100DA80080B485B000AF7860084B1B68FB6000BF5B
:100DB800064B1A68FB68D31A7A689A42F8D800BFBB
:100DC80000BF1437BD4680BC704700BF54040020E4
:100DD80080B483B000AF0346FB7197F90730002B4E
:100DE8000BDBFB7903F01F02064997F907305B0913
:100DF800012000FA02F241F8232000BF0C37BD465B
:100E080080BC704700E100E080B483B000AF0346C7
:100E18003960FB7197F90730002B0ADB3B68DAB2BF
:100E28000C4997F907301201D2B20B4483F800231A
:100E38000AE03B68DAB20849FB7903F00F03043B88
:100E48001201D2B20B441A7600BF0C37BD4680BCE3
:100E5800704700BF00E100E000ED00E080B582B01F
:100E680000AF0346FB80394B5B69384A43F40033D3
:100E78005361364B9B69354A43F4804393614FF085
:100E880090431B684FF0904223F4402313604FF0C7
:100E980090431B684FF0904243F4002313604FF0D7
:100EA80090431B684FF0904223F4401313604FF0B7
:100EB80090431B684FF0904243F4001313604FF0C7
:100EC80090435B684FF0904223F4C06353604FF047
:100ED80090439B684FF0904243F4201393604FF087
:100EE80090435B6A4FF0904223F47F6353624FF064
:100EF80090435B6A4FF0904243F4EE635362144BA5
:100F080000221A60124B00225A60114B00229A608C
:100F1800FB880F4A0F49B1FBF3F3D3600C4B1B68F6
:100F28000B4A43F020031360094B1B68084A43F03F
:100F38000D03136002212520FFF766FF2520FFF728
:100F480047FF00BF0837BD4680BD00BF0010024004
:100F58000038014000A24A0480B483B000AF0346C1
:100F6800FB7100BF074BDB6903F08003002BF9D04E
:100F7800044BFA7992B21A8500BF0C37BD4680BC83
:100F8800704700BF0038014080B582B000AF78607C
:100F980006E07B685A1C7A601B781846FFF7DCFF6E
:100FA8007B681B78002BF4D100BF00BF0837BD4613
:100FB80080BD000080B483B000AF194BDB6903F03B
:100FC8002003002B27D0164B9B8C9BB2FB71154B33
:100FD80001221A70FB790D2B04D0134B1B78DBB25E
:100FE8001E2B0AD9104B1B78DBB21A460F4B002177
:100FF80099540D4B00221A700DE00B4B1B78DBB295
:1010080019460A4AFB795354074B1B78DBB2013364
:10101800DAB2054B1A7000BF0C37BD4680BC70476A
:10102800003801407904002078040020580400208A
:1010380080B500AF094B1B78DBB2002B0BD00848FA
:10104800FFF7A2FF0748FFF79FFF0748FFF79CFF3E
:10105800024B00221A7000BF80BD00BF7904002037
:101068001C1200085804002024120008DFF834D0AD
:10107800FFF7CAF80C480D490D4A002302E0D4587E
:10108800C4500433C4188C42F9D30A4A0A4C0023CA
:1010980001E013600432A242FBD3FFF747F9FFF7E0
:1010A8005FFAFEE7008000200000002038040020DE
:1010B80050160008380400207C040020FEE70000D9
:1010C800024B13B10248FFF715B970470000000042
:1010D80009030008F8B500BFF8BC08BC9E46704775
:0C10E800F8B500BFF8BC08BC9E4670477D
:1010F400555341525420454E200A0D005350492067
:10110400494E4954200A0D0053543737333520498A
:101114004E4954200A0D00004C6F72656D204970D1
:1011240073756D2069732073696D706C79206475B3
:101134006D6D792074657874206F662074686520FD
:101144007072696E74696E6720616E642074797060
:101154006573657474696E6720696E6475737472FF
:10116400792E20204C6F72656D20497073756D2047
:10117400686173206265656E2074686520696E64B9
:101184007573747279277320207374616E6461724D
:10119400642064756D6D7920746578742065766556
:1011A400722073696E636520746865203135303050
:1011B400732C20207768656E20616E20756E6B6ECF
:1011C4006F776E207072696E74657220746F6F6BC6
:1011D40020612067616C6C6579206F6620207479CA
:1011E400706520616E6420736372616D626C656406
:1011F40020697420746F206D616B6520612074799F
:1012040070652073706563696D656E20626F6F6BC6
:101214002E202929000000004745543A20000000F0
:101224000D0A000000000000000000000102030499
:101234000607080900000000010203041000002052
:10124400000000000000000000000000000000009A
:10125400000000000000000000000000000000008A
:10126400000000000000000000000000000000007A
:10127400000000000000000000000000000000006A
:10128400000000000000000000000000000000005A
:10129400000000000000000000000000000000004A
:1012A400000000000000000000000000000000003A
:1012B400000000000000000000000000000000002A
:1012C400000000000000000000000000000000001A
:1012D400000000000000000000000000000000000A
:1012E40000000000000000000000000000000000FA
:1012F40000000000000000000000000000000000EA
:1013040000000000000000000000000000000000D9
:1013140000000000000000000000000000000000C9
:1013240000000000000000000000000000000000B9
:1013340000000000000000000000000000000000A9
:101344000000000000000000001010101000100049
:10135400002828000000000000287C287C280000C9
:1013640000103C5038147810006064081026060001
:1013740000304830544834000010100000000000D1
:101384000008102020100800002010080810200079
:1013940000105438385410000010107C1010000055
:1013A40000000000001010200000007C000000007D
:1013B400000000000010100000040810204000008D
:1013C4000038444C54644438001030501010107CE1
:1013D400003844040810207C0038440418044438BD
:1013E40000081828487C0808007C40780404443825
:1013F4000038444078444438007C040810202020FD
:101404000038444438444438003844443C044438A4
:101414000000101000101000000010100010102028
:10142400000810201008000000007C007C00000070
:101434000020100810200000003844040810001098
:101444000038445C545C4038003844447C444400D4
:101454000078444478444478003844404040443858
:101464000078444444444478007C40407840407CC4
:10147400007C404078404040003844405C4444385C
:10148400004444447C444444003810101010103884
:10149400001C08080848483000444850605048443C
:1014A400004040404040407C00446C545444444418
:1014B400004464544C444444003844444444443850
:1014C400007844447840404000384444445448340C
:1014D4000078444478504844003844403804443840
:1014E400007C10101010101000444444444444384C
:1014F40000444444444428100044445454546C4428
:101504000044442810284444004444442810101043
:10151400007C04081020407C003820202020203843
:1015240000402010080400000038080808080838A3
:101534000010284400000000000000000000007CAF
:101544000020100800000000000038043C44443C23
:1015540000404078444444780000384440404438D3
:101564000004043C4444443C000038447C40443877
:10157400001820782020202000003C44443C0438FB
:1015840000404078444444440010003010101038A7
:10159400000800180808483000404850605048448B
:1015A4000030101010101038000068545454545473
:1015B40000007844444444440000384444444438DB
:1015C400000078444478404000003C44443C040417
:1015D40000005824202020200000384430084438DB
:1015E40000202078202024180000444444444C3433
:1015F40000004444444428100000445454545428E3
:10160400000044281028444400004444443C043866
:1016140000007C081020407C001820204020201866
:1016240000101010101010100030080804080830C2
:1016340000304848000000000000000000000000E6
:08164400C9100008F1010008C3
:04164C00C9010008C8
:1016500000127A00000000001000002000000000CE
:1016600000000000FC02002064030020CC030020E6
:10167000000000000000000000000000000000006A
:10168000000000000000000000000000000000005A
:10169000000000000000000000000000000000004A
:1016A000000000000000000000000000000000003A
:1016B000000000000000000000000000000000002A
:1016C000000000000000000000000000000000001A
:1016D000000000000000000000000000000000000A
:1016E00000000000000000000000000000000000FA
:1016F00000000000000000000000000000000000EA
:1017000000000000000000000100000000000000D8
:101710000E33CDAB34126DE6ECDE05000B0000009D
:1017200000000000000000000000000000000000B9
:1017300000000000000000000000000000000000A9
:101740000000000000000000000000000000000099
:101750000000000000000000000000000000000089
:04000005080010756A
:00000001FF
