:020000040800F2
:1000000000800020153500086535000865350008BA
:1000100065350008653500086535000800000000FA
:10002000000000000000000000000000653500082E
:100030006535000800000000653500083133000810
:100040006535000865350008653500086535000828
:100050006535000865350008BD29000865350008CC
:100060006535000865350008653500086535000808
:1000700065350008653500086535000865350008F8
:1000800065350008653500086535000865350008E8
:1000900065350008653500086535000865350008D8
:1000A00065350008653500086535000865350008C8
:1000B00065350008653500086535000865350008B8
:1000C00065350008653500086535000865350008A8
:1000D000653500081D3400086535000865350008E1
:1000E0006535000865350008653500086535000888
:1000F0006535000865350008653500086535000878
:10010000000000000000000000000000653500084D
:100110006535000865350008653500086535000857
:100120006535000865350008653500086535000847
:10013000653500086535000800000000000000007B
:1001400065350008653500086535000800000000C9
:10015000000000000000000000000000000000009F
:10016000000000000000000065350008653500084B
:1001700065350008000000000000000000000000DD
:080180000000000065350008D5
:100190000348044B834202D0034B03B11847704716
:1001A0007000002070000020000000000548064993
:1001B0000B1AD90F01EBA301491002D0034B03B175
:1001C00018477047700000207000002000000000F9
:1001D00010B5064C237843B9FFF7DAFF044B13B18F
:1001E0000448AFF300800123237010BD700000208D
:1001F000000000006835000808B5044B1BB1044935
:100200000448AFF30080BDE80840CFE700000000DD
:10021000740000206835000880B400AF00BFBD4600
:1002200080BC704780B485B000AF0023FB60002322
:10023000BB6000237B6000233B602D4B5B6803F0B9
:100240000C03FB60FB68082B11D0FB68082B36D829
:10025000FB68002B03D0FB68042B04D02FE0254B58
:10026000254A1A602FE0234B234A1A602BE0204BCB
:100270005B6803F47013BB601D4B5B6803F4803351
:100280007B60BB689B0C0233BB607B68002B06D194
:10029000BB681A4A02FB03F3164A136013E0144BBF
:1002A000DB6A03F00F0301333B60134A3B68B2FB88
:1002B000F3F3BA6802FB03F30E4A136003E00D4B3D
:1002C0000D4A1A6000BF0A4B5B681B0903F00F035D
:1002D0000B4AD35CFB60074B1A68FB6822FA03F3F6
:1002E000044A136000BF1437BD4680BC704700BF8E
:1002F000001002400000002000127A0000093D00BA
:10030000803500080A22002100F074BA0A23002276
:1003100000F050BA70B50D4E0D4D761BB61006D0DC
:10032000002455F8043B01349847A642F9D1094E00
:10033000094D761B03F018F9B61006D0002455F8C5
:10034000043B01349847A642F9D170BDC44500086A
:10035000C4450008C8450008C4450008830730B5F7
:1003600048D0541E002A3FD0CAB2034601E0013CE7
:100370003AD303F8012B9D07F9D1032C2DD9CDB227
:1003800045EA05250F2C45EA054536D9A4F11002AA
:1003900022F00F0C03F1200EE6444FEA121C03F189
:1003A000100242E9045542E9025510327245F8D173
:1003B0000CF1010214F00C0F03EB021204F00F0C0D
:1003C00013D0ACF1040323F003030433134442F8C5
:1003D000045B9342FBD10CF003042CB1CAB21C4461
:1003E00003F8012B9C42FBD130BD64461346002C20
:1003F000F4D1F9E703461446BFE71A46A446E0E7FE
:100400000CB410B59CB01EAB6FF00044CDE90614DF
:100410000291084953F8042B059102A90193049411
:1004200000F0F0FB029B00221A701CB0BDE81040E7
:1004300002B070470802FFFF0EB410B59DB06FF018
:1004400000411FABCDE906010491094953F8042B83
:100450000290084C0868019302A9059400F0D2FBB1
:10046000029B00221A701DB0BDE8104003B0704717
:10047000040000200802FFFF80EA0102844612F017
:10048000030F4FD111F0030F32D14DF8044D11F08D
:10049000040F51F8043B0BD0A3F101329A4312F040
:1004A000803F04BF4CF8043B51F8043B16D100BF19
:1004B00051F8044BA3F101329A4312F0803FA4F1AA
:1004C00001320BD14CF8043BA24312F0803F04BF31
:1004D00051F8043B4CF8044BEAD023460CF8013B9E
:1004E00013F0FF0F4FEA3323F8D15DF8044B704748
:1004F00011F0010F06D011F8012B0CF8012B002A86
:1005000008BF704711F0020FBFD031F8022B12F074
:10051000FF0F16BF2CF8022B8CF8002012F47F4F2F
:10052000B3D1704711F8012B0CF8012B002AF9D137
:10053000704700BFA2B330B540EA0104A407844667
:100540000B462AD09CF800000C7884422FD1012A57
:100550000DD0E64660B11EF8010F11F8014F6FEAA9
:100560000E03A042134422D11CEB0303F2D100205E
:1005700030BD0468194653F8045BA4F1013EAC4257
:1005800084462EEA040E00F104000BD1043A84469E
:100590001946ECD01EF0803FE9D1032AE9D8D1E713
:1005A000104670479CF800000C78A042D1D0001B88
:1005B00030BD00BF194B70B51D68AA6D04460E46CC
:1005C00032B1314620460123BDE8704000F02CB81E
:1005D000502000F071F90246A865D0B100230377DE
:1005E000C0E90033C0E90233C0E90433C0E90A338B
:1005F000C0E90C33C0E90E33C0E91033C0E912334F
:1006000083614362314620460123BDE8704000F01B
:100610000BB8034B0348572100F000F904000020F9
:10062000FC44000814450008F0B4074610B33E46E9
:100630008C4616F8010B01E0A04216D01CF8014BC5
:10064000002CF9D1D8B116F8015B0C4601E0002B63
:10065000F9D014F8013B9D42F9D14DB1002306F8C1
:10066000013C16603846F0BC70475BB13746DEE7A8
:100670002E46F6E71768002FD9D13846F3E7F0BCCD
:1006800010607047166038463B70ECE70123FFF7B7
:10069000CBBF00BF2DE9F04F814645488E467546D9
:1006A0001EF801CB10F80C4014F00804F7D1BCF18F
:1006B0002D0FE34654D0BCF12B0F08BF9EF800B0BD
:1006C0006FF0004808BF05F1020E1BB1102B4FD090
:1006D0001F4604E0BBF1300F55D00A231F4600250A
:1006E000B8FBF7F6284607FB168A07E0864215D3C3
:1006F00029D007FB00C001251EF801BBABF1300C6F
:10070000BCF1090F06D9ABF1410CBCF1190F08D8A7
:10071000ABF1370C63450DDD002DE7DA4FF0FF3507
:10072000EAE7ABF1610CBCF1190F03D8ABF1570C40
:100730006345F1DC002D0BDB04B140420AB195BBEF
:100740001160BDE8F08FE245D3DA4FF0FF35D3E713
:100750002223C9F800301AB30EF1FF314046EFE70B
:100760009EF800B04FF0004805F1020E0124ACE7FE
:10077000BBF1300FACD19EF8000000F0DF0058282C
:1007800007D01F46ABE79EF8003003F0DF03582B7D
:100790000BD110279EF801B03B460EF1020E9EE7EA
:1007A0004046BDE8F08F8046D6E708231F4696E70F
:1007B0009D350008012B02D0242B00D86AE710B524
:1007C00000F052F816230360002010BD012A08D063
:1007D000242A134605D8064A844610680A4661460C
:1007E00058E710B500F040F816230360002010BD54
:1007F00004000020012A08D0242A134605D8064AFE
:10080000844610680A46614644E710B500F02CF8AB
:1008100016230360002010BD0400002000B50B4C1F
:1008200025681446EE681A4685B003460D464CB15D
:1008300007490095CDE901143046064900F028F833
:1008400000F068FF04490C46F3E700BF04000020F5
:1008500048450008584500085445000808B51346A7
:100860000022FFF7DBFF00BF014B1868704700BF95
:10087000040000200CB400B583B004AB53F8042B83
:10088000019300F013FB03B05DF804EB02B0704776
:100890000EB410B583B005AB064C53F8042B01938E
:1008A0000146206800F002FB03B0BDE8104003B031
:1008B000704700BF04000020024B0146186800F09A
:1008C00069B800BF04000020024B0146186800F020
:1008D00003B800BF04000020002951D038B551F8FA
:1008E000043C0C1F002BB8BFE418054601F0CEFCF9
:1008F000274A13682BB1A3420CD9216860188342A0
:100900002CD0636028461460BDE8384001F0C0BCBC
:10091000A3420FD81A465B68002BF9D11168501812
:10092000844217D02DD3636054602846BDE8384018
:1009300001F0AEBC11685018A04215D021D8216832
:1009400060188342EFD118685B680144C4E9001362
:100950005460EAE7236819441160E6E718685B68A9
:100960000144C4E90013CDE72068014450188342D4
:100970001160DAD1D3E900030144C2E90013D4E7DE
:1009800070470C232B602846BDE8384001F080BC3E
:100990008C000020F8B5CD1C25F0030508350C2D82
:1009A00038BF0C25002D064623DBA94221D8254F50
:1009B00001F06CFC3A6822B3144603E063682246F7
:1009C000FBB11C4623685B1BF8D40B2B15D863685E
:1009D00094420CBF3B605360304601F059FC04F177
:1009E0000B00231D20F00700C21A01D01B1AA350D0
:1009F000F8BD0C2333600020F8BD23601C44256043
:100A0000EAE77968C9B12946304600F08BFD431CFE
:100A10000CD0C41C24F00304A04205D0211A304697
:100A200000F080FD013001D02560D5E70C23304671
:100A3000336001F02DFC0020F8BD304600F072FD5F
:100A40007860E0E78C0000202DE9F0478F689F4236
:100A50000C461D46164638D88246888910F4906F99
:100A60000ED108683D462A46314601F093FBA26844
:100A70002368D21B2B44A26023600020BDE8F087CE
:100A80004B69096903EB4308236808EBD878A3EBAB
:100A900001096B1C4FEA68084B444345424684BF3A
:100AA00098464246430513D511465046FFF772FF5C
:100AB000074608B321694A4601F0D2FAA38923F414
:100AC000906343F08003A38107E008681F46CAE7EC
:100AD000504601F0DFFB074650B107EB0900A8EBD9
:100AE00009032761C4F81480A36020602F46BAE789
:100AF00021695046FFF7F0FE0C23CAF80030A389A5
:100B000043F040034FF0FF30A381B7E72DE9F04FEA
:100B1000936883B09146002B6DD017688D6880462E
:100B20000C460868083743E0A38913F4906F2ED071
:100B3000D4E90415A0EB010A05EB450505EBD575D5
:100B40000AEB06006D100130A8422A4684BF054614
:100B50002A465B0536D511464046FFF71BFF0028A5
:100B60003AD052462169019001F07AFAA289019B9C
:100B700022F4906242F08002A281A5EB0A0203EB0C
:100B80000A006561A260236120603546B24659467D
:100B9000524601F0FFFAD9F80830A16820684D1BD1
:100BA00050449E1BA5602060C9F808601EB308373A
:100BB00057E902B6002EFAD0B542AA46B4D9354656
:100BC000B246E4E7404601F065FB03460028D4D175
:100BD00021694046FFF780FE0C23C8F80030A38946
:100BE000002243F040034FF0FF30A381C9E9012206
:100BF00003B0BDE8F08F0020C9F8040003B0BDE8E1
:100C0000F08F00BF2DE9F04F1C468B891D069DB06B
:100C100088468146924603D50B69002B00F0EF8091
:100C20000023099320238DF8293030238DF82A30B2
:100C30009AF800307B4D03940126002B72D0544665
:100C400003E014F8013F002B76D0252BF9D1B4EB4B
:100C50000A0B74D12278002A64D000234FF0FF32AF
:100C6000CDE90523049307938DF853301A9301348B
:100C700004E0049A06FA03F313430493A246052200
:100C800014F8011B284601F09BF9431B0028F0D102
:100C9000049BD80644BF20228DF8532019079AF8E8
:100CA000001044BF2B228DF853202A2954D1039AD7
:100CB00011680432002903927CDB07919AF8011035
:100CC0000AF1010A2E2959D0574C0322204601F07F
:100CD00077F940B1049B001B402404FA00F0034361
:100CE00004930AF1010A1AF8011B50488DF82810E4
:100CF000062201F065F9002862D04D4B002B52D03E
:100D000003AA00924B4B424604A94846AFF3008029
:100D100007467A1C06D0099B3B4409939AF8003099
:100D2000002B8CD1B8F80C305B0654BF09984FF0FB
:100D3000FF301DB0BDE8F08FB4EB0A0BF2D05B467C
:100D4000524641464846FFF77FFE0130EAD0099BF4
:100D500022785B4409937EE7A1F13002092AB1D8D9
:100D6000079B1AF8011F03EB830302EB4303A1F176
:100D70003002092AF5D92E290793A5D19AF8011036
:100D80002A2927D1039B9AF802101A680592043386
:100D9000002A0AF102000393B8BF4FF0FF338246E6
:100DA000B8BF059390E7039B073323F0070308338D
:100DB0000393B0E7494243F00203079104937DE7B0
:100DC00003AA00921B4B424604A9484600F052FA7F
:100DD00007469EE7A1F130020023092A05930AF194
:100DE000010A3FF671AF1AF8011F03EB830302EB10
:100DF0004303A1F13002092AF5D9059364E74021A4
:100E0000FFF7C8FDC8F80000C8F8100018B140236B
:100E1000C8F8143004E70C23C9F800304FF0FF3055
:100E200087E700BF88450008904500089445000802
:100E300000000000490A00089368013B002B936002
:100E400005DAD2F818C0634507DB0A2905D0136814
:100E5000581C106019700846704700F075BB00BF41
:100E60009BB1F8B5134406460F46541E5D1E01E0C3
:100E7000AC4208D014F8011F3A463046FFF7DCFFB9
:100E8000431CF5D1F8BD0020F8BD0020704700BF1D
:100E9000936810B5144613B95360184610BD00F09E
:100EA00049FE0023C4E9013310BD00BF2DE9F04F16
:100EB00088469FB015461C46814618B18369002BB1
:100EC00000F0A280924B984500F0A480914B984589
:100ED00000F0B180904B984508BFD9F80C80B8F865
:100EE0000C30180740F19D80D8F81030002B00F02E
:100EF000988000230B932978884E059420238DF841
:100F0000313030238DF832300127002974D02C463F
:100F10000B4604E014F8013F002B00F08F80252BD6
:100F2000F8D1B4EB050B40F08C802378002B63D014
:100F300000234FF0FF32CDE90723069309938DF884
:100F40005B301C93013404E0069A07FA03F3134361
:100F500006932546052214F8011B304601F030F8AF
:100F6000831B0028F0D1069BD90644BF20228DF8B0
:100F70005B2029781A0744BF2B228DF85B202A2991
:100F800070D1059A1168043200290592C0F29B8045
:100F90000991697801352E2976D0614C03222046CB
:100FA00001F00EF838B1069B001B402404FA00F053
:100FB00003430693013515F8011B5A488DF830108C
:100FC000062200F0FDFF002800F08380564B002B26
:100FD0006DD005AA0092554B424606A94846AFF38C
:100FE00000800390039B013306D00B9B039A297862
:100FF00013440B9300298AD1B8F80C305B0617D440
:101000000B981FB0BDE8F08F00F074FD404B984581
:101010007FF45CAFD9F80480B8F80C3018073FF5BE
:1010200063AF4146484600F0F3FA00283FF461AF51
:101030004FF0FF30E5E7D9F8088050E7B4EB050B37
:10104000DAD0AA46C5F1010503E0934536D91AF86E
:10105000011F42464846FFF7EFFE013005EB0A024A
:10106000F3D1C9E7A1F13002092A94D8099B15F8F8
:10107000011F03EB830302EB4303A1F13002092AB2
:10108000F5D92E29099388D169782A292BD1059B76
:10109000A9781A6807920433002A05F10200059323
:1010A000B8BF4FF0FF330546B8BF079375E7059B00
:1010B000073323F007030833059396E70B9A237849
:1010C0005A440B9232E7494243F0020309910693D6
:1010D0005FE705AA0092154B424606A9484600F074
:1010E000C9F803907EE7A1F130020023092A079393
:1010F00005F101053FF651AF15F8011F03EB83031E
:1011000002EB4303A1F13002092AF5D9079344E722
:10111000E0360008C0360008A03600088845000800
:10112000904500089445000800000000610E00088A
:1011300010B4044C84461346206810BC0A4661462D
:10114000FFF7B4BE040000202DE9F04791461E468B
:101150000A698B68DDF820809A42B8BF1A46C9F840
:10116000002091F843300C46054613B10132C9F80E
:101170000020226891065DD5D9F800300233C9F805
:101180000030226812F0060F11461ED1E168CB1A1A
:10119000002BD8BF114618DD04F1190A002706E01C
:1011A000D9F80030E268A2EB030CBC450CDD01234A
:1011B000524631462846C047013007F10107EFD1BA
:1011C0004FF0FF30BDE8F087216894F84330003BD2
:1011D00018BF01238A060AD5E1185A1C302081F86D
:1011E0004300224494F8451082F84310023304F17E
:1011F000430231462846C0470130E1D0236803F05E
:101200000603042B1DD0A3682269934225DD002725
:101210009B1A1F4404F11A09002401E0BC421CDAA5
:1012200001234A4631462846C047013004F10104F3
:10123000F4D1C5E712F0060F12D0003B18BF01230E
:10124000D5E7D9F80030E1682269C91AA36893424A
:1012500021EAE177DCDC0029DCDC0020BDE8F08756
:10126000E168D9F80030CB1A002BD8BF114693DCC7
:10127000ABE700BF2DE9F043174685B00A7E0C9D11
:101280000C460646984601F1430C002A33D0A2F1E1
:101290005803D9B2202967D8202B65D8DFE813F08E
:1012A000DE006400640064006400640064006400A4
:1012B000640064006400A3006E00640064006400C5
:1012C00064006E00640064006400640021007F001C
:1012D000C00064006400AE0064007F00640064002D
:1012E000E50023681A0640F104812B686269191D24
:1012F00029601B681A600023E1462361CDF8008055
:101300003B4603AA21463046FFF71EFF013020D09E
:1013100023694A4639463046C047013019D0236810
:10132000E06803999B0719D5431A002B16DD04F1D9
:101330001909002504E0E0680399431AAB420DDD6A
:1013400001234A4639463046C047013005F10105C0
:10135000F1D14FF0FF3005B0BDE8F0838842B8BF4F
:10136000084605B0BDE8F083012384F842202361DC
:1013700004F14209002384F84330BFE723681906CB
:1013800002D45A0600F1C18029680A680431296034
:101390001146002A6BDBDFF884E10A2510E02368A0
:1013A000180640F19C802B68191D29601968DFF828
:1013B0006CE16F2A0CBF08250A25002384F843300E
:1013C0006268A260002A7FDB236823F004032360A5
:1013D00000295BD1002A79D1E146082D65D0ACEB1C
:1013E000090323618AE72B680122196804332B6003
:1013F00004F1420984F842102261BBE72B6862685D
:10140000191D2960D3F800900021484600F0D8FD4E
:10141000002800F08180A0EB090060602061A9E74E
:10142000236843F0200323607822DFF8F4E084F897
:1014300045202A68111D2960190643D45D0641D54F
:101440001188D80744BF43F020032360002944D10A
:10145000236823F0200323601025AEE7582384F887
:101460004530DFF8B8E02368E3E72368DCE762682B
:10147000A2602D20002AC1F1000184F8430002DBA4
:1014800023F004032360DFF894E00A25E146B1FB72
:10149000F5F305FB13100A46AA421EF8001009F8DE
:1014A000011D1946F3D2082D99D12368D90796D585
:1014B000626823699A4292DC302309F8013C09F101
:1014C000FF398CE71168BCE70029DFD19EF80030B6
:1014D00084F8423004F142097FE710256DE713F0EC
:1014E000400F2B6803F1040129600CBF19681988AB
:1014F0005DE713F0400F2B68626903F10401296076
:101500001B6814BF1A801A60F5E62A68B2F9001049
:1015100004322A600A463CE760687FE79C45000881
:10152000B045000838B5074D0022044608462A6039
:1015300001F02AF9431C00D038BD2B68002BFBD0EA
:10154000236038BD94000020F8B50D4614460646C9
:1015500008B1836943B3254B9C422AD0244B9C425B
:1015600029D0244B9C4208BFF468A389A269A260D9
:101570001A0722D5236903B322686169D31AEDB231
:1015800099422F4629DD0133A1680139A160511C20
:101590002160157062699A4216D0A389DB0701D5D4
:1015A0000A2D11D03846F8BD00F0A4FA0F4B9C422A
:1015B000D4D17468D9E7B468D7E72146304600F043
:1015C00027F838B92369D7E72146304600F02CF9CF
:1015D0000028E7D04FF0FF37E4E72146304600F01F
:1015E00023F90028F6D122680123CDE7E036000870
:1015F000C0360008A036000810B4044C03460A4662
:10160000206810BC1946FFF79FBF00BF04000020F0
:101610003C4B70B51D6806460C460DB1AB69E3B195
:10162000394B9C421FD0394B9C424DD0384B9C4289
:1016300008BFEC68B4F90C3018079AB219D52169C3
:1016400011B312F001002FD00020A0606069404269
:10165000A06100292ED0002070BD284600F04AFA73
:10166000294B9C42DFD16C68B4F90C3018079AB250
:10167000E5D4D1063ED5520728D4216943F00803AA
:10168000A3819AB20029DCD102F42070B0F5007F6A
:10169000D7D02146304600F005FCB4F90C30216962
:1016A0009AB212F00100CFD1950758BF6069A060CF
:1016B0000029D0D1120658BF0846CDD543F04003CB
:1016C000A3814FF0FF3070BDAC68B3E7616B51B1DF
:1016D00004F14402914204D03046FFF7FDF8B4F91A
:1016E0000C300022626321690022C4E9001223F059
:1016F0002403C3E7092243F0400332604FF0FF3078
:10170000A38170BD04000020E0360008C036000848
:10171000A036000808B5062000F078FE012001F090
:1017200049F800BFF8B58B890C46190707463AD42B
:101730006268002A53DDE66A002E4ED000223D6822
:101740003A6013F480524ED1216A01233846B047E3
:10175000421C5AD0A389E66A5B0705D56368C01AA4
:10176000636B0BB1236CC01A216A02460023384612
:10177000B047411C39D13B68002B36D01D2B01D01E
:10178000162B49D123690022C4E90032616B3D6008
:1017900019B304F14403994202D03846FFF79CF88C
:1017A00000206063F8BD2669BEB1256826609A07EF
:1017B0000CBF63690023AD1BA3600CE0D4F828C004
:1017C000216A2B4632463846E047B0F1000CA5EBC3
:1017D0000C05664412DD002DF0DC0020F8BD226C03
:1017E000002AA8DCF9E7606DB6E70023636023698F
:1017F0002360A389DB04C9D56065C7E7A38943F0EB
:1018000040034FF0FF30A381F8BD3B68002BA1D00F
:101810001D2B06D0162B04D0A38943F04003A381CF
:10182000F8BD3D60D9E700BF38B50B69BBB10C46C8
:10183000054608B18369B3B10D4B9C4211D00D4BE5
:101840009C4213D00C4B9C4208BFEC68B4F90C309E
:101850002BB121462846BDE83840FFF763BF002082
:1018600038BD6C68F2E700F045F9E5E7AC68EDE7F4
:10187000E0360008C0360008A036000838B540B38E
:1018800003690446E3B1174B1D680DB1AB69CBB1D9
:10189000154B9C420FD0154B9C4221D0144B9C42BF
:1018A00008BFEC68B4F90C3053B121462846BDE8B6
:1018B0003840FFF737BF6C68B4F90C30002BF4D117
:1018C000002038BD284600F015F9074B9C42E2D1B4
:1018D000F1E7084B08491868BDE8384000F0BEBA87
:1018E000AC68DFE704000020E0360008C0360008DE
:1018F000A036000898350008291800080020704715
:10190000014900F0ABBA00BF291800080020704759
:1019100070B568224D1E02FB05F50E4605F17401F7
:10192000FFF738F8044640B100210C30C4E9001636
:10193000A06005F16802FEF711FD204670BD00BFF2
:10194000274B2DE9F0411E68B369074653B348366B
:101950004FF00408D6E90134013B04D51EE05A1CBF
:1019600004F168041AD0B4F90C50013B002DF6D1F3
:101970001C4B6566C4E90055C4E90253C4E904552B
:10198000A5610822294604F15C00FEF7E7FCC4E9E2
:101990000D55C4E912552046BDE8F08135682DB1DA
:1019A0002E46D7E7304600F01FF8D0E74FF4D67147
:1019B0003846FEF7EFFF044668B10560C0F80480C2
:1019C0000C302946A06025464FF4D072FEF7C6FCC5
:1019D00034602E46BEE70C2330603B60DBE700BF7F
:1019E000983500080100FFFF2DE9F84F344B3549C9
:1019F0001A68816290424FF00003C0E91233036518
:101A000004BF012383610546FFF79AFF68602846FB
:101A1000FFF796FFA8602846FFF792FF6F68E8601F
:101A200000240423C7E9024308222146C7E90044F1
:101A3000C7E904447C66BC6107F15C00FEF78EFCDC
:101A4000DFF884B0AE68DFF884A0DFF88490DFF8B8
:101A50008480214BC7F828A0C7E9087BC7F82C90E1
:101A6000C7F830800822F360C6E90044C6E90444A0
:101A70007466B460B461214606F15C00FEF76EFC4A
:101A8000C6E9086BC6E90AA9C6F83080EE68134BB0
:101A9000F360C6E90044C6E904447466B460B46106
:101AA0002146082206F15C00FEF758FC0123C6E936
:101AB000086BC6E90B98C6F828A0AB61BDE8F88FA3
:101AC00098350008011900087D250008A5250008A3
:101AD000E5250008052600080900010012000200A3
:101AE000024B0349186800F0B9B900BF98350008E7
:101AF00029180008836903B976E77047704700BF6B
:101B0000704700BF704700BF704700BF024B0349DA
:101B1000186800F083B900BF04000020FD18000819
:101B2000024B0349186800F079B900BF0400002097
:101B30000D1900089368002B00F081802DE9F04F0B
:101B4000B1F90C300C461907804683B0174698B29D
:101B500023D523690BB310F002033D682BD04FF05F
:101B6000000ADFF8B4B256465E453346524628BFF7
:101B70005B464046002E4FD0216AD4F828C0E0478B
:101B8000002852DDBB681B1A8244361ABB60002B4A
:101B9000EAD1002003B0BDE8F08F21464046FFF7B0
:101BA00037FD002840F03481B4F90C303D6898B21C
:101BB00010F00203D3D110F0010942D14E463EB3DA
:101BC0008205D4F808B040F18180B3455A4600F24E
:101BD000B18010F4906F40F0BE80206801924946B9
:101BE00000F0D8FAA3682168019AA3EB0B030A441A
:101BF000B246A36022600026B868A0EB0A00D14478
:101C0000B8600028C5D0B4F90C0080B2002ED7D13E
:101C1000D5E900960835D2E7D5E900A60835A3E74F
:101C200021464046FFF700FE80B3B4F90C3043F084
:101C300040034FF0FF30A38103B0BDE8F08F0020D8
:101C400070471E46AA46994618461D4656B388B3A5
:101C50004A46D4E904132068B24228BF324688427B
:101C600005D9A16803EB010B5A4500F3A780934205
:101C700064DC216AD4F828C02A464046E047B0F127
:101C8000000BD2DDB9EB0B09CAD00120BB68A3EB76
:101C90000B035D44A6EB0B06BB60002B3FF479AF52
:101CA000002ED4D10AF1080353E902569A460833AC
:101CB000002EF9D032460A21284600F081F900288A
:101CC00000F09D800130A0EB0509C1E72068236981
:101CD000984217D86369B34214D86FF00042B242F9
:101CE00028BF3246216A92FBF3F2D4F828C002FBE7
:101CF00003F340464A46E047B0F1000A95DDA6EB03
:101D00000A0679E7B345DA4628BFB2465246494645
:101D100000F040FAA3682268A3EB0A035244A360D0
:101D20002260002BEBD121464046FFF77DFD0028C5
:101D3000E5D07AE72068B34632464FE7294601925C
:101D400000F028FA019AA3689B1AA3602368134441
:101D50002360934696E723682169A3EB010B63692F
:101D600003EB430A0AEBDA7A0BF101034FEA6A0A42
:101D700033445345524684BF9A46524643052CD5B8
:101D800011464046FEF706FE00283BD05A46216920
:101D9000019000F065F9A289019B22F4906242F063
:101DA0008002A28103EB0B002361AAEB0B03C4F8B2
:101DB00014A0A3602060B34632460FE729465A4676
:101DC00000F0E8F923685B44236021464046FFF7B2
:101DD0002BFD00283FF456AF27E7404600F05AFAA3
:101DE00003460028DED121694046FEF775FDB4F9AF
:101DF0000C300C2223F08003C8F8002017E7721C77
:101E0000914626E70C22B4F90C30C8F800200EE702
:101E10004FF0FF30BEE600BF00FCFF7F2DE9F04130
:101E2000884600F148070026D7E90154013D0FD448
:101E3000A389012B05F1FF3506D9B4F90E30013322
:101E4000204601D0C04706436B1C04F16804EFD163
:101E50003F68002FE8D13046BDE8F0812DE9F84316
:101E60000746884600F148064FF00009D6E90154BC
:101E7000013D11D4A389012B05F1FF3508D9B4F92F
:101E80000E300133214603D03846C04749EA0009E5
:101E90006B1C04F16804EDD13668002EE6D148468B
:101EA000BDE8F883F0B58B890C46990797B007D544
:101EB00004F147030122C4E90432236017B0F0BDE6
:101EC000B4F90E10002905462DDB6A4600F0C6FB6A
:101ED000002827DB019E06F470464FF48067A6F5C4
:101EE0000056B6FA86F6394628467609FEF752FDC0
:101EF00030B3A3891A4AAA6243F08003C4E90407F5
:101F0000A3812060002ED9D0B4F90E10284600F02D
:101F1000BBFB0028D2D0A38923F0030343F00103C5
:101F2000A381CBE7A38913F0800F14BF40274FF4A0
:101F30008067394628460026FEF72CFD0028D8D1B8
:101F4000B4F90C309A05B9D423F0030304F1470225
:101F500043F002030121C4E90421A3812260ADE71B
:101F60000119000870B50C46B1F90E10002996B0A1
:101F700016461D4613DB6A4600F070FB00280EDB98
:101F8000019901F47041A1F50051B1FA81F14FF4CA
:101F90008063490900202960336016B070BDB4F930
:101FA0000C3000221B062A6004D540230020336039
:101FB00016B070BD4FF480630020336016B070BD62
:101FC00001F0FF01102A2BDB10F0070F08D010F8EA
:101FD000013B013A8B422DD010F0070F42B3F6D1EE
:101FE000F0B441EA012141EA014122F007047FF007
:101FF00000070023F0E80256083C85EA010586EA5E
:10200000010685FA47F5A3FA87F586FA47F6A5FA99
:1020100087F68EB9EED1F0BC01F0FF0102F00702A5
:1020200032B110F8013B013A83EA010313B1F8D150
:102030000020704701387047002D06BF3546033831
:10204000073815F0010F07D1013015F4807F02BF6A
:10205000013015F4C03F0130F0BC0138704700BFBB
:10206000844641EA000313F003036DD1403A41D3A3
:1020700051F8043B40F8043B51F8043B40F8043B62
:1020800051F8043B40F8043B51F8043B40F8043B52
:1020900051F8043B40F8043B51F8043B40F8043B42
:1020A00051F8043B40F8043B51F8043B40F8043B32
:1020B00051F8043B40F8043B51F8043B40F8043B22
:1020C00051F8043B40F8043B51F8043B40F8043B12
:1020D00051F8043B40F8043B51F8043B40F8043B02
:1020E00051F8043B40F8043B51F8043B40F8043BF2
:1020F000403ABDD2303211D351F8043B40F8043B92
:1021000051F8043B40F8043B51F8043B40F8043BD1
:1021100051F8043B40F8043B103AEDD20C3205D3A1
:1021200051F8043B40F8043B043AF9D2043208D099
:10213000D2071CBF11F8013B00F8013B01D30B880B
:1021400003806046704700BF082A13D38B078DD0E9
:1021500010F003038AD0C3F10403D21ADB071CBFBB
:1021600011F8013B00F8013B80D331F8023B20F825
:10217000023B7BE7043AD9D3013A11F8013B00F85E
:10218000013BF9D20B7803704B7843708B788370E6
:102190006046704788420DD98B1883420AD900EBFC
:1021A000020CBAB1624613F801CD02F801CD994292
:1021B000F9D170470F2A0ED8034602F1FF3C4AB10D
:1021C0000CF1010C013B8C4411F8012B03F8012F99
:1021D0006145F9D1704740EA01039B0750D1A2F154
:1021E000100370B501F1200C23F00F0501F1100E62
:1021F00000F11004AC441B095EF8105C44F8105C5C
:102200005EF80C5C44F80C5C5EF8085C44F8085C12
:102210005EF8045C44F8045C0EF1100EE64504F12F
:102220001004E9D1013312F00C0F01EB031102F09D
:102230000F0400EB031327D0043C24F003064FEAFD
:10224000940C1E441C1F8E465EF8045B44F8045F29
:10225000B442F9D10CF1010402F0030203EB840350
:1022600001EB840102F1FF3C4AB10CF1010C013B8E
:102270008C4411F8012B03F8012F6145F9D170BD91
:1022800002F1FF3C03469BE72246EBE7704700BFA5
:10229000704700BFF8B51446F9B1CAB106460D46FD
:1022A00000F01AFAA04202D32F463846F8BD214664
:1022B0003046FEF76FFB07460028F6D02246294637
:1022C000FFF7CEFE30462946FEF706FB3846F8BD3E
:1022D0002746FEF701FB3846F8BDBDE8F840114639
:1022E000FEF758BB38B5446C0CB1002038BD8021D6
:1022F0000546FEF74FFB0246686430B1031F7C328F
:1023000043F8044F9342FBD1EFE74FF0FF3038BD65
:102310001F29F8B5054608D8466C0C4617464EB13D
:1023200056F8240046F82470F8BD162303604FF0D9
:10233000FF30F8BD8021FEF72DFB0646686440B1F2
:10234000031F00F17C05002143F8041F9D42FBD1CF
:10235000E6E74FF0FF30F8BD1F2938B5054620D815
:10236000426C0C466AB152F8213053B1012B16D0A1
:10237000591C10D00025204642F824509847284682
:1023800038BD284600F0F8F8224601462846BDE848
:10239000384000F0DBB816230360012038BD002070
:1023A00038BD162303604FF0FF3038BD1F292AD8EF
:1023B000426C38B50C46054682B152F8243002EB27
:1023C00084024BB1591C19D0012B15D00025204691
:1023D00015609847284638BD012038BD8021FEF79A
:1023E000D9FA0246686458B1031F00217C3043F8D3
:1023F000041F9842FBD1E0E7032038BD022038BD1E
:102400004FF0FF3038BD4FF0FF30704738B5144BF8
:102410001F281D681FD86A6C044662B152F820302C
:102420004BB1012B15D0591C0FD0002542F820507C
:102430009847284638BD284600F09EF822460146B7
:102440002846BDE8384000F081B816232B600120F3
:1024500038BD002038BD16232B604FF0FF3038BD4B
:1024600004000020124B1F2870B51E6808D80D46C6
:10247000716C044649B151F8240041F8245070BDF4
:10248000162333604FF0FF3070BD80213046FEF7D9
:1024900081FA0146706440B1031F00F17C0C0022F8
:1024A00043F8042F6345FBD1E5E74FF0FF3070BDE3
:1024B0000400002038B50B4B1D686C6C0CB100207B
:1024C00038BD80212846FEF765FA686438B1031FDD
:1024D00000F17C0243F8044F9342FBD1EFE74FF049
:1024E000FF3038BD0400002038B5174B1F281D6889
:1024F00026D86A6C044682B152F8243002EB84027A
:102500004BB1591C1AD0012B16D00025204615605E
:102510009847284638BD012038BD80212846FEF75F
:1025200039FA0246686458B1031F00217C3043F831
:10253000041F8342FBD1DFE7032038BD022038BDF2
:102540004FF0FF3038BD00BF0400002070B50C46CE
:10255000084D03460026204611461C462E6000F01A
:10256000FBF8431C00D070BD2B68002BFBD0236010
:1025700070BD00BF9400002000F0DEB810B50C461E
:10258000B1F90E1000F0B2F8002803DB636D0344CC
:10259000636510BDA38923F48053A38110BD00BFE0
:1025A000002070472DE9F0410C46B1F90C101F4690
:1025B000CB05054616460BD421F48051A1813B463C
:1025C000B4F90E1032462846BDE8F04100F01EB8BE
:1025D000B4F90E100223002200F068F8B4F90C10D0
:1025E000EAE700BF10B50C46B1F90E1000F05EF836
:1025F000A389421C0EBF23F4805343F480536065CB
:10260000A38110BDB1F90E1000F016B838B50C4614
:10261000084D8446114620461A4600232B60644626
:1026200000F0C0F8431C00D038BD2B68002BFBD055
:10263000236038BD9400002038B5074D00220446C1
:1026400008462A6000F068F8431C00D038BD2B68AB
:10265000002BFBD0236038BD9400002070B50C46E1
:10266000084D03460026204611461C462E6000F009
:102670005BF8431C00D070BD2B68002BFBD023609F
:1026800070BD00BF9400002038B5074D00220446FD
:1026900008462A6000F058F8431C00D038BD2B686B
:1026A000002BFBD0236038BD9400002038B50C46C9
:1026B000084D8446114620461A4600232B60644686
:1026C00000F052F8431C00D038BD2B68002BFBD023
:1026D000236038BD9400002051F8040C0028A0F1BC
:1026E0000400BCBF0B58C018704700BF38B50C467B
:1026F000084D8446114620461A4600232B60644646
:1027000000F03AF8431C00D038BD2B68002BFBD0FA
:10271000236038BD94000020024B58221A604FF00D
:10272000FF30704794000020024B58221A604FF08F
:10273000FF30704794000020024B58221A604FF07F
:10274000FF30704794000020024B58221A6000208E
:10275000704700BF94000020024B58221A604FF0CF
:10276000FF30704794000020024B58221A604FF04F
:10277000FF30704794000020024B58221A604FF03F
:10278000FF30704794000020044A05491368002B6D
:1027900008BF0B4618441060184670479800002088
:1027A000F0000020024B58221A604FF0FF307047B3
:1027B00094000020FEE700BF2DE9F0415A4B92B093
:1027C0001A889B788DF80E30584BADF80C203820C5
:1027D0001A889B78ADF810208DF8123000F0DEF9E1
:1027E000002800F08E805248DFF8488100F00CFE8F
:1027F000032203A9382000F049F9322000F0A0FD9F
:10280000032204A9382000F041F9642000F098FD6B
:10281000062205A9382000F07DF99DF816509DF894
:1028200015209DF8173044492D0245EA023545EA46
:1028300013151C04BDF818305BBA64229BB204F473
:10284000702455431C43C8235C432D0D2A46240D98
:1028500007A8FDF7F1FD323C07A800F0D5FD2246A0
:10286000364907A8FDF7E8FD07A800F0CDFDD8F828
:102870000020AA421ED0324E324907A8FDF7DCFDE7
:1028800096E8030000238DE8030007AA1E21032019
:1028900000F00EFD2B492A4607A8FDF7CDFD96E86E
:1028A00003004FF4FC638DE8030007AA1E210320F8
:1028B00000F0FEFC244F3A68A2421ED0204E23496D
:1028C00007A8FDF7B9FD96E8030000238DE8030093
:1028D00007AA3721032000F0EBFC1C49224607A879
:1028E000FDF7AAFD96E803004FF4FC638DE80300B2
:1028F00007AA3721032000F0DBFCC8F800503C6039
:102900000EE0134800F080FD0D4B124A93E80300DF
:102910004FF478438DE803002B21142000F0C8FC0D
:1029200012B0BDE8F08100BF5A3700085D370008DB
:10293000003700089C0000200937000818370008FD
:102940006800002040370008A00000204D37000834
:102950002737000837370008144B5A6942F48022A1
:102960005A619A6942F001029A61114A136823F090
:10297000030313600F4B9A6822F00F029A609A6863
:1029800042F001029A60D3F8002442F00102C3F839
:102990000024D3F80C2442F00102C3F80C24064BA7
:1029A00040221A60002283F806237047001002407C
:1029B000000400480000014000E100E0064B5A69B5
:1029C000D20707D55A6942F001025A61034A1368D7
:1029D00001331360704700BF00040140A4000020D1
:1029E000264B5A6942F480225A61DA6942F4001295
:1029F000DA61234B1A6822F440321A601A6842F4F2
:102A000000321A601A6822F440221A601A6842F4EE
:102A100000221A605A6822F440725A605A6842F4DE
:102A200040725A60DA6822F44022DA60DA6842F4CE
:102A30008022DA60DA6822F44032DA60DA6842F43E
:102A40008032DA609A6822F470229A609A6842F4BE
:102A500070229A605A6A22F0FF025A625A6A42F061
:102A600044025A62074B00221A605A60064A1A61F1
:102A70001A6842F001021A60704700BF001002405D
:102A80000004004800540040CC8DC1101F4BF0B52D
:102A900000245C605E6846EA02465E605E6846F05E
:102AA00000765E605D6845EA40055D605868184DD7
:102AB00040F40050586042F210772046904205DB07
:102AC000124B9A699206FCD5202217E02F6000264F
:102AD00042F21074D3F818C01CF0120F05D006B1E2
:102AE0002C600C5C9C620130E8E7D3F818C01CF045
:102AF000100F05D006B12C60044B1022DA6104E0FF
:102B0000013C4FF00106E5D12C60F0BD00540040BF
:102B1000A80000201F4BF0B500245C605E6846F4FE
:102B200080665E605E6846EA02465E605E6846F009
:102B300000765E605D6845EA40055D605868164D48
:102B400040F40050586042F210772046904205DB76
:102B5000104B9A699206FCD520220EE02F600026C9
:102B600042F21074D3F818C01CF0140F07D006B14D
:102B70002C609C69E40608D51022DA6104E0013C6F
:102B80004FF00106EED12C60F0BD5C6A0C540130B0
:102B9000DCE700BF00540040A80000201F4B4FF4AA
:102BA0004C7210B5DA6100225A60596859605C684D
:102BB00044F000745C60596841EA4001596059680A
:102BC00041F400515960164942F2107008609C6946
:102BD00014F0700F09D002B108609A6912F0100267
:102BE00009D03022DA61002004E001384FF0010200
:102BF000EDD1086010BD42F2107308480B60846983
:102C0000A40604D53AB92023C3610120F2E7013BB1
:102C10004FF00102F3D10B60F5E700BF0054004014
:102C2000A80000200B4A536943F4002353610A4B68
:102C30001A6842F080621A60DA6842F08062DA60F4
:102C40001A6842F080521A60DA6842F08052DA6004
:102C5000704700BF001002400008004883B500F034
:102C600049F800F051FB4FF416500024FFF7DAFF4B
:102C700000F076FB00F068F900F016FA00F088F832
:102C8000FFF7AEFEFFF768FE1748184D184E00F02C
:102C9000BBFB0094A02380222146204600F02BFAA3
:102CA0002746A04600F0F8FB00F0DEFB2B681B1B5C
:102CB000B3F57A7F02D32C68FFF77EFD2B68DB1B10
:102CC000B3F5617F02D32F6800F0F4F82B68A3EB13
:102CD0000803B3F57A7FE5D3736983F40053736116
:102CE000D5F80080DEE700BFBC440008C400002027
:102CF00000080048244B1A6822F0070210B51A6039
:102D00001A68224C42F004021A60236843F48033AC
:102D1000236023689903FCD5236823F08073236024
:102D200023689A01FCD4636823F07F73636063684F
:102D300043F4E0136360636823F4C0336360636843
:102D400043F480336360636823F4E0636360636823
:102D500043F480636360236843F0807323602368D7
:102D60009B01FCD5636823F003036360636843F051
:102D700002036360636803F00C03082B00D110BDED
:102D8000FDF750FAF6E700BF0020024000100240B5
:102D900010B51D4C1D4AE36943F08053E36113688D
:102DA00043F480731360052000F0D4FA236A43F0E3
:102DB0000103236242F21073226A910701D4013B9E
:102DC000FAD1236A23F440732362236A43F48073A5
:102DD0002362236A43F4004323620D4BCA225A62E2
:102DE00053225A62DA6842F08002DA60DA685206E8
:102DF000FCD5084A1A61DA6822F08002DA60FE2205
:102E00005A6264225A6210BD0010024000700040F5
:102E100000280040FF007F00144ACA2330B55362E7
:102E200053235362D36843F08003D360D3685B06B7
:102E3000FCD50A24B1FBF4F504FB1513DBB21B022D
:102E4000B0FBF4F143EA053304FB110043EA0153FC
:102E5000C0B243EA00431360D36823F08003D36019
:102E6000FE2353626423536230BD00BF002800403C
:102E70000F4B1B6830B5C3F30154C3F3034504EB98
:102E8000840405EB44040470C3F30230C3F3032449
:102E900000EB800004EB40000870C3F3021101EB6B
:102EA000810103F00F0303EB4103137030BD00BF3A
:102EB000002800402DE9F0431D4FDFF87880DFF84F
:102EC00078901E4C1E4E89B03A4641464846FFF760
:102ED000CFFF0025102229460DEB02000395FDF7D8
:102EE0003DFA94E803002B468DE8030032460321A7
:102EF0000A2000F0DDF999F8002098F800303978C0
:102F0000009103A80F49FDF797FA94E803004FF6E4
:102F1000E0738DE8030003AA03210A2000F0C8F93A
:102F200003A93046FDF7A8FA09B0BDE8F08300BF59
:102F3000AE000020AD000020AC00002068000020A2
:102F4000AF000020CA440008204B5A6942F4003206
:102F50005A619A6942F480529A614FF090431A681C
:102F600022F47F421A601A6842F42A421A605A68B0
:102F700022F0F0025A609A6842F42A429A601A6A71
:102F800092B21A621A6A42F0AA4242F4AA021A6281
:102F90000F4B00221A605A601A6842F004021A604D
:102FA0001A6842F400721A601A6842F480721A6059
:102FB0001A6842F008021A605A6842F4E0625A60E5
:102FC0001A6842F040021A60704700BF00100240C9
:102FD00000300140044B9A689107FCD518739A6839
:102FE0001206FCD4187B7047003001400D4A53692B
:102FF00043F4003353614FF090431A6822F03F02CC
:103000001A601A6842F015021A609A6822F03F02AC
:103010009A609A6842F03F029A609A6942F001020F
:103020009A617047001002404FF09042936943F05C
:103030000203936170474FF09042936943F4003369
:10304000936170474FF09042936943F0040393619A
:1030500070474FF09042936943F480239361704727
:1030600010B54FF090440A20A36943F00103A36117
:1030700000F066F9A36943F48033A3610A2000F0ED
:103080005FF9A36943F00103A36110BD08B5FFF721
:10309000D2FFBDE80840FFF79DBF08B5FFF7C4FFAA
:1030A000BDE80840FFF796BF08B5FFF79FFFFFF7A1
:1030B000D7FF0A2000F044F90A20FFF7CAFF00F00A
:1030C0003FF91120FFF7E2FF782000F039F93A20AC
:1030D000FFF7DCFF0520FFF7E0FF3620FFF7D6FF04
:1030E0001420FFF7DAFF2920FFF7D0FFBDE80840E2
:1030F000642000F025B92DE9F8437F28BDF8208031
:1031000006460D4617461C4659D89F2957D8002A0F
:1031100055D0002B53D08318802BC8BFC0F180003E
:1031200001EB0403C8BF87B2A02BC8BFC1F1A00444
:103130004FF02A00C8BFA4B2F6B2FFF78AFFFFF72C
:10314000A5FF0020FFF7A9FF3046FFF7A6FF013ECD
:103150000020FFF7A2FFF019C0B2FFF79EFF2B205F
:10316000FFF794FFEDB20020FFF797FF2846FFF727
:1031700094FF013D0020FFF790FF2819C0B2FFF730
:103180008CFF2C20FFF782FFFFF74EFF4FEA182934
:1031900000265FFA88F8002548460135FFF71AFF38
:1031A0002DB24046FFF716FFBD42F5DB013636B2C1
:1031B000A642F0DBFFF746FF0120BDE8F8830020C0
:1031C000FBE7F8B505462A2017461E460C46EDB229
:1031D000FFF75CFF0020FFF760FF2846FFF75DFF69
:1031E0000020FFF75AFF781E2844C0B2FFF755FFB2
:1031F0002B20FFF74BFFE4B20020FFF74EFF2046E5
:10320000FFF74BFF0020FFF748FF701E2044C0B2BD
:10321000FFF743FFBDE8F8402C20FFF737BF7F28BA
:1032200010B514460FD89F290DD801231A46FFF771
:10323000C8FF200AFFF7F8FEFFF7CCFEE0B2FFF769
:10324000C9FE012010BD0020FCE72DE9F74F9DF8D5
:1032500031900D9EA2F1200409FB04F40746884634
:103260009A4606EB440600254FF0010BA94502DC07
:1032700003B0BDE8F08F08EB050136F8023B0024EF
:1032800089B29DF83020A24201DC0135EEE7C4F19D
:103290000F020BFA02F2134208D03819524680B2DC
:1032A00001930091FFF7BBFFDDE900130134E8E76C
:1032B0002DE9F74314469DF828809946FFF7C9FE8B
:1032C00007460D46013C3E4614F8012F22B903B0D3
:1032D000BDE8F043FFF7B6BE8DF828800AAB93E84F
:1032E00003004B468DE8030030462946FFF7ADFF4B
:1032F00006EB080296B218FA82F2802AE4DD9DF805
:1033000029100D44ADB2DEE708B5FCF78BFF074B83
:103310004FF47A721B68B3FBF2F34FF0E022013BEB
:103320005361002393610723136108BD000000204F
:10333000024A136801331360704700BFC4000020C5
:10334000034A116813685B1A8342FBD3704700BFBE
:10335000C400002000B9704700BF0138FAE7000040
:10336000204B5A6942F400325A619A6942F4804211
:103370009A614FF090431A6822F440221A601A684A
:1033800042F400221A601A6822F440121A601A6885
:1033900042F400121A605968134AB2FBF0F221F4A9
:1033A000C0615960996841F420119960596A21F40B
:1033B0007F615962596A41F4EE6159620B4B0021F9
:1033C000196059609960DA601A6842F020021A6048
:1033D0001A6842F00D021A60054B202283F825235B
:1033E0005A6070470010024000A24A0400380140B1
:1033F00000E100E0034BDA691206FCD580B21885C3
:10340000704700BF0038014008B5411E11F8010F98
:1034100000B908BDFFF7EEFFF8E700000E4BDA69D0
:10342000920618D59A8C0D4B0D48D2B201210D2A67
:1034300019700C4B02D019781E2905D91A78D2B20E
:1034400000218154197070471978C9B242541A7812
:103450000132D2B21A70704700380140C800002013
:10346000C9000020E900002010B5074C237853B1B3
:103470000648FFF7C9FF0648FFF7C6FF0548FFF7F4
:10348000C3FF0023237010BDC8000020D9440008EA
:10349000C9000020F8440008F0B5194F194989B057
:1034A00002223846FDF746F8044630BB1649384636
:1034B000FDF780F815492046FDF77CF813490546CD
:1034C0002046FDF777F806462846FCF71BFF054621
:1034D0003046FCF717FFC1B20646E8B2FFF79CFC86
:1034E0000B4933462A466846FCF7A6FF6846FFF7B5
:1034F0008BFF3C70012009B0F0BD0020FBE700BF4E
:10350000C9000020DF440008DD440008E244000850
:10351000E4440008DFF834D0FCF77EFE0C480D4987
:103520000D4A002302E0D458C4500433C4188C421E
:10353000F9D30A4A0A4C002301E013600432A24284
:10354000FBD3FCF7E7FEFFF789FBFEE700800020D6
:103550000000002070000020CC4500087000002012
:10356000EC000020FEE70000F8B500BFF8BC08BC86
:103570009E467047F8B500BFF8BC08BC9E46704731
:103580000000000000000000010203040607080913
:103590000000000001020304080000200020202099
:1035A00020202020202028282828282020202020F3
:1035B00020202020202020202020202020881010C3
:1035C000101010101010101010101010100404041F
:1035D00004040404040404101010101010104141DD
:1035E00041414141010101010101010101010101CB
:1035F00001010101010101011010101010104242DF
:10360000424242420202020202020202020202029A
:10361000020202020202020210101010200000003A
:10362000000000000000000000000000000000009A
:10363000000000000000000000000000000000008A
:10364000000000000000000000000000000000007A
:10365000000000000000000000000000000000006A
:10366000000000000000000000000000000000005A
:10367000000000000000000000000000000000004A
:10368000000000000000000000000000000000003A
:10369000000000000000000000000000000000002A
:1036A000000000000000000000000000000000001A
:1036B000000000000000000000000000000000000A
:1036C00000000000000000000000000000000000FA
:1036D00000000000000000000000000000000000EA
:1036E00000000000000000000000000000000000DA
:1036F00000000000000000000000000000000000CA
:1037000041485420454E0A0D0041485432305F482C
:103710003A20256C750A0D0041485432305F543A06
:1037200020256C750A0D00493243206E6F6E6520AE
:10373000307833380A0D00414854204E4F4E450032
:1037400048756D693A20256C752025250054656DF6
:10375000703A20256C75202A4300BE0800AC330067
:103760000000000000000000000000000000000059
:103770000000000000000000000000000000000049
:10378000000000000000000C000C000C000C000CFD
:10379000000C000C000C000C000C000C0000000CD5
:1037A000000C0000000000000000001B001B001BBC
:1037B000001B001B000000000000000000000000D3
:1037C0000000000000000000000000000000801960
:1037D000801980198019C07FC07F80190033C07F95
:1037E000C07F0033003300330033000000000000CE
:1037F0000000001E003F807580650074003C001EC4
:1038000000078005806580658075003F001E00040C
:10381000000400000000007000D840D8C0D880D953
:1038200000730006000C801BC036C066C046C00690
:1038300080030000000000000000001E003F003375
:1038400000330033001E000CC03CC0668063806102
:103850008063C03E801C0000000000000000000CDF
:10386000000C000C000C000C000000000000000028
:103870000000000000000000000000000000000048
:10388000800000010003000600060004000C000C8C
:10389000000C000C000C000C0004000600060003E5
:1038A00000018000002000100018000C000C000433
:1038B0000006000600060006000600060004000CD4
:1038C000000C0018001000200000000C002D003F2C
:1038D000001E003300000000000000000000000097
:1038E00000000000000000000000000000000000D8
:1038F0000000000C000C000C000CC0FFC0FF000C0E
:10390000000C000C000C0000000000000000000093
:1039100000000000000000000000000000000000A7
:1039200000000000000000000000000C000C00047B
:10393000000400080000000000000000000000007B
:10394000000000000000001E001E0000000000003B
:103950000000000000000000000000000000000067
:103960000000000000000000000000000000000057
:103970000000000C000C000000000000000000032C
:10398000000300030006000600060006000C000C01
:10399000000C000C001800180018000000000000C7
:1039A0000000001E003F0033806180618061806DF7
:1039B000806D8061806180610033003F001E0000E7
:1039C0000000000000000006000E001E0036002669
:1039D00000060006000600060006000600060006B7
:1039E00000060000000000000000001E003F807381
:1039F00080618061800100030006000C0018003027
:103A00000060807F807F0000000000000000001C3C
:103A1000003E006300630003000E000E00038001FF
:103A2000800180618073003F001E000000000000E4
:103A300000000006000E000E001E001E00160036DC
:103A400000360066807F807F0006000600060000CA
:103A5000000000000000007F007F00600060006048
:103A6000006E007F80638001800180618073003F71
:103A7000001E0000000000000000001E003F803318
:103A800080610060006E007F807380618061806172
:103A90008033003F001E0000000000000000807F17
:103AA000807F80010003000300060006000C000C6C
:103AB000000C0008001800180018000000000000AA
:103AC0000000001E003F8063806180610021001EB5
:103AD000003F8061806180618061003F001E0000C6
:103AE000000000000000001E003F00738061806144
:103AF00080618073803F801D800180610073003F82
:103B0000001E000000000000000000000000000097
:103B10000000000C000C000000000000000000008D
:103B20000000000C000C000000000000000000007D
:103B30000000000000000000000C000C000000006D
:103B4000000000000000000C000C0004000400084D
:103B5000000000000000000080008003000E00381C
:103B600000600038000E80038000000000000000AC
:103B70000000000000000000000000000000807F46
:103B8000807F00000000807F807F00000000000038
:103B90000000000000000000000000000000000025
:103BA00000400070001C000780010007001C00702E
:103BB0000040000000000000000000000000001FA6
:103BC000803FC071C060C000C00180030007000ECC
:103BD000000C000C0000000C000C000000000000B5
:103BE0000000001E003F803180718063806F806D17
:103BF000806D806F806700600032003E001C000016
:103C0000000000000000000E000E001B001B001B47
:103C1000001B80318031803F803F8031C060C060B8
:103C2000C0600000000000000000007C007E006317
:103C3000006300630063007E007E0063806180613A
:103C40008063007F007E0000000000000000001E76
:103C5000003F8031806100600060006000600060B3
:103C6000006080618031003F001E00000000000005
:103C70000000007C007F0063806380618061806160
:103C800080618061806100630063007E007C0000D1
:103C9000000000000000807F807F00600060006006
:103CA0000060007F007F0060006000600060807F37
:103CB000807F0000000000000000807F807F0060A7
:103CC000006000600060007F007F006000600060B6
:103CD0000060006000600000000000000000001EA6
:103CE000003F80318061006000600060806380631D
:103CF000806180618031803F001E00000000000074
:103D00000000806180618061806180618061807F6E
:103D1000807F80618061806180618061806100005E
:103D2000000000000000003F003F000C000C000CF1
:103D3000000C000C000C000C000C000C000C003FF0
:103D4000003F0000000000000000800180018001B1
:103D5000800180018001800180018001806180619B
:103D60008073003F001E0000000000000000C060E3
:103D70008061006300660066006C0078007C00666D
:103D80000066006380618061C06000000000000088
:103D90000000807F807F0060006000600060006045
:103DA0000060006000600060006000600060000073
:103DB000000000000000C071C071C07BC07AC06A02
:103DC000C06AC06EC064C060C060C060C060C060D7
:103DD000C0600000000000000000807180718079E8
:103DE00080798079806D806D806D80658067806767
:103DF0008067806380630000000000000000001EF8
:103E0000003F0033806180618061806180618061FA
:103E1000806180610033003F001E00000000000050
:103E20000000007E007F806380618061806180632C
:103E3000007F007E006000600060006000600000A5
:103E4000000000000000001E003F00338061806120
:103E50008061806180618061806580670033803F20
:103E6000401E0000000000000000007E007F806314
:103E7000806180618063007F007E00660063006374
:103E800080618061C0600000000000000000000E42
:103E9000001F8031803100300038001E0007800391
:103EA000806180618031003F001E00000000000042
:103EB0000000C0FFC0FF000C000C000C000C000C48
:103EC000000C000C000C000C000C000C000C00009E
:103ED000000000000000806180618061806180617D
:103EE0008061806180618061806180618073003F5A
:103EF000001E0000000000000000C060C060C06044
:103F0000803180318031001B001B001B001B000E24
:103F1000000E000E00040000000000000000C0C001
:103F2000C0C0C0C0C0C0C0C0C0CC804C804C805E8F
:103F30008052805280738061806100000000000028
:103F40000000C0C0806080610033003B001E000C98
:103F5000000C001E001F003B80718061C0C000008B
:103F6000000000000000C0C08061806100330033A9
:103F7000001E001E000C000C000C000C000C000CBD
:103F8000000C0000000000000000803F803F800126
:103F9000000300030006000C000C0018001800309D
:103FA0000060807F807F000000000000000F000F95
:103FB000000C000C000C000C000C000C000C000CA1
:103FC000000C000C000C000C000C000C000F000F8B
:103FD0000000001800180018000C000C000C000C69
:103FE00000060006000600060003000300030000B0
:103FF00000000000001E001E00060006000600066D
:104000000006000600060006000600060006000680
:1040100000060006001E001E0000000C000C001E22
:104020000012003300338061806100000000000056
:104030000000000000000000000000000000000080
:104040000000000000000000000000000000000070
:10405000000000000000000000000000E0FF000081
:10406000000000380018000C0000000000000000F4
:104070000000000000000000000000000000000040
:104080000000000000000000000000000000001F11
:10409000803F80618001801F803F80618063807FDE
:1040A000C0380000000000000000006000600060F8
:1040B0000060006E007F807380618061806180613C
:1040C0008073007F006E0000000000000000000010
:1040D000000000000000001E003F8073806100604F
:1040E000006080618073003F001E0000000000003F
:1040F00000008001800180018001801D803F80736D
:1041000080618061806180618073803F801D0000DC
:104110000000000000000000000000000000001E81
:10412000003F00738061807F807F00608071003F6E
:10413000001E0000000000000000C007C00F000CBF
:10414000000C807F807F000C000C000C000C000C29
:10415000000C000C000C000000000000000000003B
:1041600000000000801D803F80738061806180615D
:1041700080618073803F801D80018063007F003EEE
:1041800000000060006000600060006F807F807150
:1041900080618061806180618061806180610000F8
:1041A0000000000000000006000600000000003EC5
:1041B000003E000600060006000600060006000697
:1041C00000060000000000000006000600000000DD
:1041D000003E003E0006000600060006000600063F
:1041E0000006000600060046007E003C000000605D
:1041F000006000600060806100630066006C007C0D
:104200000076006300638061C06000000000000071
:104210000000003E003E0006000600060006000604
:104220000006000600060006000600060006000064
:10423000000000000000000000000000000080DD21
:10424000C0FFC0CEC0CCC0CCC0CCC0CCC0CCC0CCD9
:10425000C0CC0000000000000000000000000000D2
:104260000000006F807F807180618061806180616B
:10427000806180618061000000000000000000009B
:10428000000000000000001E003F8073806180611C
:10429000806180618073003F001E0000000000000C
:1042A0000000000000000000006E007F807380614D
:1042B0008061806180618073007F006E00600060BB
:1042C000006000600000000000000000801D803FD2
:1042D000807380618061806180618073803F801D18
:1042E00080018001800180010000000000000000CA
:1042F00000000067803F003900300030003000309F
:10430000003000300030000000000000000000001D
:10431000000000000000001E803F80610060007F00
:10432000803F80018061007F001E000000000000CF
:1043300000000000000800180018007F007F00182F
:1043400000180018001800180018801F800F0000C7
:10435000000000000000000000000000000080617C
:104360008061806180618061806180618063807F25
:10437000803D000000000000000000000000000080
:104380000000C060803180318031001B001B001BA9
:10439000000E000E000600000000000000000000FB
:1043A00000000000000080DD80DD80DD005500554C
:1043B0000055007700770022002200000000000076
:1043C00000000000000000000000806100330033A6
:1043D000001E000C000C001E003300338061000042
:1043E000000000000000000000000000806180610B
:1043F000803100330033001B001B001B000E000E39
:10440000000E001C007C0070000000000000000096
:104410000000C07FC07F800100030006000C001870
:104420000030C07FC07F00000000000080038007D4
:1044300000060006000600060006000E001C001C18
:10444000000E000600060006000600068007800336
:10445000000600060006000600060006000600062C
:10446000000600060006000600060006000600061C
:10447000000600060038003C000C000C000C000C8C
:10448000000C000E00070007000E000C000C000CD2
:10449000000C000C003C0038000000000000000090
:1044A0000000000000008038807F0047000000000E
:1044B000000000000000000000000000494E4954C8
:1044C00020434F4D504C45544500253032643A2529
:1044D0003032643A25303264004745543A20007344
:1044E00074002C005345542054494D45202D3E2046
:1044F0002532643A253264200D0A00005245454EAB
:1045000054206D616C6C6F632073756363656564C3
:10451000656400002E2E2F2E2E2F2E2E2F2E2E2FA6
:104520002E2E2F2E2E2F2E2E2F2E2E2F6E65776CA9
:1045300069622F6C6962632F737472696E672F737F
:104540007472746F6B2E63002C2066756E637469D1
:104550006F6E3A2000000000617373657274696FBA
:104560006E2022257322206661696C65643A20669C
:10457000696C6520222573222C206C696E652025CC
:1045800064257325730A0000232D302B20000000C2
:10459000686C4C0065666745464700003031323331
:1045A000343536373839414243444546000000002F
:1045B0003031323334353637383961626364656699
:0445C00000000000F7
:0445C400F9010008F1
:0445C800D101000815
:1045CC0000127A000800002000000000E03600080D
:1045DC00C0360008A03600080000000000000000F3
:1045EC0000000000000000000000000000000000BF
:1045FC0000000000000000000000000000000000AF
:10460C00000000000000000000000000000000009E
:10461C00000000000000000000000000000000008E
:10462C0000000000000000000B12000060370008C2
:0400000508003515A5
:00000001FF
