:020000040800F2
:1000000000800020D52000082521000825210008B7
:1000100025210008252100082521000800000000F6
:100020000000000000000000000000002521000882
:10003000252100080000000025210008BD1000084F
:100040002521000825210008252100082521000878
:100050002521000825210008252100082521000868
:100060002521000825210008252100082521000858
:100070002521000825210008252100082521000848
:100080002521000825210008252100082521000838
:100090002521000825210008252100082521000828
:1000A0002521000825210008252100082521000818
:1000B0002521000825210008252100082521000808
:1000C00025210008252100082521000825210008F8
:1000D00025210008A11C0008252100082521000871
:1000E00025210008252100082521000825210008D8
:1000F00025210008252100082521000825210008C8
:1001000000000000000000000000000025210008A1
:1001100025210008252100082521000825210008A7
:100120002521000825210008252100082521000897
:100130002521000825210008000000000000000023
:1001400025210008252100082521000800000000C5
:10015000000000000000000000000000000000009F
:1001600000000000000000002521000825210008F3
:100170002521000800000000000000000000000031
:08018000000000002521000829
:1001C00080B400AF00BFBD4680BC704780B485B02E
:1001D00000AF0023FB600023BB6000237B60002393
:1001E0003B602D4B5B6803F00C03FB60FB68082B46
:1001F00011D0FB68082B36D8FB68002B03D0FB68B6
:10020000042B04D02FE0254B254A1A602FE0234B06
:10021000234A1A602BE0204B5B6803F47013BB6029
:100220001D4B5B6803F480337B60BB689B0C02331F
:10023000BB607B68002B06D1BB681A4A02FB03F344
:10024000164A136013E0144BDB6A03F00F0301330B
:100250003B60134A3B68B2FBF3F3BA6802FB03F35B
:100260000E4A136003E00D4B0D4A1A6000BF0A4BA3
:100270005B681B0903F00F030B4AD35CFB60074B61
:100280001A68FB6822FA03F3044A136000BF1437AC
:10029000BD4680BC704700BF001002400000002037
:1002A00000127A0000093D0074910008000000006F
:1002B00001F0FF01102A2BDB10F0070F08D010F817
:1002C000013B013A8B422DD010F0070F42B3F6D11B
:1002D000F0B441EA012141EA014122F007047FF034
:1002E00000070023F0E80256083C85EA010586EA8B
:1002F000010685FA47F5A3FA87F586FA47F6A5FAC7
:1003000087F68EB9EED1F0BC01F0FF0102F00702D2
:1003100032B110F8013B013A83EA010313B1F8D17D
:100320000020704701387047002D06BF354603385E
:10033000073815F0010F07D1013015F4807F02BF97
:10034000013015F4C03F0130F0BC0138704700BFE8
:10035000000000000000000000000000000000009D
:10036000000000000000000000000000000000008D
:10037000000000000000000000000000000000007D
:1003800030B490F800F020F007016FF0000C10F08E
:10039000070491F820F040F048804FF000046FF01F
:1003A0000700D1E9002391F840F000F1080082FA3B
:1003B0004CF2A4FA8CF283FA4CF3A2FA8CF34BBB06
:1003C000D1E9022382FA4CF200F10800A4FA8CF27F
:1003D00083FA4CF3A2FA8CF3E3B9D1E9042382FA4D
:1003E0004CF200F10800A4FA8CF283FA4CF3A2FA62
:1003F0008CF37BB9D1E9062301F1200182FA4CF29A
:1004000000F10800A4FA8CF283FA4CF3A2FA8CF300
:10041000002BC6D0002A04BF04301A4612BAB2FA22
:1004200082F200EBD20030BC7047D1E9002304F027
:100430000305C4F100004FEAC50514F0040F91F85C
:1004400040F00CFA05F562EA05021CBF63EA0503F9
:1004500062464FF00004AAE7844641EA000313F025
:1004600003036DD1403A41D351F8043B40F8043BBB
:1004700051F8043B40F8043B51F8043B40F8043B7E
:1004800051F8043B40F8043B51F8043B40F8043B6E
:1004900051F8043B40F8043B51F8043B40F8043B5E
:1004A00051F8043B40F8043B51F8043B40F8043B4E
:1004B00051F8043B40F8043B51F8043B40F8043B3E
:1004C00051F8043B40F8043B51F8043B40F8043B2E
:1004D00051F8043B40F8043B51F8043B40F8043B1E
:1004E00051F8043B40F8043B403ABDD2303211D3BE
:1004F00051F8043B40F8043B51F8043B40F8043BFE
:1005000051F8043B40F8043B51F8043B40F8043BED
:10051000103AEDD20C3205D351F8043B40F8043BBD
:10052000043AF9D2043208D0D2071CBF11F8013BBB
:1005300000F8013B01D30B8803806046704700BF81
:10054000082A13D38B078DD010F003038AD0C3F190
:100550000403D21ADB071CBF11F8013B00F8013B72
:1005600080D331F8023B20F8023B7BE7043AD9D331
:10057000013A11F8013B00F8013BF9D20B78037006
:100580004B7843708B7883706046704781F00041F0
:1005900002E000BF83F0004330B54FEA41044FEA68
:1005A000430594EA050F08BF90EA020F1FBF54EA03
:1005B000000C55EA020C7FEA645C7FEA655C00F09F
:1005C000E2804FEA5454D4EB5555B8BF6D420CDD70
:1005D0002C4480EA020281EA030382EA000083EAF3
:1005E000010180EA020281EA0303362D88BF30BD93
:1005F00011F0004F4FEA01314FF4801C4CEA1131E9
:1006000002D0404261EB410113F0004F4FEA033347
:100610004CEA133302D0524263EB430394EA050FD2
:1006200000F0A780A4F10104D5F1200E0DDB02FA41
:100630000EFC22FA05F2801841F1000103FA0EF2D5
:10064000801843FA05F359410EE0A5F120050EF19B
:10065000200E012A03FA0EFC28BF4CF0020C43FACC
:1006600005F3C01851EBE37101F0004507D54FF0D9
:10067000000EDCF1000C7EEB00006EEB0101B1F529
:10068000801F1BD3B1F5001F0CD349085FEA30006F
:100690004FEA3C0C04F101044FEA445212F5800F7A
:1006A00080F09A80BCF1004F08BF5FEA500C50F117
:1006B000000041EB045141EA050130BD5FEA4C0CFA
:1006C000404141EB0101013C28BFB1F5801FE9D257
:1006D00091F0000F04BF01460020B1FA81F308BF7A
:1006E0002033A3F10B03B3F120020CDA0C3208DD46
:1006F00002F1140CC2F10C0201FA0CF021FA02F121
:100700000CE002F11402D8BFC2F1200C01FA02F190
:1007100020FA0CFCDCBF41EA0C019040E41AA2BFB5
:1007200001EB0451294330BD6FEA04041F3C1CDA7D
:100730000C340EDC04F11404C4F1200220FA04F09D
:1007400001FA02F340EA030021FA04F345EA030147
:1007500030BDC4F10C04C4F1200220FA02F001FA09
:1007600004F340EA0300294630BD21FA04F029468B
:1007700030BD94F0000F83F4801306BF81F4801124
:100780000134013D4EE77FEA645C18BF7FEA655C97
:1007900029D094EA050F08BF90EA020F05D054EA69
:1007A000000C04BF1946104630BD91EA030F1EBF6E
:1007B0000021002030BD5FEA545C05D14000494172
:1007C00028BF41F0004130BD14F580043CBF01F565
:1007D000801130BD01F0004545F0FE4141F470014B
:1007E0004FF0000030BD7FEA645C1ABF1946104626
:1007F0007FEA655C1CBF0B46024650EA013406BF27
:1008000052EA033591EA030F41F4002130BD00BFE5
:1008100090F0000F04BF0021704730B54FF48064A2
:1008200004F132044FF000054FF0000150E700BF23
:1008300090F0000F04BF0021704730B54FF4806482
:1008400004F1320410F0004548BF40424FF000016F
:100850003EE700BF42004FEAE2014FEA31014FEAB2
:1008600002701FBF12F07F4393F07F4F81F0605101
:10087000704732F07F4208BF704793F07F4F04BF4C
:1008800041F40021704730B54FF4607401F0004529
:1008900021F000411CE700BF50EA010208BF704789
:1008A00030B54FF000050AE050EA010208BF70477A
:1008B00030B511F0004502D5404261EB41014FF4E3
:1008C000806404F132045FEA915C3FF4D8AE4FF0EB
:1008D00003025FEADC0C18BF03325FEADC0C18BFCE
:1008E000033202EBDC02C2F1200300FA03FC20FA1F
:1008F00002F001FA03FE40EA0E0021FA02F114446C
:10090000BDE600BF70B54FF0FF0C4CF4E06C1CEA84
:1009100011541DBF1CEA135594EA0C0F95EA0C0FF5
:1009200000F0DEF82C4481EA030621EA4C5123EA68
:100930004C5350EA013518BF52EA033541F4801197
:1009400043F4801338D0A0FB02CE4FF00005E1FB4A
:1009500002E506F00042E0FB03E54FF00006E1FB94
:1009600003569CF0000F18BF4EF0010EA4F1FF04D7
:10097000B6F5007F64F5407404D25FEA4E0E6D4117
:1009800046EB060642EAC62141EA55514FEAC52028
:1009900040EA5E504FEACE2EB4F1FD0C88BFBCF5A4
:1009A000E06F1ED8BEF1004F08BF5FEA500E50F155
:1009B000000041EB045170BD06F0004646EA01011B
:1009C00040EA020081EA0301B4EB5C04C2BFD4EB4D
:1009D0000C0541EA045170BD41F480114FF0000E46
:1009E000013C00F3AB8014F1360FDEBF002001F0B4
:1009F000004170BDC4F10004203C35DA0C341BDC2E
:100A000004F11404C4F1200500FA05F320FA04F0FF
:100A100001FA05F240EA020001F0004221F0004133
:100A200010EBD37021FA04F642EB06015EEA430EA6
:100A300008BF20EAD37070BDC4F10C04C4F12005D6
:100A400000FA04F320FA05F001FA04F240EA020089
:100A500001F0004110EBD37041F100015EEA430E5A
:100A600008BF20EAD37070BDC4F1200500FA05F27A
:100A70004EEA020E20FA04F301FA05F243EA0203F9
:100A800021FA04F001F0004121FA04F220EA020008
:100A900000EBD3705EEA430E08BF20EAD37070BD4E
:100AA00094F0000F0FD101F00046400041EB01012E
:100AB00011F4801F08BF013CF7D041EA060195F010
:100AC000000F18BF704703F00046520043EB0303CA
:100AD00013F4801F08BF013DF7D043EA06037047B7
:100AE00094EA0C0F0CEA135518BF95EA0C0F0CD0C2
:100AF00050EA410618BF52EA4306D1D181EA030108
:100B000001F000414FF0000070BD50EA410606BF01
:100B10001046194652EA430619D094EA0C0F02D146
:100B200050EA013613D195EA0C0F05D152EA03368B
:100B30001CBF104619460AD181EA030101F00041A9
:100B400041F0FE4141F470014FF0000070BD41F0F2
:100B5000FE4141F4780170BD70B54FF0FF0C4CF4CC
:100B6000E06C1CEA11541DBF1CEA135594EA0C0FEB
:100B700095EA0C0F00F0A7F8A4EB050481EA030E38
:100B800052EA03354FEA013100F088804FEA03331F
:100B90004FF0805545EA131343EA12634FEA0222ED
:100BA00045EA111545EA10654FEA00260EF00041AE
:100BB0009D4208BF964244F1FD0404F5407402D200
:100BC0005B084FEA3202B61A65EB03055B084FEA91
:100BD00032024FF480104FF4002CB6EB020E75EB8E
:100BE000030E22BFB61A754640EA0C005B084FEAB6
:100BF0003202B6EB020E75EB030E22BFB61A754633
:100C000040EA5C005B084FEA3202B6EB020E75EB7D
:100C1000030E22BFB61A754640EA9C005B084FEAF5
:100C20003202B6EB020E75EB030E22BFB61A754602
:100C300040EADC0055EA060E18D04FEA051545EAF1
:100C400016754FEA06164FEAC30343EA52734FEA9A
:100C5000C2025FEA1C1CC0D111F4801F0BD141EA13
:100C600000014FF000004FF0004CB6E711F4801F78
:100C700004BF01430020B4F1FD0C88BFBCF5E06F58
:100C80003FF6AFAEB5EB030C04BFB6EB020C5FEA68
:100C9000500C50F1000041EB045170BD0EF0004EBD
:100CA0004EEA113114EB5C04C2BFD4EB0C0541EAEF
:100CB000045170BD41F480114FF0000E013C90E6EC
:100CC00045EA060E8DE60CEA135594EA0C0F08BFB0
:100CD00095EA0C0F3FF43BAF94EA0C0F0AD150EAAF
:100CE00001347FF434AF95EA0C0F7FF425AF104642
:100CF00019462CE795EA0C0F06D152EA03353FF46A
:100D0000FDAE1046194622E750EA410618BF52EAE6
:100D100043067FF4C5AE50EA41047FF40DAF52EABA
:100D200043057FF4EBAE12E74FF0FF3C06E000BF57
:100D30004FF0010C02E000BF4FF0010C4DF804CD64
:100D40004FEA410C7FEA6C5C4FEA430C18BF7FEA24
:100D50006C5C1BD001B050EA410C0CBF52EA430C52
:100D600091EA030F02BF90EA020F0020704710F1D2
:100D7000000F91EA030F58BF994208BF90422CBF61
:100D8000D8176FEAE37040F0010070474FEA410C5A
:100D90007FEA6C5C02D150EA013C07D14FEA430C78
:100DA0007FEA6C5CD6D152EA033CD3D05DF8040BE9
:100DB000704700BF8446104662468C46194663461B
:100DC00000E000BF01B5FFF7B7FF002848BF10F1F2
:100DD000000F01BD4DF808EDFFF7F4FF0CBF012037
:100DE00000205DF808FB00BF4DF808EDFFF7EAFFB3
:100DF00034BF012000205DF808FB00BF4DF808ED6E
:100E0000FFF7E0FF94BF012000205DF808FB00BF62
:100E10004DF808EDFFF7CEFF94BF012000205DF8EC
:100E200008FB00BF4DF808EDFFF7C4FF34BF0120F9
:100E300000205DF808FB00BF4FEA410C7FEA6C5CC4
:100E400002D150EA013C0AD14FEA430C7FEA6C5CC4
:100E500002D152EA033C02D14FF0000070474FF03C
:100E6000010070474FEA410212F5001215D211D568
:100E70006FF47873B3EB625212D94FEAC12343F097
:100E8000004343EA505311F0004F23FA02F018BF19
:100E9000404270474FF00000704750EA013005D1E2
:100EA00011F0004008BF6FF0004070474FF00000A5
:100EB000704700BF0348044B834202D0034B03B189
:100EC00018477047840800208408002000000000B4
:100ED0000548064B1B1AD90F01EBA301491002D09C
:100EE000034B03B118477047840800208408002092
:100EF0000000000010B5064C237843B9FFF7DAFF75
:100F0000044B13B10448AFF300800123237010BDDC
:100F10008408002000000000DC90000808B5054BA4
:100F20001BB105490548AFF30080BDE80840FFF755
:100F3000CFBF00BF0000000088080020DC90000840
:100F400080B500AF3B4B5B693A4A43F48023536161
:100F5000384B5B69374A43F000535361354BDB6ACA
:100F6000344A43F40853D362334B1B68324A43F08C
:100F700003031360304BDB682F4A23F00303D36075
:100F80002E4B9B682D4A43F4003393602C4B9B6897
:100F90002B4A43F080539360142000F0B5F8284B9F
:100FA0009B68274A23F001039360254B9B68244AE2
:100FB00043F00043936000BF214B9B68002BFBDB99
:100FC0001F4B1B681E4A43F0010313601C4B9B68B8
:100FD0001B4A43F00103936000BF194B1B6803F0E9
:100FE0000103002BF9D0164B9B69154A23F4E073DB
:100FF0009361134B9B69124A43F480739361104BC6
:101000001B6B0F4A23F0070313630D4B1B6B0C4A3A
:1010100043F4407313630A4BDB68094A43F40053FB
:10102000D360074B9B68064A43F00403936000BFFC
:1010300080BD00BF001002400004004800070050BF
:101040000004005080B483B000AF0C4B7B6005E01F
:101050007B68013B7B607B68002B06D0084B1B68DC
:1010600003F00403002BF3D000E000BF044B1B6C23
:101070009BB218460C37BD4680BC704740420F00FB
:101080000004005080B500AFFFF7A0F8084B1B68C4
:10109000084AA2FB03239B09074A013B5360064B06
:1010A00000229A60044B07221A6000BF80BD00BF77
:1010B00000000020D34D621010E000E080B400AFCB
:1010C000044B1B680133034A136000BFBD4680BC5C
:1010D000704700BFA008002080B485B000AF7860E2
:1010E000084B1B68FB6000BF064B1A68FB68D31AED
:1010F0007A689A42F8D800BF00BF1437BD4680BC5A
:10110000704700BFA008002080B483B000AF7860B3
:1011100000E000BF7B685A1E7A60002BF9D100BF47
:1011200000BF0C37BD4680BC7047000080B582B060
:1011300000AF2F4BDB692E4A43F08053D3612D4B18
:101140001B682C4A43F4807313600520FFF7DCFF13
:10115000274B1B6A264A43F00103136242F21073C5
:101160007B6005E07B68013B7B607B68002B06D0E1
:101170001F4B1B6A03F00203002BF3D000E000BFFB
:101180001B4B1B6A1A4A23F440731362184B1B6AE9
:10119000174A43F480731362154B1B6A144A43F4D5
:1011A00000431362144BCA225A62134B53225A62F1
:1011B000114BDB68104A43F08003D36000BF0E4B35
:1011C000DB6803F04003002BF9D00B4B0B4A1A618C
:1011D000094BDB68084A23F08003D360064BFE22EC
:1011E0005A62054B64225A6200BF0837BD4680BD73
:1011F000001002400070004000280040FF007F0007
:1012000080B485B000AF03460A46FB711346BB713C
:10121000294BCA225A62284B53225A62264BDB685A
:10122000254A43F08003D36000BF234BDB6803F003
:101230004003002BF9D0FB79204AA2FB0323DB08F3
:10124000DBB21805FA791D4BA3FB0213D9080B4634
:101250009B000B445B00D31ADBB21B0440EA030281
:10126000BB791649A1FB0313DB08DBB21B0342EA7F
:101270000300BA79114BA3FB0213D9080B469B005C
:101280000B445B00D31ADBB21B020343FB600A4A28
:10129000FB681360084BDB68074A23F08003D360C8
:1012A000054BFE225A62044B64225A6200BF143777
:1012B000BD4680BC704700BF00280040CDCCCCCCE0
:1012C00080B487B000AFF860B9607A60224B1B68C9
:1012D0007B617B691B0DDBB203F00303DBB21A46B3
:1012E000920013445B00DAB27B691B0CDBB203F0A3
:1012F0000F03DBB21344DAB2FB681A707B691B0B75
:10130000DBB203F00703DBB21A46920013445B0022
:10131000DAB27B691B0ADBB203F00F03DBB21344C2
:10132000DAB2BB681A707B691B09DBB203F00703F2
:10133000DBB21A46920013445B00DAB27B69DBB27F
:1013400003F00F03DBB21344DAB27B681A7000BFFC
:101350001C37BD4680BC70470028004080B588B06F
:1013600002AF154A15491648FFF7AAFF00237B6014
:1013700007F1080300221A605A609A60DA60104B85
:101380001B78DBB21A460D4B1B78DBB219460A4BB1
:101390001B78DBB2381D00930B460A4901F060F858
:1013A0003A1D4FF6FF734821032000F02BFA00BFCF
:1013B0001837BD4680BD00BFA6080020A508002044
:1013C000A4080020F890000880B400AF184B5B69B7
:1013D000174A43F4003353614FF090431B684FF0BA
:1013E000904223F03F0313604FF090431B684FF08F
:1013F000904243F0150313604FF090439B684FF009
:10140000904223F03F0393604FF090439B684FF06E
:10141000904243F03F0393604FF090439B694FF03D
:10142000904243F00103936100BFBD4680BC70470A
:101430000010024080B400AF4FF090439B694FF022
:10144000904243F00203936100BFBD4680BC7047E9
:1014500080B400AF4FF090439B694FF0904243F44B
:101460000033936100BFBD4680BC704780B400AFBD
:101470004FF090439B694FF0904243F00403936117
:1014800000BFBD4680BC704780B400AF4FF09043B2
:101490009B694FF0904243F48023936100BFBD46A7
:1014A00080BC704780B500AF4FF090439B694FF010
:1014B000904243F0010393610A20FFF70DFE4FF0C5
:1014C00090439B694FF0904243F4803393610A202C
:1014D000FFF702FE4FF090439B694FF0904243F0BC
:1014E0000103936100BF80BD80B582B000AF0346A9
:1014F000FB71FFF7ADFFFB79184600F0E7FC00BF7A
:101500000837BD4680BD80B582B000AF0346FB7191
:10151000FFF790FFFB79184600F0D8FC00BF0837B2
:10152000BD4680BD80B500AFFFF74EFFFFF7BAFFA5
:101530000A20FFF7D1FDFFF7A7FF0A20FFF7CCFD38
:101540001120FFF7D1FF7820FFF7C6FD3A20FFF703
:10155000CBFF0520FFF7D7FF3620FFF7C5FF14208C
:10156000FFF7D1FF2920FFF7BFFF6420FFF7B4FD8D
:1015700000BF80BD90B585B000AF04460846114657
:101580001A462346FB800346BB800B467B801346EE
:101590003B80FB887F2B02D8BB889F2B01D900237F
:1015A0007DE07B88002B02D03B88002B01D10023FB
:1015B00075E0FA887B881344802B03DDFB88C3F138
:1015C00080037B80BA883B881344A02B03DDBB8853
:1015D000C3F1A0033B80FFF757FF2A20FFF784FFEA
:1015E0000020FFF790FFFB88DBB21846FFF78BFF68
:1015F0000020FFF788FFFB88DAB27B88DBB2134458
:10160000DBB2013BDBB21846FFF77DFF2B20FFF773
:101610006BFF0020FFF777FFBB88DBB21846FFF7B0
:1016200072FF0020FFF76FFFBB88DAB23B88DBB2A6
:101630001344DBB2013BDBB21846FFF764FF2C20FA
:10164000FFF752FFFFF7F6FE0023FB811FE00023A8
:10165000BB8111E03B8C1B0A9BB2DBB2184600F049
:1016600035FC3B8CDBB2184600F030FCB7F90C308F
:101670009BB201339BB2BB81B7F90C207B889A42A5
:10168000E8DBB7F90E309BB201339BB2FB81B7F9AF
:101690000E203B889A42DADBFFF7E8FE012318466A
:1016A0001437BD4690BD90B583B000AF04460846E0
:1016B00011461A462346FB800346BB800B467B80BF
:1016C00013463B802A20FFF70FFF0020FFF71BFF88
:1016D000FB88DBB21846FFF716FF0020FFF713FF69
:1016E0003B88DBB21846FFF70EFF2B20FFF7FCFE0E
:1016F0000020FFF708FFBB88DBB21846FFF703FFA7
:101700000020FFF700FF7B88DBB21846FFF7FBFEE7
:101710002C20FFF7E9FE00BF0C37BD4690BD80B519
:1017200082B000AF0346FB800B46BB8013467B8034
:10173000FB887F2B02D8BB889F2B01D9002314E0A4
:10174000BB88FA88B988F888FFF7ADFFFFF772FE0B
:101750007B881B0A9BB2DBB2184600F0B7FB7B8884
:10176000DBB2184600F0B2FB012318460837BD462D
:1017700080BD000090B587B000AF04460846114612
:101780001A462346FB800346BB800B46FB7013467C
:101790003B80FB78DB001A4A1344FB6000237B612B
:1017A00026E07B69FA6813441B78FB7200233B61D7
:1017B00018E0FA7A80213B6941FA03F31340002BC9
:1017C0000DD03B699AB2FB88134498B27B699AB2F8
:1017D000BB8813449BB23A881946FFF7A0FF3B69C8
:1017E00001333B613B69072BE3DD7B6901337B619F
:1017F0007B69072BD5DD00BF00BF1C37BD4690BD00
:101800008C91000880B586B000AFBA601A460346D6
:10181000FB810B46BB811346FB80FFF735FEFB893E
:10182000FB8214E0BB681A78FB88B989F88AFFF755
:10183000A1FFFB8A0833FB82FB8A782B04D9FB8942
:10184000FB82BB890833BB81BB680133BB60BB68CB
:101850001B78002BE6D1FFF709FE00BF1837BD4605
:1018600080BD000080B400AF104B5B690F4A43F4A9
:10187000002353610E4B1B680D4A43F080631360D5
:101880000B4BDB680A4A43F08063D360084B1B684C
:10189000074A43F080531360054BDB68044A43F06A
:1018A0008053D36000BFBD4680BC7047001002402B
:1018B0000008004880B588B002AF00F08BFB78616B
:1018C0003B1D7A690B49184600F0CAFD00230093BE
:1018D0000A23642270210A20FFF74CFE3A1D4FF6BE
:1018E000FF7370210A20FFF78DFF00BF1837BD4638
:1018F00080BD00BF1091000880B590B002AF00F02D
:1019000073FBFFF7BFFBFFF7ADFF4FF4165000F07E
:101910001BF900F069FAFFF705FE00F0F9FAFFF78E
:1019200005FCFFF70DFB07F1200300221A605A6047
:101930009A60002387F8373000F00EFA00F0EEF9D5
:10194000564B1A68FB6AD31AC72B04D9534B1B6832
:10195000FB62FFF7AFFF514B1A68BB6AD31AB3F5AE
:101960007A7F4FD34D4B1B68BB6200230093282323
:10197000782252210020FFF7FDFDFFF763FB0346AD
:1019800040F6E44203FB02F2454BA3FB0213D21ADA
:1019900052081344DB0A3B633B6BA3F28B33414A8F
:1019A000A2FB0323DB08FB623B463A6B3E49184629
:1019B00000F056FD3A464FF6FF7352210320FFF721
:1019C00021FF3B463A6B3949184600F049FD3B463A
:1019D000184600F04FF93B46FA6A3549184600F0C0
:1019E0003FFD3A464FF6FF735C210A20FFF70AFFDE
:1019F0003B46FA6A2F49184600F032FD3B4618462E
:101A000000F038F9254B1A687B6AD31AB3F57A7F50
:101A100032D3224B1B687B6297F8373083F0010387
:101A200087F8373097F83730002B13D04FF47843CE
:101A30000093142314228C216C20FFF79BFD0023BC
:101A400000930A23502246212820FFF793FDFFF739
:101A500085FC11E0FF230093142314228C216C20B9
:101A6000FFF788FD002300930A23502246212820F7
:101A7000FFF780FDFFF772FC084B1A683B6AD31A28
:101A8000B3F57A7FFFF458AF0B4B5B690A4A83F4D6
:101A900000535361014B1B683B624DE7A0080020D7
:101AA000010110008988888814910008209100089D
:101AB0002C910008389100080008004880B483B0D9
:101AC00000AF0346FB7197F90730002B0BDBFB7966
:101AD00003F01F02064997F907305B09012000FA5D
:101AE00002F241F8232000BF0C37BD4680BC70478E
:101AF00000E100E080B483B000AF03463960FB71C1
:101B000097F90730002B0ADB3B68DAB20C4997F9EA
:101B100007301201D2B20B4483F800230AE03B687D
:101B2000DAB20849FB7903F00F03043B1201D2B289
:101B30000B441A7600BF0C37BD4680BC704700BF0F
:101B400000E100E000ED00E080B582B000AF0346A8
:101B5000FB80394B5B69384A43F400335361364BA1
:101B60009B69354A43F4804393614FF090431B686F
:101B70004FF0904223F4402313604FF090431B68D2
:101B80004FF0904243F4002313604FF090431B68E2
:101B90004FF0904223F4401313604FF090431B68C2
:101BA0004FF0904243F4001313604FF090435B6892
:101BB0004FF0904223F4C06353604FF090439B6812
:101BC0004FF0904243F4201393604FF090435B6AD0
:101BD0004FF0904223F47F6353624FF090435B6A6F
:101BE0004FF0904243F4EE635362144B00221A60AC
:101BF000124B00225A60114B00229A60FB880F4A58
:101C00000F49B1FBF3F3D3600C4B1B680B4A43F055
:101C100020031360094B1B68084A43F00D0313604F
:101C200002212520FFF766FF2520FFF747FF00BFB1
:101C30000837BD4680BD00BF00100240003801409B
:101C400000A24A0480B483B000AF0346FB7100BF1A
:101C5000074BDB6903F08003002BF9D0044BFA79C2
:101C600092B21A8500BF0C37BD4680BC704700BFDA
:101C70000038014080B582B000AF786006E07B6834
:101C80005A1C7A601B781846FFF7DCFF7B681B78CC
:101C9000002BF4D100BF00BF0837BD4680BD000057
:101CA00080B483B000AF194BDB6903F02003002B35
:101CB00027D0164B9B8C9BB2FB71154B01221A70DF
:101CC000FB790D2B04D0134B1B78DBB21E2B0AD9EA
:101CD000104B1B78DBB21A460F4B002199540D4B69
:101CE00000221A700DE00B4B1B78DBB219460A4A32
:101CF000FB795354074B1B78DBB20133DAB2054B47
:101D00001A7000BF0C37BD4680BC704700380140D8
:101D1000C9080020C8080020A808002080B500AF2E
:101D2000094B1B78DBB2002B0BD00848FFF7A2FF52
:101D30000748FFF79FFF0748FFF79CFF024B002271
:101D40001A7000BF80BD00BFC90800204491000880
:101D5000A80800204C91000880B58EB000AF022288
:101D60001C491D4800F034FC0346002B2DD11B49B3
:101D7000194800F069FC78631949002000F064FC00
:101D800038631749002000F05FFCF862386B00F000
:101D9000CBF9B862F86A00F0C7F97862BB6ADBB2C7
:101DA0007A6AD2B211461846FFF72AFA381D7B6AC2
:101DB000BA6A0C4900F054FB3B1D1846FFF75AFF66
:101DC000054B00221A70012300E000231846383723
:101DD000BD4680BD50910008A8080020549100081D
:101DE000589100085C91000880B400AF354B5B69E6
:101DF000344A43F400335361324B9B69314A43F414
:101E0000805393614FF090431B684FF0904223F44E
:101E10007F4313604FF090431B684FF0904243F4B0
:101E20002A4313604FF090435B684FF0904223F0D9
:101E3000F00353604FF090439B684FF0904243F49F
:101E40002A4393604FF090431B6A4FF090429BB23D
:101E500013624FF090431B6A4FF0904243F0AA4345
:101E600043F4AA031362184B00221A60164B002297
:101E70005A60154B1B68144A43F004031360124B5D
:101E80001B68114A43F4007313600F4B1B680E4A22
:101E900043F4807313600C4B1B680B4A43F0080338
:101EA0001360094B5B68084A43F4E0635360064BD8
:101EB0001B68054A43F04003136000BFBD4680BC69
:101EC000704700BF001002400030014080B483B072
:101ED00000AF0346FB7100BF0B4B9B6803F002038E
:101EE000002BF9D0094AFB79137000BF064B9B68A1
:101EF00003F08003002BF9D1044B1B78DBB21846AA
:101F00000C37BD4680BC7047003001400C300140AA
:101F100080B400AF2C4B5B692B4A43F480235361A0
:101F2000294B5B69284A43F004035361274B1B6824
:101F3000264A23F440531360244B1B68234A43F47E
:101F400000531360214B1B68204A23F44043136065
:101F50001E4B1B681D4A43F4004313601B4B1B6A56
:101F60001A4A23F07F431362184B1B6A174A43F047
:101F700008531362164B00229A61154B00229A6097
:101F8000134B00221A62124B00221A60104B9B69FD
:101F90000F4A43F4807343F0010393610C4B9B6839
:101FA0000B4A43F003039360094B1B6A084A43F052
:101FB00011031362064B1B68054A43F001031360CB
:101FC00000BFBD4680BC70470010024000040048BE
:101FD0000008004080B400AF024B5B6A1846BD4663
:101FE00080BC70470008004080B500AF374B1B68CD
:101FF000364A23F007031360344B1B68334A43F01F
:1020000004031360324B1B68314A43F4803313607E
:1020100000BF2F4B1B6803F40033002BF9D02C4B6F
:102020001B682B4A23F08073136000BF284B1B688A
:1020300003F00073002BF9D1254B5B68244A23F091
:102040007F735360224B5B68214A43F4E013536073
:102050001F4B5B681E4A23F4C03353601C4B5B6804
:102060001B4A43F480335360194B5B68184A23F4CE
:10207000E0635360164B5B68154A43F4806353601A
:10208000134B1B68124A43F08073136000BF104B60
:102090001B6803F00073002BF9D00D4B5B680C4AF2
:1020A00023F0030353600A4B5B68094A43F00203C1
:1020B000536001E0FEF78AF8054B5B6803F00C0300
:1020C000082BF7D100BF00BF80BD00BF0020024039
:1020D00000100240DFF834D0FEF772F80C480D49CA
:1020E0000D4A002302E0D458C4500433C4188C4273
:1020F000F9D30A4A0A4C002301E013600432A242D9
:10210000FBD300F035FBFFF7F7FBFEE70080002074
:1021100000000020840800208C990008840800201A
:10212000E40B0020FEE700000A22002100F09CB82A
:10213000242B2DE9F84F43D8012B41D08046494844
:102140001F468E4675461EF801BB10F80B4014F072
:102150000804F7D1BBF12D0F6FD0BBF12B0F08BFD7
:102160009EF800B06FF0004908BF05F1020E73BB86
:10217000BBF1300F4BD00A273B460025B9FBF7F6E1
:10218000284607FB169A05E03AD007FB00C0012558
:102190001EF801BBABF1300CBCF1090F06D9ABF155
:1021A000410CBCF1190F19D8ABF1370C63451EDD9A
:1021B000B5F1FF3FECD08642E6D24FF0FF35E7E7BE
:1021C00000F0D0FA162303600020BDE8F88F102B32
:1021D000D3D1BBF1300F23D01F46CEE7ABF1610C5A
:1021E000BCF1190F03D8ABF1570C6345E0DC6B1C55
:1021F0002BD054B9002AE8D085BB1160BDE8F88F18
:10220000E245C2DA4FF0FF35C2E74042F2E79EF8FE
:10221000003003F0DF03582B08D008273B46ACE71B
:102220009EF8000000F0DF005828D5D110279EF856
:1022300001B03B460EF1020E9FE79EF800B04FF052
:10224000004905F1020E012491E72223C8F800306D
:1022500032B10EF1FF3148461160CFE78146F8E711
:102260004846B2E78D95000810B4044C84461346E6
:10227000206810BC0A466146FFF75ABF10000020D4
:10228000024A0349034800F0C9B800BF0400002017
:10229000A1520008180000200C4B4168994210B56B
:1022A000044601D002F0FCFFA168094B994202D01C
:1022B000204602F0F5FFE168064B994204D0204623
:1022C000BDE8104002F0ECBF10BD00BFCC080020FC
:1022D000340900209C0900202DE9F843314A324C92
:1022E0003249DFF8CC90DFF8CC80334F1160002505
:1022F00004232946082204F15C00C4E903352F4E6B
:10230000A560C4E90055C4E90555656600F012F9F9
:1023100004F15800C4E90749C4E90987E66200F0FE
:102320004FFA2946264B6367082204F1C400C4E92A
:102330001A55C4E91E552567C4F8CC50C4F880501E
:1023400000F0F8F804F1680304F1C000C4F8843028
:10235000C4E92298C4E9247600F032FA194BC4F893
:10236000DC30294604F596700822C4E93455C4E9E6
:102370003855C4F8D850C4F83451C4F8E85000F0C7
:10238000D9F804F1D003C4E93D87C4F8F09004F50E
:102390009470C4F8FC60C4F8EC30BDE8F84300F079
:1023A0000FBA00BF040A0020CC08002081220008D8
:1023B000A5240008C9240008092500082D250008C7
:1023C000090001001200020010B504460A4800F09E
:1023D000FBF9636B23B9094B094A1B68626323B19C
:1023E000BDE81040044800F0F1B9FFF775FFBDE803
:1023F0001040014800F0EAB9140A0020040A002045
:1024000099220008014800F0DFB900BF140A00203B
:10241000014800F0DBB900BF140A00202DE9F843A1
:102420000746884616464FF00009D6E90154013D9B
:1024300010D4A389012B08D9B4F90E3001332146F9
:10244000384602D0C04749EA0009013D6B1C04F13F
:102450006804EED13668002EE7D14846BDE8F8831F
:102460000EB430B59CB06FF000411FAB04910791E2
:102470000A4953F8042B029000240690084D08687E
:10248000019302A905951B9400F0DEFD029B1C70D0
:102490001CB0BDE8304003B0704700BF1000002002
:1024A0000802FFFF10B50C46B1F90E1000F02EF92E
:1024B000002803DB236D0344236510BDA38923F4A7
:1024C0008053A38110BD00BF2DE9F0410C46B1F946
:1024D0000C101F46CB05054616460BD421F480513F
:1024E000A1813B46B4F90E1032462846BDE8F041C2
:1024F00000F022B9B4F90E100223002200F0F0F827
:10250000B4F90C10EAE700BF10B50C46B1F90E1093
:1025100000F0E6F8B4F90C30421C0EBF23F48053EF
:1025200043F480532065A38110BD00BFB1F90E10A4
:1025300000F0C4B8830730B546D08418844604E060
:1025400003F8011B9D0704D09C46A4456346F7D1C0
:1025500030BD013A0244A2EB0C02032A29D9CCB2C5
:1025600004EB04240F2A04EB04442FD9A2F1100C2D
:102570002CF00F0C03F11005AC44C3E90044C3E98F
:10258000024410336345F8D112F00C0F02F00F0E25
:1025900018D02EF0030C9C44AEF104051A4642F804
:1025A000044B6245FBD125F0030404330EF0030213
:1025B0002344002ACCD0C9B21A4403F8011B934229
:1025C000FBD130BD7246F4E70346C6E79646E0E726
:1025D0008AB330B540EA0104A40786460B4617D1FA
:1025E000032A07D814E0043A23D01CF0803F20D1FE
:1025F000032A26D9DEF80040194653F8045BA4F1FB
:10260000013CAC4270462CEA040C0EF1040EEAD0F8
:1026100003780C78013AA34208BF121807D00CE0E7
:102620006BB110F8013F11F8014FA34205D1904260
:10263000F6D1002030BD10467047181B30BD18463B
:1026400030BD70461946E3E7024A12680123503252
:1026500000F002B81000002018B370B586468C4612
:102660001EF8015B01E0A54214D01CF8014B002CC0
:10267000F9D1DDB176460C4616F8015B00E063B196
:1026800014F8013B9D42FAD14DB100238EF8003081
:10269000166070BD6BB17046E0E7B646EAE72E46BD
:1026A000F6E710680028D8D1002070471560002098
:1026B00070BDC2F800E0037070BD00BF38B5074DB3
:1026C0000022044608462A6006F0B8FC431C00D0ED
:1026D00038BD2B68002BFBD0236038BD080A0020D2
:1026E00038B50D46084C8446114628461A46002344
:1026F0002360654606F0CAFC431C00D038BD236841
:10270000002BFBD02B6038BD080A002038B50D46E1
:10271000084C8446114628461A4600232360654625
:1027200006F0BCFC431C00D038BD2368002BFBD056
:102730002B6038BD080A002038B50D46084C844689
:10274000114628461A4600232360654606F0BCFC65
:10275000431C00D038BD2368002BFBD02B6038BD54
:10276000080A0020014B1868704700BF10000020C5
:1027700070B50F4B0F4DAB42A3EB050607D0B6105B
:10278000002455F8043B01349847A642F9D806F0D6
:10279000A5FC094D094B5E1BAB424FEAA60606D0CD
:1027A000002455F8043B01349847A642F9D870BD7F
:1027B000809900088099000880990008889900088D
:1027C000704700BF704700BF704700BF704700BF31
:1027D000024B13B1024800F005B87047000000003A
:1027E0007D550008002301461A46184602F01EBF18
:1027F0002DE9F84306460820894602F0D3FEDFF8AB
:102800009C800546304600F013FCD8F808305F681D
:1028100027F00307A7F11104A4EB09042C44B4FB2F
:10282000F5F4013C05FB04F4A54208DC0021304628
:1028300002F092FED8F808303B44984205D030466A
:1028400000F0FCFB0020BDE8F8836142304602F056
:1028500083FE01300FD0124AD8F808303F1B47F0F2
:1028600001075F60136830461B1B136000F0E6FB36
:102870000120BDE8F8830021304602F06DFED8F853
:102880000820831A0F2BDADD43F001035360054B58
:1028900003491B68C01A0860D1E700BF2802002066
:1028A0001C0A00201C02002000295BD0F8B50C4651
:1028B000074600F0BDFB54F804CC744DA4F10802A7
:1028C0002CF00103D118A8684E68884226F0030650
:1028D0000CF0010E7ED088194E60406800F00100B7
:1028E000BEF1000F2FD154F8084C121B23449468FA
:1028F00005F1080C644562D0D2F80CE0C4F80CE095
:10290000CEF8084000287FD043F0010050600B60F3
:10291000B3F5007F2FD2D90868685C090131012323
:1029200009B2A34003436B6055F83100906005EB9A
:10293000C103083BD36045F83120C2603846BDE88A
:10294000F84000F07BBB70B9334405F1080C88688F
:10295000604543F0010471D0C968C160886054606B
:10296000D350D5E770474CF00101B3F5007F44F830
:10297000041CD350CFD3B3F5206F4FEA532045D278
:10298000980900F1390109B200F13804C90068184A
:1029900069580838884203D157E08968884204D0D2
:1029A0004C6824F003049C42F7D8C868C2E90210BE
:1029B00082603846CA60BDE8F84000F03FBB88BB83
:1029C0001E44D1E90213CB60996046F001035360C5
:1029D0009651B3E71E44BEF1000F07D154F8083CEE
:1029E000D21A1E44D2E90213CB60996046F001036B
:1029F0005360274BAA601B68B3429FD8254B3846CB
:102A00001968FFF7F5FE99E73344A0E714280ED9BB
:102A1000542821D8180B00F16F0109B200F16E049F
:102A2000C900B4E743F0010050600B6086E700F195
:102A30005C0109B200F15B04C900A8E7C5E9042202
:102A4000C2E902CC5460D35078E76E68A410012329
:102A5000A34033436B60A9E7B0F5AA7F07D8D80B32
:102A600000F1780109B200F17704C9008FE740F264
:102A70005451884206D8980C00F17D0100F17C0485
:102A8000C90084E74FF47E717E2480E7280200208D
:102A9000200200204C0A00202DE9F04F01F10B0527
:102AA000162D83B0064623D8102900F2B48000F01A
:102AB000BFFA102518230220B84F3B44A3F10802A7
:102AC0005C68944200F064816368E268A16823F066
:102AD0000303CA602344304691605A6842F0010201
:102AE0005A6000F0ABFA0834204603B0BDE8F08F1E
:102AF00035F0070500F18F80A94200F28C8000F0CC
:102B000097FAB5F5FC7FC0F0B8815FEA552E00F06A
:102B10008980BEF1040F00F270814FEA951E0EF11C
:102B2000390003B20EF1380EDB009C4F3B44A3F199
:102B3000080C5C68A44507D10DE0002AE16880F22A
:102B400021818C4507D00C46636823F003035A1B90
:102B50000F2AF2DD7046DFF848823C69444500F0F8
:102B6000FE80636823F0030CACEB05030F2B00F32E
:102B70008981002BC7E9048880F27381BCF5007F4E
:102B8000D7F804E080F018814FEADC03013319B272
:102B90004FEA5C1C012303FA0CF357F83120A260C2
:102BA0004EEA030E07EBC103083BE360C7F804E0FD
:102BB00047F83140D46083104FF0010C0CFA03FC4D
:102BC000F44535D81CEA0E0F08D120F003004FEA77
:102BD0004C0C1CEA0E0F00F10400F8D007EBC00A01
:102BE000D6468146DEF80C300BE0596821F003012F
:102BF0004A1B0F2A1C46DB6800F30F81002A80F273
:102C000023819E45F1D109F1010919F0030F0EF15D
:102C1000080EE7D161E10C2333600024204603B0A5
:102C2000BDE8F08F4FF4007340204FF03F0E7CE77B
:102C3000BC68636823F00309A94504D3A9EB050325
:102C40000F2B00F38F80574B1B68082003F11008EF
:102C500004EB0903009302F0A5FC534A1368013307
:102C6000A844834605D008F1FF388044434203EA74
:102C700008084146304602F06FFCB0F1FF3F4A4A77
:102C8000824600F01B8104EB0903834200F21481A9
:102C9000464B186840440BF1FF3C186000F072810D
:102CA0001168013100F07A8104EB0902AAEB0202FB
:102CB00002441A601AF00702CDE9002300F03281C5
:102CC000C2F108029244D04408EA0C015A44521A54
:102CD00002EA0C0B5946304602F03EFC421C019BB6
:102CE00000F07981A0EB0A0000EB0B081868C7F828
:102CF00008A048F001025844BC42CAF804201860F9
:102D000016D0B9F10F0F40F24C816168A9F10C02A5
:102D100022F0070201F00101114361604FF0050C40
:102D2000A1180F2AC1E901CC00F25D81DAF8042074
:102D30001F4B1968814238BF18601E4B19688142C9
:102D400038BF1860544622F00308A845A8EB0503D5
:102D500001D30F2B06DC304600F070F95DE7D7F8A1
:102D600004E028E7621943F0010345F001056560BE
:102D70003046BA60536000F061F90834204603B071
:102D8000BDE8F08FA2682344D16030468A60A4E693
:102D9000DC68A3427FF498AE0230DCE62802002013
:102DA000300200204C0A00201C0200201C0A0020D7
:102DB000480A0020440A0020BCF5206F4FEA5C223C
:102DC00072D3142A00F2C18002F15C031BB25B32A1
:102DD000DB00F918FB580839994203D198E09B6849
:102DE000994204D05A6822F003026245F7D8D968A4
:102DF000C4E902318C60DC60DDE6BEF1140F60D9FD
:102E0000BEF1540F00F2AB804FEA153E0EF16F0099
:102E100003B20EF16E0EDB0087E6D4F808C0304630
:102E2000661945F001056560CCF80C30C3F808C0A0
:102E300042F00103C7E90466C6E902887360625084
:102E400000F0FCF80834E9E6214430464A6842F0D4
:102E500001024A6054F8082FD3609A6000F0EEF83F
:102E6000DCE6A4443046DCF8043043F00103CCF83F
:102E7000043000F0E3F80834D0E6E808431C1BB245
:102E8000DB0019E6621943F0010145F001056560B8
:102E90003046C7E90422C2E90288516044F80C3088
:102EA00000F0CCF80834B9E64FEA9C1202F139037D
:102EB0001BB23832DB008CE7BC425CD0BC68626875
:102EC00041E70EF15C0003B20EF15B0EDB002CE675
:102ED0005AF80839534540F0A68010F0030F00F16E
:102EE000FF30F5D17B6823EA0C037B604FEA4C0C82
:102EF0009C453FF69DAEBCF1000F04D198E64FEA29
:102F00004C0C09F104091CEA030FF8D0484665E6A9
:102F100092104FF0010C0CFA02F24EEA020EC7F8C2
:102F200004E065E70AEB080202EA0C02ABEB0202DE
:102F300002EA0C0B5946304602F00EFB431C019B83
:102F40007FF4D0AEDDF800B0D0E6542A2DD84FEA99
:102F50001C3202F16F031BB26E32DB0039E7BEF5A3
:102F6000AA7F2DD84FEAD53E0EF1780003B20EF1BC
:102F7000770EDB00D9E52D4B186840440BF1FF3C80
:102F800018608DE61AEA0C0F7FF48AAED7F808A015
:102F9000C84448F00102CAF80420C9E6C2F800A0FB
:102FA00088E60123CAF80430D5E6B2F5AA7F25D811
:102FB0004FEADC3202F178031BB27732DB0008E71C
:102FC00040F254539E4524D8AB0C03F17D0003F12D
:102FD0007C0EC300A9E5009A083A9044A8EB0A08C1
:102FE0004FF0000B82E6304604F108010093FFF732
:102FF0005BFC009BD7F808A0186897E640F2545392
:103000009A420CD84FEA9C4202F17D03DB007C32ED
:10301000DFE64FF47E737F204FF07E0E85E54FF4A0
:103020007E737E22D5E67B6860E700BF1C0A002025
:103030000148FFF7C9BB00BF0C0A00200148FFF799
:10304000C5BB00BF0C0A00202DE9F04FDBB00C46D9
:103050000A9115460E93834602F07AFA0368179395
:103060001846FDF78DF90021169008222AA8FFF7CF
:1030700061FAA389190603D52369002B01F0AC80FE
:1030800000239E46CDE92F33CDE91AEE31AB1A4627
:1030900000242E930023CDE91234CDF860E0CDF862
:1030A00064E0CDF820E01446CDF844E02F463D46DC
:1030B000694BD3F8CC6102F045FA2AAA0346009284
:1030C00026A92A465846B047002800F09880C0F24A
:1030D0008E80269A252A034601D01D44E8E7B5EBE9
:1030E0000708064640F08F8000234FF0FF328DF82E
:1030F0008F309A46099301352B780792013599460E
:10310000A9F120035A2B00F2A980DFE813F03B025B
:10311000A700A7003702A700A700A7001A02A70070
:10312000A700E501F401A700F001FD01A700F901E6
:103130005B005B005B005B005B005B005B005B00B7
:103140005B00A700A700A700A700A700A700A70093
:103150001C01A7007201F9021C011C011C01A7003F
:10316000A700A700A700F502A700A7004502A70037
:10317000A700A700AF01A7009B02A700A700BB07FD
:10318000A700A700A700A700A700A700A700A70007
:103190001C01A70072015D011C011C011C01190327
:1031A0005D016C00A7003203A700230367033C0303
:1031B0006C00A700AF016A00D402A700A7002D0889
:1031C000A7006A00A9F13003002215F8019B02EB69
:1031D000820203EB4202A9F13003092BF5D90992CF
:1031E0008EE72B788AE72B784AF0200A86E70822B8
:1031F00000212AA8FFF79EF901231D4458E7B5EBEB
:103200000708064610D02F9A309B01324344072A04
:10321000C4E9007830932F9215DC0834089B4344AE
:103220000893002E7FF460AF309B002B41F04C835D
:103230000A9B9B8903F04003002B41F0828708988A
:103240005BB0BDE8F08F0A992EAA584601F0FCFF4A
:103250000028EDD131ACE1E730060020B9F1000FD4
:10326000E2D00023CDE90F3301228DF804918DF8CF
:103270008F300B930C920793149341AF0692309EBC
:103280001AF08403314600F0E3809DF88F2002B3EA
:103290002F984FF0000801300122013662600728A4
:1032A0000DF18F02CDE92F06226000F3058408346A
:1032B000B8F1000F0DD02F98013024AA02362260F9
:1032C00007284FF00202CDE92F06626000F3E88381
:1032D0000834802B00F0EC82079B0C9AA3EB0208C9
:1032E000B8F1000F00F32C831AF4807F40F089823C
:1032F0000C9B63601E442F9B27600133072B309685
:103300002F9300F3758308341AF0040F05D0099B3E
:10331000069A9F1A002F00F3DD83DDE90832069933
:103320008A42ACBF9B185B180893002E40F0408384
:1033300000232F930B9B1BB10B995846FFF7B4FA50
:1033400031AC2F46B3E60E9B073323F00701F1E8BB
:103350000223CDE91223139B1E9223F000431F93F7
:103360000E91B54BDDE91E014FF0FF32FDF764FD14
:10337000002840F02D86DDE91E01AF4B4FF0FF32F3
:10338000FDF73CFD0646002840F02286DDE91201EB
:10339000002200232AF0800AFDF726FD002841F0D4
:1033A00046819DF88F30B9F1470FCCBFA34FA44F92
:1033B000002B41F05E860322CDE90F330B930C9274
:1033C0000793149306925AE71AF0200F40F0A9854C
:1033D0000E9A1AF0100F52F8046B41F024871AF07D
:1033E000400F0E9201F0098146F3C038434636B2D1
:1033F00096E10E9BB9F1430F03F1040603D01AF0D6
:10340000100F00F0C286082200212CA8FFF792F8C6
:103410000E9B41AF1A6839462CAB584603F0F8FDB5
:10342000034601330C9001F087860C9B23EAE3737B
:10343000069300230E96309E8DF88F30CDE90F3322
:103440000B93079314931AF0840331467FF41DAF56
:10345000099A0698A2EB0008B8F1000F00F3328435
:103460009DF88F20002A3FF437AF11E7DDF8388050
:1034700058F8047B00238DF88F30002F00F09B86D6
:10348000B9F1530F01F01A801AF010030F9341F0B5
:103490001580079B002BC1F222821A460F993846ED
:1034A000FCF706FF9DF88F300B90002801F06D852A
:1034B0000B9AD21B0C9222EAE272069213B11346C7
:1034C000013306930F9BCDF8388007931493109324
:1034D0000B934FF07309D2E60E9B53F8042B09921D
:1034E000002A80F21685099A0E93524209922B788F
:1034F0004AF0040A02E62B238DF88F302B78FDE585
:103500002B784AF0800AF9E5294611F8019BB9F1B8
:103510002A0F01F02586A9F13003092B98BF00225C
:1035200001F24C8411F8019B02EB820203EB420290
:10353000A9F13003092BF5D942EAE27307930D464E
:10354000DEE5584602F004F8436819931846FCF784
:1035500017FF1B900646584601F0FAFF81682B784A
:103560001A91002E3FF4CAAD00293FF4C7AD0A7886
:10357000002A3FF4C3AD4AF4806ABFE52B784AF0D5
:10358000010ABBE59DF88F202B78002A7FF4B6ADA9
:1035900020228DF88F20B1E51AF0200F4AF010009C
:1035A00000F0D4840E9B073323F007031A465968B2
:1035B00052F8083B0E9200228DF88F20079A002ABD
:1035C00018DB53EA010220F4906A15D1079A9AB9E0
:1035D00010F001031A46069300F0368730238DF869
:1035E0006731079B0C92CDE90F3314930B930DF2C7
:1035F000671744E620F4806A5AAF03F00702DB083D
:1036000043EA4173C908303253EA0106384607F8E5
:10361000012DF2D11AF001010F9140F02283079A97
:1036200014915AABDB1B9A42B8BF1A460C93069210
:1036300010910B9123E600BFFFFFEF7F94960008E7
:10364000909600081AF0200F4AF0100138D10E9B16
:103650001A1D0E9B07981B684FF0000840458DF817
:103660008F801E46C0F2828521F0800A002B00F078
:10367000A1840E920A2E78F1000380F0B58306F142
:103680003003DBB2079A8DF86731012AB8BF0122F7
:1036900006929DF88F3001220C920DF26717002BD5
:1036A00001F05885069B013306930023CDE90F33C3
:1036B0000B931493E3E51AF0200F00F06484514655
:1036C0000E9B073323F007031A46D3F8048052F801
:1036D000086B0E9200238DF88F30079B002BC0F2F1
:1036E000468556EA080321F0800AC3D1079B002BC8
:1036F00000F065840026C2E72B784AF0080AFDE452
:103700001AF0200F4AF0100300F00E840E9A0732D0
:1037100022F007029A46536852F8086B0E929846B8
:10372000002BC0F25083079A002AA3DB56EA080355
:103730002AF0800A9ED1002A01F04B803023A1E7B5
:103740002B78682B03BF6B784AF4007A01354AF076
:10375000400AD3E40E9A1AF0200F02F1040300F09D
:10376000FD83126808991160C91751600E932F46A6
:103770009DE42B786C2B03BF6B784AF0200A01354F
:103780004AF0100ABAE40E9A079F52F8040B00217F
:1037900047F630038F42ADF890308DF88F10034616
:1037A000C0F2E8842AF0800646F0020A002840F0C1
:1037B000E384002F01F0148030238DF8673101235A
:1037C0000697CDE90F0084460E920B9014900DF2EF
:1037D00067174FF078090C9300F0A9BC1AF0200F7E
:1037E00040F0CE830E9A1AF0100152F8043B41F0DB
:1037F000FA841AF0400000F011879BB20E925046F6
:10380000D9E6B9F1650F40F3FD80DDE91201002230
:103810000023FDF7DFFA002800F09F812F9BB34AB9
:103820002260013301360122072B30962F9362600C
:1038300000F338860834259B119A934280F2648302
:10384000169B179A1E44C4E900232F9B3096013320
:10385000072B2F9300F3A3840834119B5F1E002FC6
:103860007FF752AD102F2F9B41F30D84A049DDF857
:103870002890159132464FF010080E4604E00834A7
:10388000103F102F40F3A98001331032072BC4E9F9
:103890000068CDE92F32F2DD2EAA4946584601F0E4
:1038A000D3FC002840F08C80DDE92F3231ACE7E713
:1038B000099B069AA3EB0208B8F1000F7FF70CAD45
:1038C000B8F1100F2F9A41F3D082DFF824C2CDF85F
:1038D00054C02146304610232E4664460A9D06E019
:1038E000A8F11008B8F1100F01F1080118DD01323C
:1038F0001030072AC1E90043CDE92F20F0DD2EAAC0
:103900002946584601F0A0FC002859D1A8F110081A
:10391000B8F1100FDDE92F2031A94FF01003E6DCDC
:1039200035460C4606460132159B23604644072A5D
:10393000CDE92F26C4F8048000F3EF850834CBE4EA
:103940006B4B2F9A1593B8F1100F24DD21461023ED
:103950000A9C06E0A8F11008B8F1100F01F1080167
:1039600018DD013262481036072AC1E90003CDE9AB
:103970002F26EFDD2EAA2146584601F065FCF8B946
:10398000A8F11008B8F1100FDDE92F2631A94FF08A
:103990001003E6DC0C460132159B23604644072ADF
:1039A000CDE92F26C4F8048000F3018208349BE49B
:1039B0000A992EAA584601F047FC00283FF4B8ACFB
:1039C0000B9B002B3FF434AC0B995846FEF76CFF71
:1039D0000A9B9B8903F040032EE416460133159A97
:1039E00022603E44072B6760CDE92F367FF78BAC12
:1039F0000A992EAA584601F027FC0028E0D1309EF3
:103A000031AC81E42F9B03F10108119B012B06F1DE
:103A1000010604F1080940F33B810123B8F1070FC7
:103A2000CDE92F862760636000F36182169B179AA9
:103A300008F101081E44B8F1070FC9E90023CDE9D8
:103A40002F8600F3478209F10809119BDDE9120175
:103A50005C1E00220023FDF7BDF9002840F07C81A8
:103A600008F1010801372644B8F1070FCDE92F8688
:103A7000C9F80070C9F8044000F3178109F108097A
:103A8000189AC9F8042008F101031644072B28AA44
:103A9000CDE92F36C9F80020AADC09F1080433E487
:103AA0000A9915932EAA584601F0CEFB002887D11B
:103AB000309E159B31AC0CE40A9915932EAA5846FA
:103AC00001F0C2FB00287FF47BAF309E159B31AC28
:103AD000FFF7EEBB074A2F9B1592102F28DDAA4651
:103AE000DDF828904FF0100815460AE0D09600083F
:103AF0003898000848980008103F102F04F1080477
:103B000015DD01331036072BC4E90058CDE92F36F7
:103B1000F2DD2EAA4946584601F096FB00287FF4B4
:103B20004FAF103F102FDDE92F3631ACE9DC5546A1
:103B30000133159A3E44072BC4E90027CDE92F36FF
:103B40007FF7EBAB0A992EAA584601F07DFB0028BF
:103B50007FF436AF309EFFF7E0BB2599002940F394
:103B60004E84DDF83C90119B9945A8BF9946B9F168
:103B7000000F0ADD2F9B01334E44072BC4E9007967
:103B800030962F9300F370870834DDF83C80B9F14C
:103B9000000FA8BFA8EB0908B8F1000F00F32B83B2
:103BA0000F9B1AF4806F3B4440F04E83259A119985
:103BB0008A4203DB1AF0010F00F01F86169917984E
:103BC0000E44C4E900012F993096013107292F9145
:103BD00001F364800834119907EB0108A8EB03088E
:103BE0008F1AB845A8BFB846B8F1000F0BDD2360A7
:103BF0002F9BC4F8048001334644072B30962F9343
:103C000001F3CD800834B8F1000FA8BFA7EB080777
:103C1000002F7FF779AB102F2F9B41F33482C849D7
:103C2000DDF82890159132464FF010080E4604E05A
:103C30000834103F102F7FF7D0AE01331032072B1E
:103C4000C4E90068CDE92F32F2DD2EAA4946584674
:103C500001F0FAFA00287FF4B3AEDDE92F3231AC7F
:103C6000E7E7302A00F052843023023807F8013C9D
:103C70005AAB00221B1A0B920C9307460799149219
:103C80009942B8BF1946CDE90F220691FFF7F7BA5E
:103C90001AF0010F7FF4C1AE0123B8F1070FCDE98F
:103CA0002F86276063607FF7EBAE0A992EAA5846ED
:103CB00001F0CAFA00287FF483AEDDE92F860DF10A
:103CC000C409DDE62F9AB8F1100F41F33480DFF814
:103CD00074C2CDF854C0CDE92053204610260A9C6A
:103CE000654606E0A8F11008B8F1100F00F10800D1
:103CF00017DD01321031072AC0E90056CDE92F2126
:103D0000F0DD2EAA2146584601F09EFA00287FF4E5
:103D100057AEA8F11008B8F1100FDDE92F2131A836
:103D2000E7DCDDE92053044615982060501C08EBC1
:103D300001060728CDE92F06C4F8048000F38D831F
:103D40009DF88F200834002A40F0E780002B3FF4D4
:103D5000C3AA1346FFF7B0BA119B012B7FF790AEB1
:103D6000112B41F3F38176491591324643461027D2
:103D7000DDF828800E4605E009F10809103C102CFA
:103D800040F3138401331032072BC9E90067CDE9F2
:103D90002F32F1DD2EAA4146584601F055FA00288F
:103DA0007FF40EAEDDE92F320DF1C409E6E70A9982
:103DB0002EAA584601F048FA00287FF401AE309E42
:103DC00031ACFFF791BA2D238DF88F30079B7642E7
:103DD00068EB4808002BFFF64DAC0A2E78F1000383
:103DE0002AF0800AFFF44BAC0AF48063CDE90B594A
:103DF0000694DDF868904FF0000C5AA91C4626E0A6
:103E000016EB0803504843F10003A0FB032020F009
:103E1000030202EB90029B1AF31A4B484FF0CC328C
:103E2000B646454602FB03F268F1000800FB082293
:103E3000A3FB0063BEF10A0F13444FEA560675F167
:103E40000005394646EAC3764FEA53082DD33E4D66
:103E500016EB080343F10003A5FB032020F0030247
:103E600002EB90029B1AF31AA3FB053268F10000E3
:103E70005B0805FB002243EAC27303EB8303A6EB56
:103E8000430330330CF1010C01F8013C4F1E002CB0
:103E9000B6D099F800306345B2D1BCF1FF0FAFD076
:103EA0000A2E78F1000380F02F845AAB0799069C04
:103EB000CDF86890DB1B1A469142B8BF1146DDF879
:103EC00030900B9D0C93CDF844C09DF88F30069137
:103ED000FFF7E5BB0A992EAA584601F0B5F900286C
:103EE0007FF46EADDDE92F860DF1C409ADE50A99C9
:103EF0002EAA584601F0A8F900287FF461ADDDE94B
:103F00002F860DF1C40991E51AF0010F3FF4FCA9C9
:103F100096E40E932B78FFF7F1B898460023FFF74D
:103F2000BAB95346FFF7F2BB0E9A04320E990E92BD
:103F30000E684FEAE6789A464346FFF7F1BB00BFAA
:103F40003898000848980008CDCCCCCC0E9B1A1DA0
:103F50000E9B0E921B680021FFF72DBB1AF0100F6D
:103F600040F0F4821AF0400F40F0A4841AF4007F6D
:103F700000F0EC820E9A089912681170FFF7F6BBF8
:103F80005046FFF70FBB0E9A1AF0100852F8043B88
:103F900041F046811AF0400100F019839EB2079B60
:103FA0008DF88F80002BFFF664AB2AF0800A002E7C
:103FB0007FF45FAB079B0E92002B7FF49BABCDE9A8
:103FC0000F330C93149306930B935AAFFFF757B923
:103FD000DDE9120102460B46FCF72EFF06460028DB
:103FE00041F03080B9F1610F00F0AA85B9F1410FBD
:103FF00000F0AA86079B013300F0A284B9F1670F95
:10400000139B4AF4807800F07687B9F1470F00F0EF
:1040100072870B90DDE91212002AC0F21E8700237E
:104020001593DDE91223CDE91C23A9F14103252BCA
:1040300000F2FA83DFE813F03507F803F803F8031A
:104040009004FC04F803F803F803F803F803F803FA
:10405000F803F803F803F803F803F803F803F80388
:10406000F803F803F803F803F803F803F803F80378
:10407000F803F803F803F8033507F803F803F80327
:104080009004FC04B74E1AF0200100F094810E9BBE
:10409000073323F007031A46596852F8083B0E927B
:1040A0001AF0010200F0668153EA010200F0EA8191
:1040B00030228DF8902000228DF88F20079A8DF8FD
:1040C0009190002AC0F291812AF4906242F0020A93
:1040D00003F00F020AF00200B25C8DF867211B09A1
:1040E00043EA01730A0953EA11110DF267170BD065
:1040F00003F00F011B09715C07F8011D43EA02730D
:10410000120953EA0201F3D1079A5AAB4FF0000C9F
:10411000DB1B9A42CDE90FCCB8BF1A460C9306922E
:10412000CDF82CC0CDF850C000283FF4A8A8069BBD
:10413000DDE92F06023306931AF084033146024666
:1041400008D1DDF824E0DDF81880AEEB0808B8F1FE
:10415000000F07DCBCF1000F3FF4AEA84FF00208DF
:10416000FFF799B80223AEE57F4E8CE70E928A46A0
:10417000FFF780BA4AF0020A0E927B4E03F00F025C
:104180000220B25C4FF07809A7E70E9B1B688DF800
:104190000431012306930C9341AFFFF74AB90A9902
:1041A0002EAA584601F050F800287FF409AC309E42
:1041B00031ACFFF752BB079BCDF83880062B3A464F
:1041C00028BF0623CDE90B730797CDE90F22674F70
:1041D00006931492FFF753B840215846FEF75CFC53
:1041E0000A9B18601861002801F00B800A9A40238E
:1041F0005361FEF745BFB8F1100F2F9B40F3BB870B
:104200005B481590224631460A9C4FF0100906463D
:1042100006E00832A8F11008B8F1100F40F36482EC
:1042200001331031072BC2E90069CDE92F31F0DDF0
:104230002EAA2146584601F007F800287FF4C0ABAB
:10424000DDE92F3131AAE5E7119ADDF85080CDF88C
:1042500054A0BA18079222461C46109BDDF86890BD
:10426000DDF828A00F95002B314614971B9E31DDF9
:10427000B8F1000F40F3108108F1FF382F98199B17
:10428000013031440728C2E9003630912F9000F305
:10429000A1800832079B99F800001F1B8742A8BF26
:1042A0000746002F0CDD2F98013039440728C2E95A
:1042B000004730912F9000F33C8199F800000832BC
:1042C000002FACBFC51B0546002D15DC0444109B18
:1042D000002BCDDCB8F1000FCEDC2346149F0F9DE0
:1042E000DDF854A0CDF868901446119ABA1893429C
:1042F0000E4628BF134659E4102D2F981C4B23DD82
:104300000C9410272C461D4604E0103C102C02F1A2
:10431000080216DD0130164B10310728C2E90037BC
:10432000CDE92F01F1DD2EAA5146584600F08CFF51
:1043300000287FF445AB103C102CDDE92F0131AA99
:10434000E8DC2B4625460C9C1360013029440728E5
:10435000CDE92F01556000F3798399F80000083208
:104360000444B4E7B4960008A0960008C896000874
:10437000389800088DF88F20079A002A37DB53EA17
:1043800001022AF4906A7FF4A3AE079A002A00F093
:10439000E380012A33788DF86731B8BF012200230A
:1043A00006920122CDE90F330B930C9214930DF278
:1043B0006717FEF764BF0E9A52F8043B0E921AF08C
:1043C00010027FF46DAE1AF0400000F021819BB224
:1043D000114665E62EAA5146584600F035FF0028E2
:1043E0007FF4EEAA309931AA54E74AF0020A03F0AA
:1043F0000F020AF00200B25C2AF4806A6DE62F9B7D
:10440000B34A2260013301360122072B30962F93E5
:10441000626000F3D2810834002940F0A780119A2D
:104420000AF0010313433EF46FAF169B179A1E4424
:10443000C4E900232F9B30960133072B2F9300F301
:10444000728204F10802A2E0079B0C93CDE90F33BE
:1044500014930B935AAFFEF712BF0A9915932EAA25
:10446000584600F0F1FE00287FF4AAAA9DF88F209C
:10447000309E159B002A71D0984631AC03462F9888
:10448000FEF709BF079B002083428DF88F00C0F222
:1044900023812AF4906A78E7109B013B09F1FF39E8
:1044A0001093EBE60A992EAA584600F0CDFE00289C
:1044B0007FF486AA309E31ACFFF7BDB908220021F7
:1044C0002CA82797FEF736F8079B002BC0F2C38075
:1044D000002606940B9534461D460EE041A9584629
:1044E00002F096FD411C204400F02985A84209DC19
:1044F00006F1040600F043850446279A92592CAB36
:10450000002AEBD10C940B9D069CB2E05AAB002222
:10451000DB1B0B920C93FFF7B1BB0A992EAA5846EE
:1045200000F092FE00287FF44BAA309E31ACFEF7DB
:10453000D3BE2EAA5146584600F086FE00287FF4CE
:104540003FAA99F80000309931AAB9E60E9A089965
:1045500012681160FFF70AB9079B30E5002B00F0E5
:1045600056812F98134631ACFEF7A6BE169B179ABC
:104570001E44C4E900232F9B30960133072B2F9351
:1045800000F3D18104F108020029C0F21C841199C2
:10459000176001330E44072BCDE92F3651603FF7EA
:1045A00027AA02F10804FEF7AFBE1646984608F1A6
:1045B0000108159BC9F800302644B8F1070FCDE972
:1045C0002F86C9F804407FF759AAFFF76EBB1AF48B
:1045D000007840F01F8107998DF88F8000291E46D2
:1045E000FFF647A82AF0800A002B7FF442A80B466A
:1045F0000E9200297FF47EA8E1E41AF4007F16BF32
:1046000046F3C0184FEAE67876B24346FFF788B81B
:104610001AF400711CBFDBB2014641E51AF40071C7
:104620001CBF0146DBB20E925046FEF7C4BF2D23DD
:10463000B9F1470F8DF88F300B963346079640F34C
:104640003F810322234F0C92CDE90F3314930423AF
:104650000693FEF714BE2CAB00930023194627AA3D
:10466000584602F0FBFC034601330C9000F06784CF
:1046700027970C9B002B00F09080632B00F33D816B
:1046800000230B9341AF082200212CA8FDF752FF15
:104690000C9E2CAB009327AA33463946584602F0AD
:1046A000DDFC864240F0C2850C9A0023BB5422EA0E
:1046B000E27206929DF88F20002A40F0B483CDE983
:1046C0000F220792CDF838801492FEF7D8BD00BFB4
:1046D000D09600089496000833788DF867312AF454
:1046E000806A0DF267170FE514460E460133159ADE
:1046F00022604644072BCDE92F36C4F8048000F32E
:1047000006810834FFF74CBA1B9A1999BF1A38462C
:1047100000F0E4FE99F801300BB109F101098C4A6F
:1047200016EB080343F10003A2FB030525F0030089
:1047300000EB95001B1AF31A4FF0CC3168F100081A
:1047400003FB01F102FB0811A3FB023001445B08EB
:1047500043EAC1764FEA510816EB080343F1000320
:10476000A2FB031020F0030101EB90015B1AF31A86
:10477000A3FB023168F100005B0802FB001243EA70
:10478000C27303EB8303A6EB4303303307F8013C0A
:104790004FF0010C013FFFF77CBB9DF88F30CDF847
:1047A0003880003B18BF012306930C9B0793CDE98B
:1047B0000F3314930B93FEF762BD0A992EAA584645
:1047C00000F042FD00287FF4FBA82599309E31AC13
:1047D00022E69DF88F3006920C925AAFFEF75FBF2B
:1047E000079B0E9214930C930F93069310939C4681
:1047F0000B935AAF4FF0780999E407EB0108A8EB47
:1048000003088F1AB845A8BFB846FFF7FCB931AC0A
:10481000FEF762BDDEB2079B8DF88F10002B884635
:10482000BFF6C3ABFEF725BF079B01932CAB0493E8
:1048300027AB039325AB0293022300935846DDE98F
:104840001C2300F0C9FF07461AF0010F40F07782E1
:10485000259A2C9B0F92DB1BD01C1193C0F22D824A
:1048600007999142C0F21B81934200F3D1820F9BC2
:104870000C931AF4806F03D00F9B002B00F3B983C5
:104880000C9B23EAE373C24606934FF067090023AB
:1048900014931093159B0AF00200002B00F0CC80BB
:1048A0004FF02D0C8DF88FC0069B0133069300232B
:1048B000079339E40E9A089912681180FEF756BFE3
:1048C0000322244F0C92BFE60A9C2EAA214658468A
:1048D00000F0BAFCA38903F04003FEF7ADBC3846F4
:1048E000FBF74EFD9DF88F300C9020EAE0720692A7
:1048F000002B3EF4E7ADFEF7E2BD591C5846FEF72B
:10490000CBF80746002800F075840B90BBE60A99A7
:104910002EAA584600F098FC00287FF451A8309E3B
:1049200031ACFFF73DB90A992EAA584600F08CFC2D
:1049300000287FF445A8DDE92F36259931AA23E622
:1049400006230B9007934AF48078FFF763BB00BF00
:10495000CDCCCCCC90960008079B01331193022359
:1049600000932CAB049327AB119E039325AB0196C8
:1049700002935846DDE91C2300F02EFF29F02003A6
:10498000462B07460693064400F0A780DDE91C018C
:1049900000220023FCF71EFA002840F027832C9BFE
:1049A000B34280F021834522069230215A1C2C927A
:1049B00019702C9BB342F9D3DB1B1193259B0F93EA
:1049C000069B472B63D0069B462B00F09F800F9BD6
:1049D0008DF8A090013B002B2593C0F275812B220E
:1049E000092B8DF8A12000F3788130228DF8A220C8
:1049F0000DF1A302303302F8013B28ABD31A189310
:104A0000119B189A012B1A440C9240F393820C9B31
:104A1000169A13440C930C9A2AF4806343F4807A18
:104A200022EAE2720023CDE90F331493069231E7B4
:104A3000079B1193032393E79DF88FC0BCF1000FF0
:104A40007FF432AF159B0793FFF76EBB2EAA51463A
:104A5000584600F0F9FB00287EF4B2AF99F8000048
:104A6000309931AA044432E40A992EAA584600F03B
:104A7000EBFB00287EF4A4AF309E31ACFFF785B885
:104A8000259B0F93F31B1193069B472B3ED10F9B46
:104A90000333C0F21281079B0F9A93420FDA0F9BE8
:104AA000013BA9F10209002B8DF8A090259396DA1D
:104AB0000F9B2D22C3F101038DF8A12095E7119BD7
:104AC0000F9A934200F3A4811AF0010F0F9B00F09C
:104AD000D782169A13440C93CBE63B78302B00F028
:104AE0006482259B1E44DDE91C0100220023FCF7A3
:104AF00071F90028C4D12C9BB342FFF456AFDB1BE5
:104B00001193259B0F93069B472BC0D00F99079AB3
:104B10000AF00103002943EA020340F33B83002B20
:104B200040F05B820F9B0C934FF066091AF4806F84
:104B300040F061820C9B23EAE373C2460693A6E62B
:104B400047F63003ADF89030079B632B4AF0020A1A
:104B500000F3C381DDE91212002AC0F2998125AA6F
:104B6000DDE9120100F02CFD00224FF07F53FBF72E
:104B7000C9FE02460B46CDE90C2300230022FCF7B8
:104B800029F90346002800F0AB82012315962593EE
:104B900041AF0B96B74B0693079B0F95591ECDE976
:104BA000109A0794069EDDE90C45B8468A4609E04E
:104BB000002200230AF1FF39FCF70CF9002840F02D
:104BC000C981CA46AC4B002220462946FBF79AFE13
:104BD0000D460446FCF746F98146FBF729FE0246DE
:104BE0000B4620462946FBF7D5FC16F80930BAF1EA
:104BF000FF3F4246044608F8013B0D46D8D1164611
:104C00009E4BDDF844A00022CDE90C45079C0F9D8A
:104C1000CDF81C90DDF84090FCF704F948B9DDE9C7
:104C20000C01964B0022FCF7D5F8E0B1079BDB079F
:104C300019D5069B2C96D97B18F8012C9142434636
:104C400009D1302003F8010C2C9B5A1E2C9213F82A
:104C5000012C8A42F6D0392A0BBF069A0132927A89
:104C6000D2B203F8012C259AA8EB07031193B9F1EE
:104C7000610F02F1FF33259300F02B8250214FF09A
:104C80004109002B8DF8A010C0F219822B22092BAC
:104C90008DF8A12021DC0DF1A202ABE60A99079361
:104CA0002EAA584600F0D0FA00287EF489AE259A44
:104CB000309E079B31ACFEF78EBF0F9BA9F1020916
:104CC000013B8DF8A09025930F9BC3F101032D228A
:104CD000092B8DF8A1207FF788AE0DF1B706DFF81C
:104CE000A0C132461046ACFB0312D20802EB82018F
:104CF000A3EB4101303100F8011C1946632913462A
:104D000000F1FF32EEDC303302F8013C831EB34287
:104D100080F056820DF1A10213F8011B02F8011F69
:104D2000B342F9D103F5B4736B44C43B1B1A28AAF0
:104D30009B1A189364E653481590FEF7F5BF079B3E
:104D4000FE1847230693CEE645F63003ADF89030C3
:104D5000079B632B4AF0020A00F3BF80DDE91212C1
:104D6000002AC0F2958025AADDE9120100F028FC96
:104D700000224FF07F53FBF7C5FD02460B46CDE9FD
:104D80000C2300220023FCF725F808B1012325930A
:104D900000233D4A159306920B9341AFFCE60A9916
:104DA0002EAA584600F050FA00287EF409AE259F3E
:104DB000119B309EDF1B31ACFEF725BF00230D4653
:104DC0000793FEF79DB9C1F10008103180F23482DB
:104DD0002E48159031461024064605E00832A8F109
:104DE0001008B8F1100F29DD01331031072BC2E98B
:104DF0000064CDE92F31F1DD0A992EAA584600F062
:104E000023FA00287EF4DCADDDE92F3131AAE6E794
:104E1000119B169A9A180F9B0C92002B40F3D2808C
:104E20004FF0670982E6069A07930132CDE90F3306
:104E30000692CDF838801493FEF721BA0E4601335E
:104E4000159911604644072BCDE92F36C2F804802E
:104E500000F31D810832FFF79ABB02F100431D9356
:104E60002D231C911593FFF7E0B8084B1593FEF71F
:104E70005ABD00BFA0960008000030400000E03F8F
:104E8000CDCCCCCC48980008B496000838980008DF
:104E9000134603F100431D932D231C910B9641AF44
:104EA000159325AADDE91C0100F08AFB00224FF0D2
:104EB0007F53FBF727FD02460B46CDE90C2300226A
:104EC0000023FBF787FF08B101232593B9F1610F98
:104ED0003FF460AEAA4B06935EE6079B5846591C0A
:104EE000FDF7DAFD0746002800F026810B904AF412
:104EF0008078FFF78FB8079A002A00F0F780002B20
:104F0000C0F21181DDE91223CDE91C231596079B20
:104F100001932CAB049327AB039325AB029302239D
:104F200000935846DDE91C2300F056FC0023074699
:104F30000B9389E41AF0010F3FF46DAD67E50A9B0E
:104F4000B3F90C3000220B9243F040030A9A93818C
:104F5000FEF736BD51460029DDE9109A079C0F9DEA
:104F6000FFF681AE4A1C42444346302003F8010B51
:104F70009342FBD108EB010303F1010873E6079BA1
:104F8000069C0B9D0C93FFF774BBCDF83880002B6B
:104F900000F08A80079B0C935A1C0692079014908D
:104FA00010904FF07309FEF76AB9DDE91C01002289
:104FB0000023FBF70FFF002800F08D80259B0F9347
:104FC0001E445FE5C3F101031A4422EAE273C246BC
:104FD0000C9206934FF0670959E4169B0A44D318C4
:104FE0000C934FF06609A1E5DB1B1193259B0F93F2
:104FF000EDE44FF067091A990B78FF2B00F0F6806B
:1050000000260F9A304603E001300131FF2B08D013
:10501000934206DAD21A4B78002BF5D10B78013681
:10502000F4E7CDE90F201A911496109A149B1B995E
:1050300013440C9A01FB03230C9323EAE373C24647
:10504000069327E4139B13F000432AF0800A0F9382
:1050500057D02D238DF88F30B9F1470F4FF0000353
:105060000B93079340F3AF800322464F0C92FFF758
:10507000EBBA00230322CDE90B320793FFF7E4BA22
:105080000C93FFF7F6BB404A1592FEF7A7BC0A99AE
:105090002EAA584600F0D8F800287EF491ACDDE93D
:1050A0002F3631AAFFF773BA079B0C9306930B9B1D
:1050B0001493109307934FF07309FEF7E0B8C2F111
:1050C0000103092B4FF02D028DF8A1203FF705AE0B
:1050D000E1E57021D5E5119BC3F10103259301E5BD
:1050E0002A4A159306920B9341AF55E5002B6FDBCF
:1050F000079B159301230793DDE91223CDE91C23B8
:1051000005E79DF88F30B9F1470FCCBF1D4F204FF9
:10511000002B7AD1032207930C92149310930B93D4
:105120000692FEF7ACB8DDE9122303F100431D93AC
:105130002D231C921593EAE60A9A938943F04003C3
:1051400093814FF0FF330893FEF779B80E4B159318
:10515000FFF72DBACDE90F330B931493FEF78FB8F9
:105160000E9A6B780D4652F8041B0E9241EAE171DB
:105170000791FDF7C3BF044A1592FFF7B7BA00BF06
:10518000B49600089C96000838980008A09600087D
:1051900098960008C24633B9012306934FF066097A
:1051A0000C93FFF774BB169B03F10109079B4B445B
:1051B0000C9323EAE37306934FF06609FFF767BB8E
:1051C000022318931CE403221D4F0C92FFF73CBAF4
:1051D000DDE9122303F100431D932D2315930123D1
:1051E0001C92079393E65046FEF7B2BE0023149339
:1051F00010931AE70A9B0B90B3F90C3043F040036D
:10520000A4E60C23CBF800309BE70023079314930C
:1052100010930B9303230C9304230693FEF72FB8EC
:105220005146FEF716BA5346FEF780BE0A9BB3F905
:105230000C3043F0400389E602491591FFE500BFB9
:1052400098960008389800082DE9F84315469268AA
:105250002C68FAB180468946083401E00834CFB1A1
:105260006B68591E002B1746696013DD54F8046CF7
:10527000002EF3D0334654F8082C4946404601F03E
:10528000FBFE431C07D0AA68921B1746AA6008348D
:10529000002FE5D100200023C5E90133BDE8F883E4
:1052A00070B500293FD006460C4610B1436B002B69
:1052B0003CD0636EB4F90C20DD0732D4900538D5AC
:1052C0002146304600F04CF8E36A054633B1E16907
:1052D000304698470028B8BF4FF0FF35A3891A061B
:1052E00039D4216B41B104F14003994202D03046D8
:1052F000FDF7DAFA00232363616C21B13046FDF734
:10530000D3FA00236364FDF77DF8636E0022DB07A8
:10531000A2811CD5A06DFDF755FAFDF779F8284656
:1053200070BD002ACCD10025284670BDFDF74CF891
:10533000BFE7A06DFDF748FAB4F90C30002BBFD1E0
:10534000636ED907EFD4A06DFDF740FAEBE7A06DCF
:10535000FDF73CFADEE721693046FDF7A5FAC0E724
:10536000B1F90C20F8B515070C4607464AD4496830
:1053700042F400630029A38160DDA66A002E3FD0BD
:10538000002112F480523D68396063D1E169012344
:105390003846B0470246501C6AD0B4F90C30A66AB1
:1053A000590705D56368D21A236B0BB1E36BD21A88
:1053B0000023E1693846B047421CB4F90C304BD1A8
:1053C00039681D2940D82F4ACA40D6073CD52269E2
:1053D000226023F40062A281D9044FF000026260CF
:1053E00002D53B68002B41D0216B3D6041B104F1F7
:1053F0004003994202D03846FDF756FA0023236352
:105400000020F8BD0E69002EFAD00D680E609207DC
:105410000CBF4B690023AD1B8B600CE0D4F824C09B
:10542000E1692B4632463846E047B0F1000CA5EB67
:105430000C05664406DD002DF0DCE1E7E16B002998
:105440009BDCDDE7B4F90C3043F04003A3814FF05F
:10545000FF30F8BD226DA3E72269226023F40062C9
:10546000A281DB044FF000026260BDD52065BBE77E
:105470003B68002B91D01D2B01D0162BE2D13D6053
:10548000BEE700BF0100402038B50C46054608B114
:10549000436B03B3B4F90C0088B1636EDB0701D42E
:1054A00081050FD528462146FFF75AFF636EDA07BC
:1054B000054602D4A3899B0508D5284638BD054674
:1054C000284638BDA06DFDF77FF9EBE7A06DFDF72D
:1054D0007DF9284638BDFCF777FFDBE740EA01039A
:1054E0009B0710B501D1032A17D8844601F1FF3E6E
:1054F00007E01EF8011F03F8011B541E29B19C464A
:1055000022466346002AF4D110BD9444002CFBD0FF
:1055100003F8011B6345FBD110BD8E468446DEF8BF
:105520000040A4F1013323EA040313F0803F7146E5
:105530000EF1040EDAD1043A032A4CF8044BEED8EB
:105540007146D3E7014B93F81002704730060020F4
:10555000004870470808002038B5074D002204466F
:1055600008462A6003F0A2FD431C00D038BD2B681A
:10557000002BFBD0236038BD080A002038B5074D4A
:10558000074C2C1BA41005D0013C55F8043D98474E
:10559000002CF9D1BDE8384003F0A6BD8C99000875
:1055A00088990008082802D14FF48050704708B548
:1055B000FDF7D8F8162303604FF0FF3008BD00BF99
:1055C000DFF85CC0F8B521F00043002763450446CE
:1055D0000D461646176020D8844653EA0C0C1CD0A2
:1055E000DFF840C001EA0C0C0A46BCF1000F09D1FB
:1055F0000D4B0022FBF786F96FF0350704460A468B
:1056000021F000431B156FF31E52A3F2FE3342F04C
:105610007F553B4445F40015336020462946F8BDCC
:10562000FFFFEF7F0000F07F000050432DE9F843BB
:105630001B4D0646286898460F469146FDF7C4F86C
:10564000184B1C681CB3286865681F2D22DC4EB9F6
:105650006B1C0235636044F82570FDF7B7F8002035
:10566000BDE8F88304EB85010123C1F88890D4F8E4
:105670008821AB401A43022EC4F88821C1F8088162
:10568000E6D1D4F88C211A43C4F88C21E0E7064C0B
:105690001C60D8E7FDF79AF84FF0FF30E0E700BF55
:1056A00018020020180A0020500A00202DE9F04FAF
:1056B00003690C69A34283B0C0F28A80013C01F106
:1056C000140500F1140855F8243058F8242001334B
:1056D0009A428E4681464FEA840105EB840708EB27
:1056E000840AB2FBF3F63AD3CDE900150022AC46AA
:1056F000404613465CF8041B05681FFA81FB06FB55
:105700000B22090C4FEA124B06FB01BB92B2A9B265
:10571000891A19441FFA8BF3C3EB214303EB15439A
:1057200089B241EA0341674540F8041B4FEA1B4236
:105730004FEA2343DED2DDE9001558F8013073B992
:10574000AAF1040AD04504D307E0D04504F1FF34A0
:1057500003D25AF80439002BF7D0C9F8104071462B
:10576000484601F011FB00282EDB4146002255F887
:10577000040BD1F800C01FFA80FE1FFA8CF3A3EBD4
:105780000E031344020CC2EB234202EB1C429BB2F9
:1057900043EA0243AF4241F8043B4FEA2242E6D2D9
:1057A00058F8242008EB84036AB9043B434504D825
:1057B00007E0984504F1FF3403D253F80429002A86
:1057C000F7D0C9F810400136304603B0BDE8F08F7D
:1057D000002003B0BDE8F08F2DE9F04F816B9FB042
:1057E00016461F46CDE904672B9D044641B1C26BA6
:1057F0004A60012393408B6001F04AF80023A363C1
:10580000B7F10009B4BF012300232B60B24BBCBF2A
:1058100029F00049CDF8149033EA090300F0A38081
:10582000DDE904231046194600220023CDE90201D8
:10583000FBF7D0FA824668B12A9A012313602C9BA9
:1058400013B12C9AA54B1360A54B079307981FB073
:10585000BDE8F08F1CAB01931DAB00932046DDE942
:10586000022301F06BFB5FEA1955DDF870800990A7
:1058700040F08F801D9D454405F23243202B40F3BC
:105880002A82C3F1400309FA03F905F2124326FA0A
:1058900003F349EA0300FAF7BBFF0122013DA1F13E
:1058A000F8731092194600228E4BFAF773FE84A308
:1058B000D3E90023FBF726F883A3D3E90023FAF703
:1058C0006BFE064628460F46FAF7B2FF80A3D3E9DF
:1058D0000023FBF717F802460B4630463946FAF725
:1058E0005BFE06460F46FBF7BDFA00228146089094
:1058F000002330463946FBF777FA002840F0118143
:10590000A8EB0508089D162D08F1FF3B00F2F48076
:10591000754A02EBC503D3E90023DDE90201FBF779
:1059200063FA002840F0D181B8F1000F40F38A8576
:105930000D90AB440C950A9000230B93289B092BE8
:105940003BD8052BC4BF043B2893289BA3F102033B
:10595000CCBF00250125032B31D8DFE813F0EE0280
:10596000EB02E002C5012A9AC9F3130942F20F7350
:1059700059EA0609136019D12C9B002B00F03D87D2
:105980005A4B079308332C9A079813601FB0BDE851
:10599000F08FDDE90201C1F3130343F07F53A5F259
:1059A000FF35CDF840A043F440137BE72C9B002B40
:1059B00040F096814E4B079348E70023289300253B
:1059C000E5632946204600F03DFF0790002800F0DF
:1059D000AE86079BA3631D9B002BC0F2B080089A84
:1059E0000E2A00F3AC80404B03EBC203D3E90067FF
:1059F000DDE9028932463B4640464946CDE9046727
:105A0000FBF7AAF8FBF72EFA0546FAF711FF324624
:105A10003B46FAF777FF0B46024649464046FAF7FF
:105A2000B9FD05F13003079D05F8013B4FF0FF3A42
:105A300002944FF001095446DDE904AB1DE05246E3
:105A40005B4630463946FBF787F8FBF70BFA804692
:105A5000FAF7EEFE52465B46FAF754FF09F10109E8
:105A60000B46024639463046FAF794FD08F13003FA
:105A7000A14505F8013B00F043851E4B0022FAF7D3
:105A800041FF0022002306460F46FBF7A3F900283A
:105A9000D5D0089F029C0137AB460999204600F0FB
:105AA000F7FE00238BF800302A9B1F602C9B002BF5
:105AB0003FF4CCAE0798C3F800B01FB0BDE8F08F3C
:105AC00061436F63A787D23FB3C8608B288AC63F04
:105AD000FB799F501344D33F0000F07FD19600081C
:105AE000D09600080000F83F909800081C97000826
:105AF000289700080000244001230D93BBF1000FFC
:105B0000C0F2DD8000230A93089B002B80F2D48032
