:020000040800F2
:1000000000800020050E0008550E0008550E00085F
:10001000550E0008550E0008550E0008000000009F
:10002000000000000000000000000000550E000865
:10003000550E000800000000550E0008F90A0008DF
:10004000550E0008550E0008550E0008550E000804
:10005000550E0008550E0008550E0008550E0008F4
:10006000550E0008550E0008550E0008550E0008E4
:10007000550E0008550E0008550E0008550E0008D4
:10008000550E0008550E0008550E0008550E0008C4
:10009000550E0008550E0008550E0008550E0008B4
:1000A000550E0008550E0008550E0008550E0008A4
:1000B000550E0008550E0008550E0008550E000894
:1000C000550E0008550E0008550E0008550E000884
:1000D000550E00084D0D0008550E0008550E00087D
:1000E000550E0008550E0008550E0008550E000864
:1000F000550E0008550E0008550E0008550E000854
:10010000000000000000000000000000550E000884
:10011000550E0008550E0008550E0008550E000833
:10012000550E0008550E0008550E0008550E000823
:10013000550E0008550E00080000000000000000E9
:10014000550E0008550E0008550E0008000000006E
:10015000000000000000000000000000000000009F
:100160000000000000000000550E0008550E0008B9
:10017000550E000800000000000000000000000014
:0801800000000000550E00080C
:100188000348044B834202D0034B03B1184770471E
:100198003804002038040020000000000548064903
:1001A8000B1AD90F01EBA301491002D0034B03B17D
:1001B8001847704738040020380400200000000069
:1001C80010B5064C237843B9FFF7DAFF044B13B197
:1001D8000448AFF300800123237010BD38040020C9
:1001E800000000006C0E000808B5044B1BB1044960
:1001F8000448AFF30080BDE80840CFE700000000E6
:100208003C0400206C0E000880B400AF00BFBD465F
:1002180080BC704780B485B000AF0023FB6000232A
:10022800BB6000237B6000233B602D4B5B6803F0C1
:100238000C03FB60FB68082B11D0FB68082B36D831
:10024800FB68002B03D0FB68042B04D02FE0254B60
:10025800254A1A602FE0234B234A1A602BE0204BD3
:100268005B6803F47013BB601D4B5B6803F4803359
:100278007B60BB689B0C0233BB607B68002B06D19C
:10028800BB681A4A02FB03F3164A136013E0144BC7
:10029800DB6A03F00F0301333B60134A3B68B2FB90
:1002A800F3F3BA6802FB03F30E4A136003E00D4B45
:1002B8000D4A1A6000BF0A4B5B681B0903F00F0365
:1002C8000B4AD35CFB60074B1A68FB6822FA03F3FE
:1002D800044A136000BF1437BD4680BC704700BF96
:1002E800001002400000002000127A0000093D00C2
:1002F800B80E0008002301461A46184600F03AB81E
:1003080038B5084B084D5B1B9C1007D0043B1D44B7
:10031800013C55F804399847002CF9D1BDE838401C
:1003280000F0A6BDE00E0008DC0E000870B50D4E0A
:100338000D4D761BB61006D0002455F8043B013449
:100348009847A642F9D1094E094D761B00F08AFD5F
:10035800B61006D0002455F8043B01349847A6424D
:10036800F9D170BDD40E0008D40E0008DC0E0008C8
:10037800D40E000870B4184C2568D5F848411CB351
:1003880065681F2D25DC38B9AB1C0135656044F85C
:100398002310002070BC704704EB850C0228CCF8B1
:1003A8008820D4F888614FF0010202FA05F246EA83
:1003B8000206C4F88861CCF80831E5D1D4F88C314C
:1003C8001343C4F88C31DFE705F5A674C5F8484136
:1003D800D6E74FF0FF30DDE7D00E000880B400AF5D
:1003E800104B5B690F4A43F4002353610E4B1B68A3
:1003F8000D4A43F0806313600B4BDB680A4A43F0F5
:100408008063D360084B1B68074A43F0805313602E
:10041800054BDB68044A43F08053D36000BFBD46F8
:1004280080BC7047001002400008004880B586B0C4
:1004380002AF00F071F800F03FFBFFF7CFFF4FF479
:10044800165000F0D3FB2F4800F066FC00F0DAF8F5
:100458002D4800F061FC00F01DFA2C4800F05CFC0F
:100468004FF6FF7000F0D8FA3B4600221A605A6037
:100478009A600023FB730023BB7300F0A1FC244B9C
:100488001A687B68D31AB3F57A7F1BD3204B1B6895
:100498007B60BB7B83F00103BB73BB7B002B09D064
:1004A8004FF478430093282314220F21052000F0ED
:1004B80019FA07E0FF2300933C233C220F21052073
:1004C80000F010FA124B1A683B68D31AB3F57A7F1A
:1004D800D3D30F4B1B683B60FB7B83F00103FB739B
:1004E800FB7B002B06D00B4B5B690A4A23F40053B5
:1004F8005361C2E7074B5B69064A43F400535361F3
:10050800BBE700BF840E0008900E00089C0E000890
:10051800540400200008004880B500AF374B1B6822
:10052800364A23F007031360344B1B68334A43F001
:1005380004031360324B1B68314A43F48033136061
:1005480000BF2F4B1B6803F40033002BF9D02C4B52
:100558001B682B4A23F08073136000BF284B1B686D
:1005680003F00073002BF9D1254B5B68244A23F074
:100578007F735360224B5B68214A43F4E013536056
:100588001F4B5B681E4A23F4C03353601C4B5B68E7
:100598001B4A43F480335360194B5B68184A23F4B1
:1005A800E0635360164B5B68154A43F480635360FD
:1005B800134B1B68124A43F08073136000BF104B43
:1005C8001B6803F00073002BF9D00D4B5B680C4AD5
:1005D80023F0030353600A4B5B68094A43F00203A4
:1005E800536001E0FFF716FE054B5B6803F00C0350
:1005F800082BF7D100BF00BF80BD00BF002002401C
:100608000010024080B400AF354B5B69344A43F4B4
:1006180000335361324B9B69314A43F480539361F1
:100628004FF090431B684FF0904223F47F431360D0
:100638004FF090431B684FF0904243F42A431360F5
:100648004FF090435B684FF0904223F0F003536003
:100658004FF090439B684FF0904243F42A439360D5
:100668004FF090431B6A4FF090429BB213624FF0D9
:1006780090431B6A4FF0904243F0AA4343F4AA0305
:100688001362184B00221A60164B00225A60154B51
:100698001B68144A43F004031360124B1B68114A89
:1006A80043F4007313600F4B1B680E4A43F48073C6
:1006B80013600C4B1B680B4A43F008031360094B8B
:1006C8005B68084A43F4E0635360064B1B68054ABD
:1006D80043F04003136000BFBD4680BC704700BFB5
:1006E800001002400030014080B483B000AF0346E0
:1006F800FB7100BF0B4B9B6803F00203002BF9D082
:10070800094AFB79137000BF064B9B6803F080030E
:10071800002BF9D1044B1B78DBB218460C37BD46C9
:1007280080BC7047003001400C30014080B400AFFD
:10073800184B5B69174A43F4003353614FF09043F9
:100748001B684FF0904223F03F0313604FF0904333
:100758001B684FF0904243F0150313604FF090432D
:100768009B684FF0904223F03F0393604FF0904313
:100778009B684FF0904243F03F0393604FF09043E3
:100788009B694FF0904243F00103936100BFBD465F
:1007980080BC70470010024080B400AF4FF0904317
:1007A8009B694FF0904243F00203936100BFBD463E
:1007B80080BC704780B400AF4FF090439B694FF006
:1007C800904243F40033936100BFBD4680BC70473C
:1007D80080B400AF4FF090439B694FF0904243F0D4
:1007E8000403936100BFBD4680BC704780B400AF6E
:1007F8004FF090439B694FF0904243F480239361FC
:1008080000BFBD4680BC704780B500AF4FF0904335
:100818009B694FF0904243F0010393610A2000F076
:1008280075F94FF090439B694FF0904243F4803341
:1008380093610A2000F06AF94FF090439B694FF0EA
:10084800904243F00103936100BF80BD80B582B040
:1008580000AF0346FB71FFF7ADFFFB791846FFF7C2
:1008680043FF052000F06AF900BF0837BD4680BD88
:1008780080B582B000AF0346FB71FFF78DFFFB79AF
:100888001846FFF731FF052000F058F900BF083778
:10089800BD4680BD80B500AFFFF748FFFFF7B4FF46
:1008A8000A2000F033F9FFF7A1FF0A2000F02EF923
:1008B8001120FFF7CBFF782000F028F93A20FFF746
:1008C800C5FF0520FFF7D4FF3620FFF7BFFF142030
:1008D800FFF7CEFF2920FFF7B9FF642000F016F9D3
:1008E80000BF80BD90B585B000AF044608461146EC
:1008F8001A462346FB800346BB800B467B80134683
:100908003B80FB887F2B02D8BB889F2B01D9002313
:100918007DE07B88002B02D03B88002B01D100238F
:1009280075E0FA887B881344802B03DDFB88C3F1CC
:1009380080037B80BA883B881344A02B03DDBB88E7
:10094800C3F1A0033B80FFF751FF2A20FFF77EFF8A
:100958000020FFF78DFFFB88DBB21846FFF788FF02
:100968000020FFF785FFFB88DAB27B88DBB21344EF
:10097800DBB2013BDBB21846FFF77AFF2B20FFF70B
:1009880065FF0020FFF774FFBB88DBB21846FFF74E
:100998006FFF0020FFF76CFFBB88DAB23B88DBB241
:1009A8001344DBB2013BDBB21846FFF761FF2C2092
:1009B800FFF74CFFFFF7F0FE0023FB811FE0002349
:1009C800BB8111E03B8C1B0A9BB2DBB21846FFF7D8
:1009D8008BFE3B8CDBB21846FFF786FEB7F90C306E
:1009E8009BB201339BB2BB81B7F90C207B889A423A
:1009F800E8DBB7F90E309BB201339BB2FB81B7F944
:100A08000E203B889A42DADBFFF7E2FE0123184604
:100A18001437BD4690BD000080B584B000AF0346D2
:100A2800FB80FFF7E3FE2A20FFF710FF0020FFF707
:100A38001FFF0020FFF71CFF0020FFF719FF7F2092
:100A4800FFF716FF2B20FFF701FF0020FFF710FF2D
:100A58000020FFF70DFF0020FFF70AFF9F20FFF798
:100A680007FF2C20FFF7F2FEFFF796FE0023FB603E
:100A78000EE0FB881B0A9BB2DBB21846FFF734FE78
:100A8800FB88DBB21846FFF72FFEFB680133FB60DB
:100A9800FB68B3F5A04FECD300BF064B9B6803F08F
:100AA8008003002BF9D1FFF793FE00BF1037BD4636
:100AB80080BD00BF0030014080B500AFFFF7AAFB42
:100AC800084B1B68084AA2FB03239B09074A013B02
:100AD8005360064B00229A60044B07221A6000BF3D
:100AE80080BD00BF00000020D34D621010E000E080
:100AF80080B400AF044B1B680133034A136000BF86
:100B0800BD4680BC704700BF5404002080B485B047
:100B180000AF7860084B1B68FB6000BF064B1A6883
:100B2800FB68D31A7A689A42F8D800BF00BF143716
:100B3800BD4680BC704700BF5404002080B483B019
:100B480000AF786000E000BF7B685A1E7A60002B17
:100B5800F9D100BF00BF0C37BD4680BC704700000C
:100B680080B483B000AF0346FB7197F90730002BC0
:100B78000BDBFB7903F01F02064997F907305B0985
:100B8800012000FA02F241F8232000BF0C37BD46CD
:100B980080BC704700E100E080B483B000AF03463A
:100BA8003960FB7197F90730002B0ADB3B68DAB232
:100BB8000C4997F907301201D2B20B4483F800238D
:100BC8000AE03B68DAB20849FB7903F00F03043BFB
:100BD8001201D2B20B441A7600BF0C37BD4680BC56
:100BE800704700BF00E100E000ED00E080B582B092
:100BF80000AF0346FB80394B5B69384A43F4003346
:100C08005361364B9B69354A43F4804393614FF0F7
:100C180090431B684FF0904223F4402313604FF039
:100C280090431B684FF0904243F4002313604FF049
:100C380090431B684FF0904223F4401313604FF029
:100C480090431B684FF0904243F4001313604FF039
:100C580090435B684FF0904223F4C06353604FF0B9
:100C680090439B684FF0904243F4201393604FF0F9
:100C780090435B6A4FF0904223F47F6353624FF0D6
:100C880090435B6A4FF0904243F4EE635362144B17
:100C980000221A60124B00225A60114B00229A60FF
:100CA800FB880F4A0F49B1FBF3F3D3600C4B1B6869
:100CB8000B4A43F020031360094B1B68084A43F0B2
:100CC8000D03136002212520FFF766FF2520FFF79B
:100CD80047FF00BF0837BD4680BD00BF0010024077
:100CE8000038014000A24A0480B483B000AF034634
:100CF800FB7100BF074BDB6903F08003002BF9D0C1
:100D0800044BFA7992B21A8500BF0C37BD4680BCF5
:100D1800704700BF0038014080B582B000AF7860EE
:100D280006E07B685A1C7A601B781846FFF7DCFFE0
:100D38007B681B78002BF4D100BF00BF0837BD4685
:100D480080BD000080B483B000AF194BDB6903F0AD
:100D58002003002B27D0164B9B8C9BB2FB71154BA5
:100D680001221A70FB790D2B04D0134B1B78DBB2D0
:100D78001E2B0AD9104B1B78DBB21A460F4B0021E9
:100D880099540D4B00221A700DE00B4B1B78DBB207
:100D980019460A4AFB795354074B1B78DBB20133D7
:100DA800DAB2054B1A7000BF0C37BD4680BC7047DD
:100DB80000380140790400207804002058040020FD
:100DC80080B500AF094B1B78DBB2002B0BD008486D
:100DD800FFF7A2FF0748FFF79FFF0748FFF79CFFB1
:100DE800024B00221A7000BF80BD00BF79040020AA
:100DF800AC0E000858040020B40E0008DFF834D008
:100E0800FFF702FA0C480D490D4A002302E0D458B6
:100E1800C4500433C4188C42F9D30A4A0A4C00233C
:100E280001E013600432A242FBD3FFF77FFAFFF719
:100E3800FDFAFEE7008000200000002038040020B2
:100E4800E00E0008380400207C040020FEE70000C3
:100E5800024B13B10248FFF74DBA7047000000007B
:100E680009030008F8B500BFF8BC08BC9E467047E7
:0C0E7800F8B500BFF8BC08BC9E467047EF
:100E8400555341525420454E200A0D0053504920D9
:100E9400494E4954200A0D005354373733352049FD
:100EA4004E4954200A0D00004745543A20000000E2
:100EB4000D0A00000000000000000000010203040D
:100EC40006070809000000000102030410000020C6
:080ED400590E0008F1010008AD
:040EDC00C901000840
:100EE00000127A0000000000100000200000000046
:100EF00000000000FC02002064030020CC0300205E
:100F000000000000000000000000000000000000E1
:100F100000000000000000000000000000000000D1
:100F200000000000000000000000000000000000C1
:100F300000000000000000000000000000000000B1
:100F400000000000000000000000000000000000A1
:100F50000000000000000000000000000000000091
:100F60000000000000000000000000000000000081
:100F70000000000000000000000000000000000071
:100F80000000000000000000000000000000000061
:100F90000000000000000000010000000000000050
:100FA0000E33CDAB34126DE6ECDE05000B00000015
:100FB0000000000000000000000000000000000031
:100FC0000000000000000000000000000000000021
:100FD0000000000000000000000000000000000011
:100FE0000000000000000000000000000000000001
:0400000508000E05DC
:00000001FF
