:020000040800F2
:10000000008000201D1000086D1000086D10000811
:100010006D1000086D1000086D1000080000000051
:100020000000000000000000000000006D1000084B
:100030006D100008000000006D1000086D0700083A
:100040006D1000086D1000086D1000086D1000089C
:100050006D1000086D1000086D1000086D1000088C
:100060006D1000086D1000086D1000086D1000087C
:100070006D1000086D1000086D1000086D1000086C
:100080006D1000086D1000086D1000086D1000085C
:100090006D1000086D1000086D1000086D1000084C
:1000A0006D1000086D1000086D1000086D1000083C
:1000B0006D1000086D1000086D1000086D1000082C
:1000C0006D1000086D1000086D1000086D1000081C
:1000D0006D100008550D00086D1000086D10000827
:1000E0006D1000086D1000086D1000086D100008FC
:1000F0006D1000086D1000086D1000086D100008EC
:100100000000000000000000000000006D1000086A
:100110006D1000086D1000086D1000086D100008CB
:100120006D1000086D1000086D1000086D100008BB
:100130006D1000086D1000080000000000000000B5
:100140006D1000086D1000086D1000080000000020
:10015000000000000000000000000000000000009F
:1001600000000000000000006D1000086D10000885
:100170006D100008000000000000000000000000FA
:08018000000000006D100008F2
:1001900080B400AF00BFBD4680BC704780B485B05E
:1001A00000AF0023FB600023BB6000237B600023C3
:1001B0003B602D4B5B6803F00C03FB60FB68082B76
:1001C00011D0FB68082B36D8FB68002B03D0FB68E6
:1001D000042B04D02FE0254B254A1A602FE0234B37
:1001E000234A1A602BE0204B5B6803F47013BB605A
:1001F0001D4B5B6803F480337B60BB689B0C023350
:10020000BB607B68002B06D1BB681A4A02FB03F374
:10021000164A136013E0144BDB6A03F00F0301333B
:100220003B60134A3B68B2FBF3F3BA6802FB03F38B
:100230000E4A136003E00D4B0D4A1A6000BF0A4BD3
:100240005B681B0903F00F030B4AD35CFB60074B91
:100250001A68FB6822FA03F3044A136000BF1437DC
:10026000BD4680BC704700BF001002400000002067
:1002700000127A0000093D00BC26000800000000C2
:1002800001F0FF01102A2BDB10F0070F08D010F847
:10029000013B013A8B422DD010F0070F42B3F6D14B
:1002A000F0B441EA012141EA014122F007047FF064
:1002B00000070023F0E80256083C85EA010586EABB
:1002C000010685FA47F5A3FA87F586FA47F6A5FAF7
:1002D00087F68EB9EED1F0BC01F0FF0102F0070203
:1002E00032B110F8013B013A83EA010313B1F8D1AE
:1002F0000020704701387047002D06BF354603388F
:10030000073815F0010F07D1013015F4807F02BFC7
:10031000013015F4C03F0130F0BC0138704700BF18
:100320000348044B834202D0034B03B11847704784
:100330006000002060000020000000000548064B1F
:100340001B1AD90F01EBA301491002D0034B03B1D3
:100350001847704760000020600000200000000087
:1003600010B5064C237843B9FFF7DAFF044B13B1FD
:100370000448AFF300800123237010BD600000200B
:1003800000000000A426000808B5054B1BB1054974
:100390000548AFF30080BDE80840FFF7CFBF00BFBE
:1003A0000000000064000020A4260008294B5A69C0
:1003B00042F4802210B55A615A69274C42F000522B
:1003C0005A61DA6A42F40852DA62244B1A6842F03F
:1003D00003021A60DA6822F00302DA60204A9368A6
:1003E00043F400339360A36843F08053A360142068
:1003F00000F0CEF9A36823F00103A360A36843F0E3
:100400000043A360A368002BFCDB236843F00103D7
:100410002360A36843F00103A3600F4B1A68D2075F
:10042000FCD59A6922F4E0729A619A6942F480726A
:100430009A611A6B22F007021A631A6B42F4407237
:100440001A63DA6842F40052DA609A6842F00402F1
:100450009A6010BD001002400004005000040048E3
:10046000000700501E4B5A6942F480225A61DA6933
:1004700042F40012DA611B4B1A6822F440321A600F
:100480001A6842F400321A601A6822F440221A6094
:100490001A6842F400221A605A6822F440725A60C4
:1004A0005A6842F440725A609A6822F470229A6044
:1004B0009A6842F470229A605A6A22F0FF025A62E5
:1004C0005A6A42F044025A62074B00221A605A608C
:1004D000064A1A611A6842F001021A60704700BFAA
:1004E000001002400004004800540040CC8DC110B0
:1004F0001F4B204910B54FF44C720024DA615C6048
:100500005A685A605A6842F000725A605A6842EA61
:1005100040025A605A6842F400525A6042F2107225
:100520000A60986910F0700F08D004B10A609A69E7
:1005300012F0100209D03022DA6104E0013A4FF0E3
:100540000104EED10A60002010BD42F21073084889
:100550000B608469A40604D53AB92023C361012045
:10056000F2E7013B4FF00102F3D10B60F5E700BF6A
:10057000005400407C0000201FB50D4800F0E0FB57
:1005800008242046FFF7B4FF50B10A4800F0D8FB1A
:10059000102201A9204600F086FD01A800F0D0FB42
:1005A0000134782CEDD1044800F0CAFB04B010BD32
:1005B000D4260008E6260008F626000810B51D4CD3
:1005C0001D4AE36943F08053E361136843F4807389
:1005D0001360052000F0DCF8236A43F00103236276
:1005E00042F21073226A910701D4013BFAD1236AC7
:1005F00023F440732362236A43F480732362236AE3
:1006000043F4004323620D4BCA225A6253225A62BA
:10061000DA6842F08002DA60DA685206FCD5084AED
:100620001A61DA6822F08002DA60FE225A626422DD
:100630005A6210BD001002400070004000280040C7
:10064000FF007F00144ACA2330B55362532353621C
:10065000D36843F08003D360D3685B06FCD50A24DB
:10066000B1FBF4F504FB1513DBB21B02B0FBF4F194
:1006700043EA053304FB110043EA0153C0B243EAE5
:1006800000401060D36823F08003D360FE235362E0
:100690006423536230BD00BF002800400F4B1B682D
:1006A00030B5C3F30154C3F3034504EB840405EBF5
:1006B00044040470C3F30230C3F3032400EB80004E
:1006C00004EB40000870C3F3021101EB810103F059
:1006D0000F0303EB4103137030BD00BF002800403F
:1006E000F0B589B0134C144D144E00270A2300971F
:1006F00050220321282000F0D6F822462946304611
:10070000FFF7CCFF3946142203A800F0BFFE327871
:100710002B782178009103A8094900F051FE0321AC
:100720000123009303AA4FF6FF73084600F098F9DF
:1007300009B0F0BD80000020810000208200002070
:100740000927000808B5FFF729FD074B4FF47A7217
:100750001B68B3FBF2F34FF0E022013B536100232F
:1007600093610723136108BD00000020024A13684B
:1007700001331360704700BF84000020034A1168F2
:1007800013685B1A8342FBD3704700BF84000020CC
:1007900000B9704700BF0138FAE700000D4A5369FD
:1007A00043F4003353614FF090431A6822F03F0244
:1007B0001A601A6842F015021A609A6822F03F0225
:1007C0009A609A6842F03F029A609A6942F0010288
:1007D0009A617047001002404FF09042936943F0D5
:1007E0000203936170474FF09042936943F40033E2
:1007F000936170474FF09042936943F00403936113
:1008000070474FF09042936943F48023936170479F
:1008100010B54FF090440A20A36943F00103A3618F
:10082000FFF7ACFFA36943F48033A3610A20FFF70D
:10083000A5FFA36943F00103A36110BD08B5FFF74D
:10084000D2FFBDE8084000F047BB08B5FFF7C4FF82
:10085000BDE8084000F040BB08B5FFF79FFFFFF779
:10086000D7FF0A20FFF78AFF0A20FFF7CAFFFFF72A
:1008700085FF1120FFF7E2FF7820FFF77FFF3A2086
:10088000FFF7DCFF0520FFF7E0FF3620FFF7D6FF7C
:100890001420FFF7DAFF2920FFF7D0FFBDE808405A
:1008A0006420FFF76BBF2DE9F8437F28BDF8208057
:1008B00006460D4617461C4659D89F2957D8002A88
:1008C00055D0002B55D08318802BC8BFC0F18007AE
:1008D00001EB0403C8BFBFB2A02BC8BFC1F1A00485
:1008E0004FF02A00C8BFA4B2F6B2FFF78AFFFFF7A5
:1008F000A5FF0020FFF7A9FF3046FFF7A6FF013E46
:100900000020FFF7A2FFF019C0B2FFF79EFF2B20D7
:10091000FFF794FFEDB20020FFF797FF2846FFF79F
:1009200094FF013D0020FFF790FF2819C0B2FFF7A8
:100930008CFF2C20FFF782FFFFF74EFF4FEA1829AC
:1009400000265FFA88F800254846013500F0C4FA11
:100950002DB2404600F0C0FABD42F5DB013636B29A
:10096000A642F0DBFFF746FF0120BDE8F883002038
:10097000FBE71846F9E7F8B507462A200D46144666
:100980001E46FFF75BFF0020FFF75FFFF8B2FFF79F
:100990005CFF0020FFF759FFF0B2FFF756FF2B2056
:1009A000FFF74CFF0020FFF750FFE8B2FFF74DFFC5
:1009B0000020FFF74AFFE0B2FFF747FFBDE8F8402D
:1009C0002C20FFF73BBF7F2838B50B4614460ED8C6
:1009D0009F290CD80246FFF7CEFF200AFFF7FCFE46
:1009E00000F07AFAE0B200F077FA012038BD00207A
:1009F000FCE700002DE9F74F00939DF83030022B03
:100A00000CBF154B154B4FEAC2040746884607BF7B
:100A1000E4184FF0050AE4184FF0080A00254FF0DB
:100A2000800B08EB0509635D00261FFA89F94BFA74
:100A300006F21A4207D0B819009A0193494680B2CB
:100A4000FFF7C1FF019B0136B245F0D10135082DFA
:100A5000E7D103B0BDE8F08F4C2800084C2C00080B
:100A60002DE9F74316469DF828909846FFF7C9FEF2
:100A700007460D46013E3C4616F8012F22B903B049
:100A8000BDE8F043FFF7B6BE20460834CDF800902D
:100A900043462946A4B2FFF7ADFF782CECD90835C0
:100AA000ADB2E8E70B4A536943F4002353610A4BA4
:100AB0001A6842F080621A60DA6842F08062DA6096
:100AC0001A6842F080521A60DA6842F08052DA60A6
:100AD000704700BF001002400008004810B586B003
:100AE00000F048FA0B49024602A800F069FC002415
:100AF0000A23009464220D211846FFF7D4FE0094C7
:100B00004FF6FF7302AA0D210A20FFF7A9FF06B0D6
:100B100010BD00BF20270008F7B5244E244C00F07C
:100B200029FA33688342054612DA02232370214FE3
:100B3000002300930A2339781A461846FFF7B3FEBC
:100B400039780A39C9B24F292CD90B463B701EE0BF
:100B500011DD03232370174F002300930A233978F4
:100B60001A461846FFF79FFE39780A31C9B28C2918
:100B7000EBD98C2317E0237833B1022BD7D0032B8A
:100B8000E9D0356003B0F0BD0A4B502119704FF425
:100B90007F6300930A231A461846FFF784FE012359
:100BA0002370EEE750231946D0E700BF8C000020E9
:100BB00089000020880000202DE9F34700F0E0F9CB
:100BC0000024FFF7BFFD4FF41650FFF76BFF00F056
:100BD00063F800F03BF9FFF73FFE00F089F9FFF7FB
:100BE000EDFCFFF7E3FBFFF73DFC0094A023802220
:100BF00021462046FFF757FE254D264FA146A04629
:100C0000A246264600F0E4F800F0CAF8FFF784FF99
:100C10002B6841F65732A3EB0903934203D9D5F869
:100C20000090FFF7A9FC2B681B1B632B02D92C68D3
:100C3000FFF754FF2B68A3EB0803B3F57A7F0ED3BD
:100C4000D5F80080C6B94FF47843009314231A46B0
:100C50008C216C20FFF727FEFFF742FD01262B6851
:100C6000A3EB0A03B3F57A7FCCD37B6983F40053FB
:100C70007B61D5F800A0C5E7FF23009314231A4633
:100C80008C216C20FFF70FFE0026FFF729FDE6E719
:100C90008400002000080048204B5A6942F40032CA
:100CA0005A619A6942F480429A614FF090431A68FF
:100CB00022F440221A601A6842F400221A601A686C
:100CC00022F440121A601A6842F400121A6059683D
:100CD000134AB2FBF0F221F4C0615960996841F403
:100CE00020119960596A21F47F615962596A41F46F
:100CF000EE6159620B4B0021196059609960DA600E
:100D00001A6842F020021A601A6842F00D021A6056
:100D1000054B202283F825235A60704700100240BB
:100D200000A24A040038014000E100E0034BDA6908
:100D30001206FCD580B21885704700BF003801400C
:100D400008B5411E11F8010F00B908BDFFF7EEFF0D
:100D5000F8E700000E4BDA69920618D59A8C0D4B15
:100D60000D48D2B201210D2A19700C4B02D019780E
:100D70001E2905D91A78D2B2002181541970704702
:100D80001978C9B242541A780132D2B21A70704737
:100D9000003801409000002091000020B1000020A8
:100DA00010B5074C237853B10648FFF7C9FF064832
:100DB000FFF7C6FF0548FFF7C3FF0023237010BDF0
:100DC00090000020242700089100002043270008FD
:100DD000F0B5194F194989B00222384600F05EFB80
:100DE000044630BB1649384600F06AFB15492046D8
:100DF00000F066FB13490546204600F061FB0646FD
:100E0000284600F034F90546304600F030F9C1B20A
:100E10000646E8B2FFF716FC0B4933462A466846F9
:100E200000F0CEFA6846FFF78BFF3C70012009B056
:100E3000F0BD0020FBE700BF910000202A2700083A
:100E40001D2800082D2700082F270008204B5A696D
:100E500042F400325A619A6942F480529A614FF02A
:100E600090431A6822F47F421A601A6842F42A42B8
:100E70001A605A6822F0F0025A609A6842F42A42D4
:100E80009A601A6A92B21A621A6A42F0AA4242F44C
:100E9000AA021A620F4B00221A605A601A6842F0C6
:100EA00004021A601A6842F400721A601A6842F466
:100EB00080721A601A6842F008021A605A6842F496
:100EC000E0625A601A6842F040021A60704700BF40
:100ED0000010024000300140044B9A689107FCD595
:100EE00018739A681206FCD4187B704700300140D2
:100EF0001D4B5A6942F480225A61DA6942F00402B9
:100F0000DA611A4B1A6822F440521A601A6842F4E5
:100F100000521A601A6822F440421A601A6842F4B9
:100F200000421A601A6A22F07F421A621A6A42F07C
:100F300008521A620E4B00229A619A601A621A6075
:100F40009A6942F4807242F001029A619A6842F012
:100F500003029A601A6A42F011021A621A6842F099
:100F600001021A60704700BF0010024000040048F0
:100F700000080040014B586A704700BF000800405D
:100F8000244B1A6822F0070210B51A601A68224C26
:100F900042F004021A60236843F48033236023681C
:100FA0009903FCD5236823F08073236023689A019A
:100FB000FCD4636823F07F736360636843F4E013D9
:100FC0006360636823F4C0336360636843F4803311
:100FD0006360636823F4E0636360636843F4806381
:100FE0006360236843F08073236023689B01FCD512
:100FF000636823F003036360636843F00203636084
:10100000636803F00C03082B00D110BDFFF7C6F88E
:10101000F6E700BF0020024000100240DFF834D0A5
:10102000FFF7B6F80C480D490D4A002302E0D458EA
:10103000C4500433C4188C42F9D30A4A0A4C002322
:1010400001E013600432A242FBD300F0EBFAFFF799
:10105000B3FDFEE7008000200000002060000020BB
:10106000603100086000002004020020FEE70A2230
:10107000002100F095B8931E222B10B50C4604D920
:1010800000230B701C46204610BD0A2A09D10028F7
:1010900007DA2D230B7040420121214400F08AF829
:1010A000F1E70021F9E7FFF7E6BF0000242B2DE967
:1010B000F0478646904601D8012B06D100F0ACFAE5
:1010C000162303600020BDE8F08734480D462A4609
:1010D00015F8014B065D16F00806F8D12D2C10D13D
:1010E0002C780126951C33F0100215D1302C0DD12F
:1010F0002A7802F0DF02582A08D16C7802351023D2
:101100000AE02B2C04BF2C78951CECE7002BF6D1C1
:10111000302C14BF0A23082306F1004C0CF1FF3CCD
:101120000022BCFBF3F9104603FB19CAA4F13007F7
:10113000092F0FD83C46A3421BDD571C07D0814521
:1011400014D301D1A24511DB00FB0340012215F8A5
:10115000014BEBE7A4F14107192F01D8373CEAE72F
:10116000A4F16107192F04D8573CE4E74FF0FF3290
:10117000EDE7531C08D12223CEF800306046B8F1C9
:10118000000FA0D0691E06E006B14042B8F1000F82
:1011900099D0002AF6D1C8F8001094E74D30000825
:1011A00013460A46014602480068FFF77FBF00BFAA
:1011B00010000020F0B51F4C8BB005460B466E4664
:1011C00004F1200C20686168374603C70834644581
:1011D0003E46F7D121793971911E20683860222965
:1011E0004FF0000104D919700B4618460BB0F0BD42
:1011F000581E8446B5FBF2F702FB175628366E449C
:101200000C4616F8286C0CF8016F2E46B24201F11C
:1012100001013D46EED900225A541919A51AAA42D5
:10122000E3DA10F8015F0E780670013201F8015917
:10123000F4E700BF46270008002310B50446C0E9C4
:101240000033C0E90433836081814366C2818361D6
:10125000194608225C3000F019F90D4B63620D4B02
:10126000A3620D4BE3620D4B23630D4B24629C4242
:1012700006D003F16802944202D0D0339C4205D1DB
:1012800004F15800BDE8104000F0F0B910BD00BFF7
:1012900005140008271400085F14000885140008CE
:1012A000B4000020024A0349034800F06BB800BFB5
:1012B00004000020851F00081400002041680C4B2A
:1012C000994210B5044601D000F05CFEA168094BBC
:1012D000994202D0204600F055FEE168064B994243
:1012E00004D02046BDE8104000F04CBE10BD00BF49
:1012F000B40000201C010020840100200C4B0D4A8A
:101300000D4810B504211A600022FFF795FF0A4B23
:1013100001221C46092103F16800FFF78DFF04F14B
:10132000D0000222BDE810401221FFF785BF00BFA8
:10133000EC010020A5120008B4000020014800F0D4
:1013400096B900BFF5010020014800F091B900BF37
:10135000F501002010B50446FFF7F0FF236A1BB12A
:10136000BDE81040FFF7F0BF044B2362044B1B683D
:10137000002BF5D1FFF7C2FFF2E700BFBD12000856
:10138000EC0100202DE9F843074688461446002664
:10139000D4E90195B9F1010905D52468002CF7D1EC
:1013A0003046BDE8F883AB89012B07D9B5F90E307B
:1013B000013303D029463846C04706436835E9E77C
:1013C0000EB410B59DB01FAB029006906FF00041B7
:1013D0000A48079104910A4953F8042B0591002407
:1013E00002A9006801931B9400F0C2FA029B1C70D2
:1013F0001DB0BDE8104003B0704700BF10000020D2
:101400000802FFFF10B50C46B1F90E1000F0E0F82D
:101410000028ABBF636DA3891B1823F48053ACBFB6
:101420006365A38110BD2DE9F0411F468B89DB0563
:1014300005460C46164605D5B1F90E1002230022CA
:1014400000F0B4F8A389B4F90E1023F48053A381FB
:1014500032463B462846BDE8F04100F0CBB810B517
:101460000C46B1F90E1000F0A1F8B4F90C30421C92
:101470000BBF23F4805343F48053A381A38118BF8F
:10148000606510BDB1F90E1000F080B8024403464B
:10149000934200D1704703F8011BF9E710B56AB118
:1014A0000139841810F8012B11F8013F9A4203D139
:1014B000A04201D0002AF5D1D01A10BD1046FCE799
:1014C0001B4B2DE9F0411C68656C06460F463DBB81
:1014D000502000F037F90246606420B9154B1648D9
:1014E0005B2100F0C7F88560626CC0E90055C2E975
:1014F0000355626CC2E90555626CC2E90A55626C1B
:10150000C2E90C55626CC2E90E55626CC2E9105515
:10151000626CC2E91255626C15772B46656C6B6282
:101520002A46394630460123BDE8F04100F006B8AE
:10153000100000206B27000882270008F0B5044641
:1015400008B9146844B1204614F8015B0F4617F837
:10155000016B1EB965B91560002005E0B542F6D1F2
:10156000002BF0D114600370F0BD1C460CE01DB9D7
:10157000274614F8013B0E4616F8015BAB42F6D144
:10158000002BF2D000233B701460EDE738B5064D18
:101590000023044608462B6001F034F8431C02D1B6
:1015A0002B6803B1236038BDF001002038B5074D2A
:1015B00004460846114600222A601A4601F04AF8FD
:1015C000431C02D12B6803B1236038BDF001002019
:1015D00038B5074D04460846114600222A601A46CF
:1015E00001F040F8431C02D12B6803B1236038BDE1
:1015F000F001002038B5074D044608461146002288
:101600002A601A4601F044F8431C02D12B6803B14A
:10161000236038BDF0010020014B1868704700BFFF
:101620001000002070B50D4B0D4D5B1B9C1000266B
:10163000A64209D101F036F80A4D0B4B5B1B9C10FA
:101640000026A64205D170BD55F8043B98470136E7
:10165000EEE755F8043B98470136F2E758310008A9
:1016600058310008583100085C3100087047704755
:10167000704700001FB514461A46094B1B68054603
:10168000D8684CB1074B0091CDE9013406492B468F
:1016900000F0A0FC00F0E8FC044B1C46F3E700BFA0
:1016A00010000020DD270008EA2700084527000871
:1016B00038B50546002941D051F8043C0C1F002BD9
:1016C000B8BFE41800F0E8F81D4A136833B9636046
:1016D00014602846BDE8384000F0E4B8A34208D9B9
:1016E000206821188B4201BF19685B6809182160C6
:1016F000EDE71A465B680BB1A342FAD9116850189E
:10170000A0420BD120680144501883421160E0D1FF
:1017100018685B68536008441060DAE702D90C234C
:101720002B60D6E7206821188B4204BF19685B68DC
:10173000636004BF091821605460CAE738BD00BF68
:10174000FC010020024B0146186800F025B800BFDC
:101750001000002070B50F4E0C463168054611B9D7
:1017600000F064FC30602146284600F05FFC431C1A
:1017700003D14FF0FF34204670BDC41C24F0030495
:10178000A042F8D0211A284600F050FC0130F2D1D6
:10179000EFE700BFF80100202DE9F843CD1C25F04C
:1017A000030508350C2D38BF0C25002D064601DB3E
:1017B000A94204D90C2333600020BDE8F883DFF888
:1017C000D48000F069F8D8F800301C4644BB2946A4
:1017D0003046FFF7BFFF431C044658D1D8F80040FD
:1017E0002746002F43D1002C4BD023683946304682
:1017F00004EB030900F01AFC814542D121686D1AFF
:1018000029463046FFF7A6FF01303AD023682B4423
:101810002360D8F800305A6862BBC8F800700FE047
:101820002268521B20D40B2A17D96119A3422560C4
:1018300018BF5960636808BFC8F8001062514B6058
:10184000304600F02FF804F10B00231D20F00700B4
:10185000C21A1CBF1B1AA350AFE76268A3420CBF99
:10186000C8F800205A60EBE723466468AEE73C46C0
:101870007F68B6E71A465B68A342FBD1002353603A
:10188000DEE70C233360304600F00CF894E7056087
:10189000D6E700BFFC0100200148FFF7E8BE00BF0B
:1018A000F40100200148FFF7E3BE00BFF40100206F
:1018B0002DE9F0478E681F46BE4282460C46904690
:1018C000334653D8B1F90C0010F4906F2BD06569F2
:1018D0002368096905EB4505A3EB010905EBD575FF
:1018E0007B1C6D104B44AB422A4684BF1D462A46E2
:1018F000430527D511465046FFF74EFF064658B31D
:1019000021694A4600F0A2FBA38923F4906343F0C7
:101910008003A381266165614E44A5EB090526601D
:10192000A5603E463B461F4620683A46414600F0C9
:1019300063FBA3689B1BA36023683B4423600020D8
:10194000BDE8F087504600F096FB06460028E1D13E
:1019500021695046FFF7ACFE0C23CAF80030A3897A
:1019600043F04003A3814FF0FF30E9E73E46DBE759
:101970002DE9F0471F468B891B069CB006460D4695
:10198000144610D50B6973B94021FFF705FF286095
:10199000286130B90C2333604FF0FF301CB0BDE834
:1019A000F08740236B610023099320238DF82930B1
:1019B00003973023654F8DF82A304FF001082346F6
:1019C000994613F8012B0AB1252AF9D1B9EB040A7B
:1019D0000BD05346224629463046FFF769FF0130B7
:1019E00000F0A480099A5244099299F80030002B23
:1019F00000F09C8000234FF0FF32CDE9052309F170
:101A00000109049307938DF853301A934C464F48BD
:101A100014F8011B0522FEF733FC049BD0B9D8064D
:101A200044BF20228DF85320190744BF2B228DF884
:101A3000532099F800202A2A13D0079A4C460020F8
:101A40004FF00A0C214611F8013B303B092B49D9D4
:101A500068B913E0C01B08FA00F018430490A146CF
:101A6000D4E7039A111D12680391002A01DB079243
:101A700004E0524243F002030792049323782E2B92
:101A80000AD163782A2B32D1039B1A1D1B6803925B
:101A900043EAE37302340593DFF8B490217803221C
:101AA0004846FEF7EDFB38B1049BA0EB090040224D
:101AB000824013430134049314F8011B25488DF828
:101AC00028100622FEF7DCFB002835D0224818BB80
:101AD000039B073323F0070308330393099B034455
:101AE00009936CE70CFB02320C460120AAE70023A5
:101AF0000134059319464FF00A0C204610F8012BCB
:101B0000303A092A03D9002BC6D00591C4E70CFB53
:101B1000012104460123F0E703AB00932A460F4B53
:101B200004A93046AFF30080421CD7D1AB895B06D5
:101B30003FF532AF099831E703AB00932A46074BD4
:101B400004A9304600F07AF8EEE700BF1928000833
:101B50001F2800082328000800000000B118000812
:101B60002DE9F047164698468A680B69DDF8209003
:101B70009342B8BF1346336091F8432007460C46A2
:101B80000AB1013333602368990642BF33680233D8
:101B90003360256815F0060506D104F1190AE368DB
:101BA00032689B1AAB4226DC94F843302268003B33
:101BB00018BF012392062BD404F143024146384654
:101BC000C84701301ED02368226903F00603042BA6
:101BD00002BFE5683368ED1AA3680CBF25EAE57516
:101BE00000259342C4BF9B1AED1800261A34B54253
:101BF0001AD1002008E00123524641463846C84722
:101C0000013003D14FF0FF30BDE8F0870135C6E762
:101C1000E1185A1C302081F84300224494F8451002
:101C200082F843100233C7E7012322464146384673
:101C3000C8470130E6D00136D9E700002DE9F0436E
:101C40000D7E85B0782D90460C9E07460C46994631
:101C500001F1430207D8622D0AD8002D00F0D78089
:101C6000582D00F0BC8004F1420684F842503BE05D
:101C7000A5F16303152BF6D801A151F823F000BF9D
:101C8000D91C0008ED1C0008671C0008671C000830
:101C9000671C0008671C0008ED1C0008671C000892
:101CA000671C0008671C0008671C0008F51D000879
:101CB000171D0008A71D0008671C0008671C000806
:101CC000171E0008671C0008171D0008671C000885
:101CD000671C0008AF1D000833681A1D1B683260BE
:101CE00004F1420684F842300123A1E03368206801
:101CF000191D3160060601D51D6803E04506FBD5B8
:101D0000B3F90050002D03DA2D236D4284F84330DF
:101D10005B480A2311E021683368080653F8045B26
:101D200002D4490648BFADB23360237E54486F2BBE
:101D30005CD10823002184F843106668A660002E59
:101D400005DB21682E4321F00401216050D01646A6
:101D5000B5FBF3F103FB115C10F80CC006F801CDE4
:101D6000AC4663450D46F3D9082B0BD12368DB073E
:101D700008D5236961689942DEBF302306F8013C2B
:101D800006F1FF36921B2261CDF80090434603AA6C
:101D900021463846FFF7E4FE01304ED14FF0FF30C8
:101DA00005B0BDE8F083236843F020032360354885
:101DB000782584F845502368316813F0800F51F876
:101DC000045B03D113F0400F18BFADB23160D907E7
:101DD00044BF43F0200323601DB11023AAE7284825
:101DE000E7E7236823F020032360F6E70A23A1E74F
:101DF0001646B9E7336825686169181D30602E06FC
:101E00001B6801D5196002E06806FBD51980002324
:101E100023611646B8E733681A1D32601E6862688F
:101E200000213046FEF72CFA08B1801B6060636821
:101E30002361002384F84330A6E7236932464146F4
:101E40003846C8470130A9D023689B0713D4E068FF
:101E5000039B9842B8BF1846A2E701233246414689
:101E60003846C847013099D00135E36803995B1AB9
:101E7000AB42F2DCEBE7002504F11906F5E700BF01
:101E80002A2800083B280008B1F90C20F8B51607ED
:101E900005460C4651D44B68002B02DC0B6C002B22
:101EA00049DDE66A002E46D0002312F480522F68E6
:101EB0002B6031D0626DA389590705D56368D21AAA
:101EC000636B0BB1236CD21A0023E66A216A2846A1
:101ED000B047421CB4F90C3006D129681D2945D8F9
:101EE000274ACA40D60741D500226260D904226938
:101EF000226004D5421C01D12B6803B96065616B77
:101F00002F60C1B104F14403994202D02846FFF783
:101F1000CFFB002363630EE0216A01232846B0470C
:101F20000246501CC7D12B68002BC4D01D2B01D0FA
:101F3000162B19D12F6000201DE00F69002FFAD059
:101F400093070E6808BF4B690F6018BF0023F61B8C
:101F50008B60002EEFDD216AD4F828C033463A4664
:101F60002846E047002807DCB4F90C3043F0400372
:101F7000A3814FF0FF30F8BD0744361AE9E700BFF0
:101F80000100402038B50B6905460C4613B9002501
:101F9000284638BD18B1036A0BB9FFF7DBF9B4F96D
:101FA0000C30002BF3D0626ED00704D4990502D414
:101FB000A06DFFF75CFB28462146FFF765FF636EC7
:101FC000DA070546E4D4A3899B05E1D4A06DFFF7A9
:101FD0004FFBDDE70EB403B5014603AB054853F8EC
:101FE000042B0068019300F09BF802B05DF804EB4D
:101FF00003B0704710000020884210B501EB0204C6
:1020000002D98442234607D8431EA14207D011F8C3
:10201000012B03F8012FF8E70244824200D110BDE2
:1020200013F8011D02F8011DF7E7000038B5064D51
:102030000023044608462B6000F01CFB431C02D121
:102040002B6803B1236038BDF00100200A4491429F
:1020500000F1FF3300D1704710B511F8014B03F8C0
:10206000014F9142F9D110BD08B5062000F026FAC3
:10207000012000F015FB2DE9F041074614460D46FE
:1020800021B9BDE8F0411146FFF786BB2AB9FFF739
:102090000FFB25462846BDE8F08100F02BFA84426C
:1020A000064602D8B4EB500FF4D821463846FFF765
:1020B00073FB804608B94546ECE7B4422246294600
:1020C00028BF3246FFF7C2FF29463846FFF7F0FA2D
:1020D000F1E79368013B002B10B4936007DA946931
:1020E000A34201DB0A2902D110BC00F02DB913680C
:1020F000581C10601970084610BC7047F8B50646A9
:102100000F461446D518AC4201D1002007E014F860
:10211000011B3A463046FFF7DCFF431CF3D1F8BD04
:102120002DE9F0470D469CB014461F46064618B1EF
:10213000036A0BB9FFF70EF96B6ED90705D4AB89AB
:102140009A0502D4A86DFFF792FAAB891B0701D557
:102150002B699BB92946304600F034F970B16B6E9B
:10216000DC0704D54FF0FF301CB0BDE8F087AB8929
:102170009805F7D4A86DFFF77BFAF3E700230993DE
:1021800020238DF82930039730236A4F8DF82A30A9
:102190004FF001082346994613F8012B0AB1252A6E
:1021A000F9D1B9EB040A0BD05346224629463046F2
:1021B000FFF7A4FF013000F0A480099A524409926D
:1021C00099F80030002B00F09C8000234FF0FF3284
:1021D000CDE9052309F10109049307938DF85330E4
:1021E0001A934C46534814F8011B0522FEF748F891
:1021F000049BD0B9D90644BF20228DF853201A077A
:1022000044BF2B228DF8532099F800202A2A13D09E
:10221000079A4C4600204FF00A0C214611F8013B6A
:10222000303B092B49D968B913E0C01B08FA00F00C
:1022300018430490A146D4E7039A111D1268039134
:10224000002A01DB079204E0524243F002030792A6
:10225000049323782E2B0AD163782A2B32D1039B47
:102260001A1D1B68039243EAE37302340593DFF8F7
:10227000C890217803224846FEF702F838B1049B43
:10228000A0EB09004022824013430134049314F868
:10229000011B2A488DF828100622FDF7F1FF0028BF
:1022A0003ED0274818BB039B073323F007030833AE
:1022B0000393099B034409936CE70CFB02320C4621
:1022C0000120AAE700230134059319464FF00A0CB8
:1022D000204610F8012B303A092A03D9002BC6D02A
:1022E0000591C4E70CFB012104460123F0E703AB91
:1022F00000932A46134B04A93046AFF30080431CD9
:10230000D7D16B6ED90705D4AB899A0502D4A86DD5
:10231000FFF7AEF9AB895B063FF524AF099823E7D9
:1023200003AB00932A46074B04A93046FFF786FC0F
:10233000E5E700BF192800081F2800082328000827
:1023400000000000FD200008F8B50E4614460546C2
:1023500018B1036A0BB9FEF7FDFFA369A360A38957
:102360001A0701D5236943B92146284600F02AF807
:1023700018B14FF0FF373846F8BD23682269981A24
:102380006369F6B28342374605DC21462846FFF7EB
:10239000F9FD0028EDD1A368013BA36023685A1C16
:1023A00022601E706269431C9A4204D0A389DB0735
:1023B000E1D50A2EDFD121462846FFF7E3FD0028AC
:1023C000D9D0D6E738B5284B054618680C4618B161
:1023D000036A0BB9FEF7BEFFB4F90C301A0721D41B
:1023E000D80607D409222A6043F04003A3814FF0A6
:1023F000FF3030E0590712D5616B41B104F144035D
:10240000994202D02846FFF753F900236363002264
:10241000B4F90C3062602269226023F0240343F097
:102420000803A38122693AB99A0501D5180603D594
:102430002146284600F08AF8B4F90C3013F0010266
:102440000AD00022A26062695242A261226942B9A6
:1024500013F08000C8D138BD990758BF6269A260E7
:10246000F4E70020F7E700BF100000201F2938B56F
:1024700005460C4604D9162303604FF0FF3038BDE3
:10248000C26B12B152F821304BB9284600F030F837
:10249000224601462846BDE8384000F017B8012B17
:1024A0000AD0591C03D1162303600120E7E700215D
:1024B00042F82410204698470020E0E7024B0146EE
:1024C0001868FFF7D3BF00BF1000002038B5074DD4
:1024D00000230446084611462B6000F0B3F8431C65
:1024E00002D12B6803B1236038BD00BFF00100208A
:1024F00000F098B851F8043C181F002BBCBF0B58D3
:10250000C018704770B50C46B1F90E10002996B08E
:1025100015461E460ADAA18911F0800113D14FF445
:102520008062002031602A6016B070BD6A4600F0FB
:1025300047F80028EFDB019901F47041A1F5005341
:1025400059425941EBE700214022EAE78B8973B5F4
:102550009E0705460C4607D504F147032360236117
:102560000123636102B070BD01AB6A46FFF7CAFF89
:10257000009E28463146FFF70FF9B4F90C3038B900
:102580009A05EFD423F0030343F00203A381E3E7AA
:1025900043F08003A381019B2060C4E90406002B63
:1025A000E0D0B4F90E10284600F01CF80028D9D06D
:1025B000A38923F0030343F00103A381D2E70000C2
:1025C00038B5074D00230446084611462B6000F03D
:1025D00021F8431C02D12B6803B1236038BD00BF32
:1025E000F001002038B5064D0023044608462B6054
:1025F00000F020F8431C02D12B6803B1236038BDE2
:10260000F0010020024B58221A604FF0FF30704753
:10261000F0010020024B58221A604FF0FF30704743
:10262000F0010020024B58221A604FF0FF30704733
:10263000F0010020024B58221A600020704700BFB2
:10264000F0010020024B58221A604FF0FF30704713
:10265000F0010020024B58221A604FF0FF30704703
:10266000F0010020024B58221A604FF0FF307047F3
:10267000F0010020044A05491368002B08BF0B46EF
:10268000184410601846704700020020080200201D
:10269000024B58221A604FF0FF307047F0010020C3
:1026A000FEE700BFF8B500BFF8BC08BC9E46704707
:0C26B000F8B500BFF8BC08BC9E4670479F
:1026BC0000000000000000000102030406070809E6
:1026CC00000000000102030449324320537461727C
:1026DC0074205363616E200A0D000A0D20493243A9
:1026EC002046494E443A203078000A0D20493243A6
:1026FC0020456E64205363616E200A0D0054494DD1
:10270C004520253032643A253032643A2530326423
:10271C00200D0A00256C64004745543A2000737460
:10272C00002C005345542054494D45202D3E202566
:10273C0032643A253264200D0A003031323334359C
:10274C00363738396162636465666768696A6B6CD1
:10275C006D6E6F707172737475767778797A0052CA
:10276C0045454E54206D616C6C6F632073756363CB
:10277C006565646564002F646174612F6A656E6BB6
:10278C00696E732F776F726B73706163652F474E31
:10279C00552D746F6F6C636861696E2F61726D2D4E
:1027AC0031342F7372632F6E65776C69622D637988
:1027BC006777696E2F6E65776C69622F6C696263DF
:1027CC002F737472696E672F737472746F6B2E63D0
:1027DC00002C2066756E6374696F6E3A200061730D
:1027EC0073657274696F6E2022257322206661698D
:1027FC006C65643A2066696C6520222573222C2056
:10280C006C696E65202564257325730A00232D30B1
:10281C002B2000686C4C00656667454647003031DC
:10282C00323334353637383941424344454600302B
:10283C00313233343536373839616263646566005A
:10284C00000000000000000000000000000000007C
:10285C00000000000000000000000000000000006C
:10286C00000000000000000000000000000000005C
:10287C00000000000000000000000000000000004C
:10288C00000000000000000000000000000000003C
:10289C00000000000000000000000000000000002C
:1028AC00000000000000000000000000000000001C
:1028BC00000000000000000000000000000000000C
:1028CC0000000000000000000000000000000000FC
:1028DC0000000000000000000000000000000000EC
:1028EC0000000000000000000000000000000000DC
:1028FC0000000000000000000000000000000000CC
:10290C0000000000000000000000000000000000BB
:10291C0000000000000000000000000000000000AB
:10292C00000000000000000000000000000000009B
:10293C00000000000000000000000000000000008B
:10294C00000000000000000000005F00000000001C
:10295C000003000300000000143E143E14000000AD
:10296C00242A7F2A1200000023130864620000004E
:10297C003649562050000000000003000000000003
:10298C00001C2241000000000041221C000000003D
:10299C0014083E081400000008083E080800000057
:1029AC000080600000000000080808080800000013
:1029BC00000040000000000020100804020000008D
:1029CC003E5149453E00000000427F40000000009F
:1029DC006251494946000000224149493600000035
:1029EC001814127F100000002F49494931000000D3
:1029FC003C4A494930000000017109050300000000
:102A0C003649494936000000064949291E00000094
:102A1C00003636000000000000AC6C000000000026
:102A2C0008142241000000001414141414000000B7
:102A3C0000412214080000000201590906000000A0
:102A4C003E415D551E0000007E1111117E000000FC
:102A5C007F494949360000003E41414122000000B7
:102A6C007F4141413E0000007F494949410000003F
:102A7C007F090909010000003E4149493A00000064
:102A8C007F0808087F00000000417F410000000023
:102A9C00304040403F0000007F08142241000000FD
:102AAC007F404040400000007F020C027F0000008D
:102ABC007F0408107F0000003E4141413E000000B1
:102ACC007F090909060000003E4151215E0000000B
:102ADC007F091929460000002649494932000000A7
:102AEC0001017F01010000003F4040403F00000019
:102AFC001F2040201F0000007F2018207F000000B6
:102B0C006314081463000000070870080700000035
:102B1C006151494543000000007F41410000000025
:102B2C0002040810200000000041417F000000005A
:102B3C00040201020400000040404040400000003C
:102B4C0001020400000000002054545478000000DE
:102B5C007F484444380000003844444428000000B6
:102B6C00384444487F000000385454541800000086
:102B7C00087E09010200000018A4A4A47C00000037
:102B8C007F0804047800000000447D400000000031
:102B9C004080847D000000007F102844000000006D
:102BAC0000417F40000000007C04780478000000A5
:102BBC007C080404780000003844444438000000C9
:102BCC00FC2424241800000018242424FC000000F9
:102BDC007C080404080000004854545424000000ED
:102BEC00043F4444200000003C4040207C00000096
:102BFC001C2040201C0000003C4030403C000000E9
:102C0C0044281028440000001CA0A0A07C00000058
:102C1C004464544C4400000008364141000000005C
:102C2C00007F000000000000004141360800000059
:102C3C00020102040200000000000000000000007D
:102C4C000000000000000000000000000000000078
:102C5C000000000000000000000000000000000068
:102C6C000000000000000000000000000000000058
:102C7C000000000000000000000000000000000048
:102C8C000000000000000000000000000000000038
:102C9C000000000000000000000000000000000028
:102CAC000000000000000000000000000000000018
:102CBC000000000000000000000000000000000008
:102CCC0000000000000000000000000000000000F8
:102CDC0000000000000000000000000000000000E8
:102CEC0000000000000000000000000000000000D8
:102CFC0000000000000000000000000000000000C8
:102D0C0000000000000000000000000000000000B7
:102D1C0000000000000000000000000000000000A7
:102D2C000000000000000000000000000000000097
:102D3C000000000000000000000000000000000087
:102D4C000000000000000000001010101000100027
:102D5C00002828000000000000287C287C280000A7
:102D6C0000103C50381478100060640810260600DF
:102D7C0000304830544834000010100000000000AF
:102D8C000008102020100800002010080810200057
:102D9C0000105438385410000010107C1010000033
:102DAC0000000000001010200000007C000000005B
:102DBC00000000000010100000040810204000006B
:102DCC000038444C54644438001030501010107CBF
:102DDC00003844040810207C00384404180444389B
:102DEC0000081828487C0808007C40780404443803
:102DFC000038444078444438007C040810202020DB
:102E0C000038444438444438003844443C04443882
:102E1C000000101000101000000010100010102006
:102E2C00000810201008000000007C007C0000004E
:102E3C000020100810200000003844040810001076
:102E4C000038445C545C4038003844447C444400B2
:102E5C000078444478444478003844404040443836
:102E6C000078444444444478007C40407840407CA2
:102E7C00007C404078404040003844405C4444383A
:102E8C00004444447C444444003810101010103862
:102E9C00001C08080848483000444850605048441A
:102EAC00004040404040407C00446C5454444444F6
:102EBC00004464544C44444400384444444444382E
:102ECC0000784444784040400038444444544834EA
:102EDC00007844447850484400384440380444381E
:102EEC00007C10101010101000444444444444382A
:102EFC0000444444444428100044445454546C4406
:102F0C000044442810284444004444442810101021
:102F1C00007C04081020407C003820202020203821
:102F2C000040201008040000003808080808083881
:102F3C000010284400000000000000000000007C8D
:102F4C000020100800000000000038043C44443C01
:102F5C0000404078444444780000384440404438B1
:102F6C000004043C4444443C000038447C40443855
:102F7C00001820782020202000003C44443C0438D9
:102F8C000040407844444444001000301010103885
:102F9C000008001808084830004048506050484469
:102FAC000030101010101038000068545454545451
:102FBC0000007844444444440000384444444438B9
:102FCC00000078444478404000003C44443C0404F5
:102FDC0000005824202020200000384430084438B9
:102FEC0000202078202024180000444444444C3411
:102FFC0000004444444428100000445454545428C1
:10300C00000044281028444400004444443C043844
:10301C0000007C081020407C001820204020201844
:10302C0000101010101010100030080804080830A0
:10303C0000304848000000000000000000000000C4
:10304C00002020202020202020202828282828206C
:10305C002020202020202020202020202020202064
:10306C0020881010101010101010101010101010CC
:10307C0010040404040404040404041010101010BC
:10308C001010414141414141010101010101010186
:10309C0001010101010101010101010110101010D8
:1030AC001010424242424242020202020202020258
:1030BC0002020202020202020202020210101010AC
:1030CC0020000000000000000000000000000000D4
:1030DC0000000000000000000000000000000000E4
:1030EC0000000000000000000000000000000000D4
:1030FC0000000000000000000000000000000000C4
:10310C0000000000000000000000000000000000B3
:10311C0000000000000000000000000000000000A3
:10312C000000000000000000000000000000000093
:10313C000000000000000000000000000000000083
:04314C00000000007F
:0831500030D1FF7F01000000F7
:0431580089030008DF
:04315C006103000803
:1031600000127A000000000003000000B4000020FC
:103170001400002000000000B40000201C0100200A
:10318000840100200000000000000000000000009A
:10319000000000000000000000000000000000002F
:1031A000000000000000000000000000000000001F
:1031B000000000000000000000000000000000000F
:040000050800101DC2
:00000001FF
